:100000000C9467000C948F000C948F000C948F005C
:100010000C948F000C948F000C948F000C948F0024
:100020000C948F000C948F000C948F000C94FF1193
:100030000C948F000C948F000C948F000C948F0004
:100040000C9410140C948F000C947C170C94AE1725
:100050000C948F000C948F000C948F000C948F00E4
:100060000C94D4100C948F000000000800020100D2
:100070000003040700000000000000000102040863
:100080001020408001020408102001020408102002
:10009000040404040404040402020202020203032E
:1000A00003030303000000002300260029000000D2
:1000B0000000250028002B0000000000240027007D
:1000C0002A002806A109C10EF20FDE17C90E11245D
:1000D0001FBECFEFD8E0DEBFCDBF12E0A0E0B1E0A1
:1000E000EAE1F5E302C005900D92A432B107D9F719
:1000F00025E0A4E2B2E001C01D92A230B207E1F710
:1001000010E0CCECD0E004C02297FE010E940B1955
:10011000C23CD107C9F70E9491180C94801A0C9424
:100120000000CF92DF92EF92FF920F931F93E82F80
:10013000F92F05C0015011092109310961F19081A0
:1001400096239417B9F305C001501109210931090B
:1001500011F1908196239413F7CFC12CD12CE12C6F
:10016000F12C0AC08FEFC81AD80AE80AF80A0C1551
:100170001D052E053F0579F080818623841791F3B4
:100180006C2D7D2D8E2D9F2D1F910F91FF90EF9047
:10019000DF90CF90089560E070E080E090E01F91E4
:1001A0000F91FF90EF90DF90CF900895FF920F9303
:1001B0001F93CF93DF93EC01F22E798368838B0139
:1001C000000F111F060F171F1B830A834C831D820C
:1001D0002B871C861D861E861F8650E0FA01E0577D
:1001E000FF4FE491F0E0EE0FFF1FE255FF4F8591C6
:1001F0009491998B888BFA01E458FF4F44914A8B74
:10020000C8010E941E199F838E83009729F0A801C0
:1002100060E070E00E94451AF0FE04C081E088872B
:1002200019860BC0F2FE06C081E0888782E08987CC
:100230001A8605C0188681E0898782E08A87DF9167
:10024000CF911F910F91FF900895CF93DF93EC0111
:100250008E819F81009711F00E94B61960E08C8119
:10026000DF91CF910C949C15CF93DF93EC0161E06B
:100270008C810E949C1560E08C81DF91CF910C9461
:10028000D515CF92DF92EF92FF920F931F93CF93EA
:10029000DF93CDB7DEB729970FB6F894DEBF0FBE58
:1002A000CDBF8C01DC0116968D919C911797892BFF
:1002B00009F49BC00E946614F801C484D584E684C6
:1002C000F7846C197D098E099F09623371058105D8
:1002D000910580F3F894828193819A838983A68122
:1002E000B7817D01EFEFEE1AFE0A8C918987D80164
:1002F0001B969C911B9750960D90BC91A02DF801D8
:10030000828991FF2EC09C91982B98879C91809513
:1003100089238F838F818E8388E08D8358856F81B9
:1003200049853D812E8189819A81F7015C9347FD42
:10033000252F3A952C93262F39F0441F00C000003A
:100340006C93000000C0F2CF38E041916C93000044
:10035000019761F7F801B18BA08B49873D832E830C
:1003600038C09C91982B98879C91809589238F8386
:100370008F818C8388E08B8358856F8149853B8191
:100380002C8189819A81F7015C9347FD252F00C05C
:1003900000C02C9300C000C000C000C000C06C931F
:1003A0000000262F3A9541F0441F000000C000C015
:1003B00000C000C000C0E8CF38E0419100C06C939D
:1003C00000C0019709F7F801B18BA08B49873B83E7
:1003D0002C839A83898378940E946614D8011C9692
:1003E0006D937D938D939C931F9729960FB6F894E8
:1003F000DEBF0FBECDBFDF91CF911F910F91FF9058
:10040000EF90DF90CF9008951F93CF93DF93EC018F
:10041000162F60E08C810E949C151C8361E0812F67
:100420000E949C1560E0812F0E94D515812F90E0DD
:10043000FC01E057FF4FE491F0E0EE0FFF1FE255A3
:10044000FF4F25913491398B288BFC01E458FF4FE5
:1004500084918A8BDF91CF911F910895CF92DF9283
:10046000EF92FF920F931F93CF93DF93FC01808154
:1004700091816817790788F5CA01AA27BB27082F39
:10048000C32ED42EE52EFF241C2DD22FC581CC23C4
:1004900061F08C9FC0011124092FCC9E60011124B2
:1004A0001D2D2C9F90011124D32F9B01220F331F50
:1004B000260F371F86819781820F931F2085DC01CD
:1004C000A20FB11D0C932185DC01A20FB11D1C935D
:1004D0002285FC01E20FF11DD083DF91CF911F91A6
:1004E0000F91FF90EF90DF90CF9008950F931F939F
:1004F000CF93DF93EC018B0188819981DC01ED9131
:10050000FC916F770190F081E02D099588819981A8
:10051000DC01ED91FC91B801660F672F661F770B28
:100520006F770190F081E02DDF91CF911F910F91B6
:100530000994DC018D919C91DC01ED91FC9101907D
:10054000F081E02D60EF0994DC018D919C91DC013C
:10055000ED91FC910190F081E02D67EF0994CF932C
:10056000DF93EC0188819981DC01ED91FC91019090
:10057000F081E02D69EF099588819981DC01ED9189
:10058000FC910190F081E02D62E0099588819981CC
:10059000DC01ED91FC910190F081E02D64E0DF91B0
:1005A000CF9109941F93CF93DF93EC018A81882325
:1005B000D9F1CE010E94990288819981DC01ED91E7
:1005C000FC910190F081E02D69E70995888199817E
:1005D000DC01ED91FC91AB81BC810190F081E02DBB
:1005E0006C91099588819981DC01ED91FC91AB8139
:1005F000BC810190F081E02D11966C91099512E07B
:100600008A81181758F4EB81FC81E10FF11D60819C
:1006100070E0CE010E9476021F5FF2CFCE01DF9123
:10062000CF911F910C94A402DF91CF911F91089557
:10063000CF92DF92EF92FF920F931F93CF93DF93AE
:100640008C01EB01C42ED22E6EE071E0CE010E942F
:10065000661A7C016FE270E0CE010E945B1A00977F
:1006600039F46CE570E0CE010E945B1A009711F03E
:10067000EC012196E114F10451F4FE0101900020F7
:10068000E9F7EC1BEF5FD8011296EC9306C0EC1A69
:10069000FD0AE394E394F801E282D80113968D9168
:1006A0009C9114970E94B619F801E280F12CC701C1
:1006B0000E941E19D80114969C938E931397DC0107
:1006C000AE0DBF1D1C92FC01C082D182D8011296D2
:1006D0004C9150E042505109BE010296DF91CF91FA
:1006E0001F910F91FF90EF90DF90CF900C944C1AD8
:1006F000DC018D919C91DC01ED91FC910480F581F0
:10070000E02D09940F931F93CF93DF93FC01208575
:10071000213749F0293709F049C0DF91CF911F9166
:100720000F910C94D202FC01E95AFF4F0190F08125
:10073000E02D309709F450C0DC01A75BBF4F4D910D
:100740005C919A012150310937FD9A01B9017595E3
:100750006795062F40E050E020E030E04E5F5F4FAD
:100760002017A0F4EC01C40FD51F1F81DC01A20FDC
:10077000B31F18961C931897C885D0E8CD9F101901
:10078000112418961C932F5F3F4FE8CFDC01A60F72
:10079000B11D17962C911797222311F018961C92D1
:1007A0000896DF91CF911F910F910994FC01E75AB0
:1007B000FF4F0190F081E02D309771F0AC01475F61
:1007C0005F4FDC01A75BBF4F6C916150822FDF91BF
:1007D000CF911F910F910994DF91CF911F910F91AC
:1007E00008950F931F93CF93DF93EC018A018881C3
:1007F0009981DC01ED91FC916F70606E0190F08148
:10080000E02D0995B801CE01DF91CF911F910F9195
:100810000C9476020F931F93CF93DF93EC018A0120
:1008200088819981DC01ED91FC916F706069019084
:10083000F081E02D099588819981DC01ED91FC9191
:10084000602F6F770190F081E02D09958881998163
:10085000DC01ED91FC91B801660F672F661F770BE5
:100860000190F081E02DDF91CF911F910F910994BC
:10087000CF92DF92EF92FF920F931F93CF93DF936C
:1008800000D01F92CDB7DEB78C01F42E2A833B83B4
:1008900069830E949902D8018D919C91DC01ED91B0
:1008A000FC910190F081E02D698109952A81E22E69
:1008B000C22E3B81D32E8C2D8E198F1540F4F6015C
:1008C00061916F0170E0C8010E947602F4CFC80107
:1008D0000F900F900F90DF91CF911F910F91FF908C
:1008E000EF90DF90CF900C94A4029A01FA0101904E
:1008F0000020E9F73197E41BF50B4E2F0C943804D8
:10090000AB0161E70C947504DC018D919C91DC01D5
:10091000ED91FC910190F081E02D0994603DB9F0DA
:1009200028F4603961F0603C71F00895603E19F080
:10093000643F89F00895FC01E55BFF4F0FC0FC01A7
:10094000E35BFF4F0BC0FC01E15BFF4F07C0FC0105
:10095000EF5AFF4F03C0FC01ED5AFF4F5183408314
:1009600008956F3F29F4FC01EB5AFF4F51834083F8
:100970000895875A9F4FFC01518340830895FC01DD
:1009800015821682178280E090E0DF01A80FB91F60
:1009900018961C92019680349105B9F7DF01A85B87
:1009A000BF4F1C9211961D921C92EB5AFF4F019063
:1009B000F081E02D309709F009940895FC0112822E
:1009C000148213820C94BF04CF93DF93EC018881CF
:1009D0009981DC01ED91FC910680F781E02D09956C
:1009E000FE01E85BFF4F20812223B1F0873F910594
:1009F00031F41082CE01DF91CF910C948203FE017D
:100A0000E75BFF4F20813181C20FD31F88872F5FA3
:100A10003F4F318320839DC02D81222309F45EC086
:100A2000803891050CF05AC09FEF920F9D83FE0114
:100A3000E90FF11D808791118CC08E81882309F404
:100A400088C0803DE9F148F48039E9F0803C09F044
:100A500043C0FE01E15BFF4F36C0803E19F0843F8A
:100A600019F13AC0FE01E55BFF4F0190F081E02DE6
:100A7000309791F18885698570E0B0E88B9F600DB3
:100A8000711D112427C0FE01E35BFF4F0190F0812F
:100A9000E02D309709F18885698570E090E8899F9D
:100AA000600D711D112416C0FE01ED5AFF4F01901B
:100AB000F081E02D309781F0688570E089850BC06A
:100AC000FE01EF5AFF4F0190F081E02D309721F0A9
:100AD000688570E08F8109951E823BC0803F91053B
:100AE0002CF4282F2F702F83807F9927803E91052B
:100AF00021F154F4803C910511F1803D9105F9F00C
:100B00008039910531F519C0843F9105B1F054F455
:100B1000803F9105F1F481E08083C75BDF4F19824C
:100B2000188217C0893F910571F08F3F910589F4B4
:100B3000CE01DF91CF910C94BF0492E001C091E00F
:100B40009D838E8306C084E292E0DF91CF910C9466
:100B5000AF02DF91CF9108958F929F92AF92BF9293
:100B6000CF92DF92EF92FF921F93CF93DF93EB012F
:100B70004A01690161E08DE00E949C1510E0EE24BD
:100B8000D7FCE094FE2CAA2497FCA094BA2C812FC9
:100B900090E08C179D0794F4C701B6010E94891458
:100BA00061E08DE00E94D515C501B4010E94891451
:100BB00060E08DE00E94D5151F5FE9CFDF91CF91F6
:100BC0001F91FF90EF90DF90CF90BF90AF909F90DC
:100BD0008F900895CF93DF93EC0161E08DE00E9448
:100BE0009C1522ED30E048E250E062E070E0CE017A
:100BF0000E94AC056AEF70E080E090E00E948914EA
:100C000022ED30E048E250E064E070E0CE010E9466
:100C1000AC056DE770E080E090E0DF91CF910C943F
:100C20008914CF93DF93EC0126E081E694E00E94E3
:100C30001A1781E694E099838883CE010E94EA0521
:100C4000CE010E94AF02CE01DF91CF910C94D2026F
:100C500084E292E00C94DE04833008F062C0482FF6
:100C6000440F440F440F485F473108F046E1582FC6
:100C7000550F550F550F90E071E05417E8F42EEF23
:100C8000250F2231B0F4E52FF0E0DF01AF5BBC4F60
:100C90002C91223070F4972BEE0FFF1FEE5EFC4F6D
:100CA00021E030E0A72FA62311F420E030E03183CB
:100CB0002083770F5F5FE1CF81110AC09C7FF8949A
:100CC0002BB1892F809582239623892B8BB928C03D
:100CD0008130C9F46923F89425B1892F8F738095E9
:100CE0008223262F2F73822B85B988B16295669552
:100CF00066956370929596959695937090959823C6
:100D0000692B68B90DC09F70F89428B1892F880F9E
:100D1000880F809582236923660F660F862B88B91A
:100D2000789408950F931F93CF93DF93EB0186314F
:100D300080F5082F10E0F801EF5BFC4F90819330B5
:100D4000A1F0943031F582508231E0F4F801E3579C
:100D5000FD4F208130E0C901880F991F820F931F3A
:100D60008D559D4F0E949C130DC0833041F09BEF29
:100D7000980F923020F097EF980F933018F4BE013F
:100D80000E941415F801EE0FFF1FEE5EFC4FD18399
:100D9000C083DF91CF911F910F910895CF93C82FFA
:100DA000883030F540915D0350915E0321E030E0E2
:100DB000082E02C0220F331F0A94E2F7672B49F472
:100DC000209530952423352330935E0320935D03D3
:100DD0000FC0242B352B30935E0320935D030E94BC
:100DE000F714AC016C2F84E292E0CF910C94F103E4
:100DF000CF910895DB019A0190917F029C30D0F54C
:100E000040918002682F70E0442369F0E42FF0E005
:100E1000E058FD4F8081FB01E357FD4F8083415037
:100E20004093800207C0FB01E357FD4F90839F5F13
:100E300090937F02FB01E357FD4F1A161B067CF4CB
:100E40001216130664F4408150E0CA01880F991FFE
:100E5000840F951FAD018D559D4F0C94D7122081A5
:100E600030E0C901880F991F820F931F8D559D4F48
:100E70000C94551363E171E084E292E00C948004D9
:100E8000CF93DF93C82FD0E0C357DD4F288130E0E8
:100E9000C901880F991F820F931F8D559D4F0E9486
:100EA0005B13888190917F02891306C0882379F0B3
:100EB000815080937F020BC0992349F0E09180021A
:100EC000EF5FE0938002F0E0E058FD4F80838FEF0A
:100ED0008883DF91CF9108951F93CF93DF93162FCF
:100EE000C82FD0E0FE01E25CFC4F90811923C95A63
:100EF000DC4F411103C09881911741F0412F50E020
:100F0000682F84E292E00E940A041883DF91CF9157
:100F10001F910895833020F5282F30E0F901E65A1B
:100F2000FC4F6083672BE1F0F901E25CFC4F90819C
:100F3000811103C069B16C7F0FC0813049F463B186
:100F400026B140E4249F900111246F73622B04C0EA
:100F500066B16C7366956695692341E00C946C07E5
:100F6000089580915A03882349F069B180913E0326
:100F700068236C7F40E080E00E946C0780915B03F7
:100F8000882379F063B186B120E4829FC0011124E7
:100F90006F73682B80913F03682340E081E00E94DB
:100FA0006C0780915C03882359F066B16C73669579
:100FB000669580914003682340E082E00C946C07C2
:100FC00008951092C9028FEF80930A010895AF929D
:100FD000BF92DF92EF92FF920F931F93CF93DF9315
:100FE00000D0CDB7DEB7D82E5B01E82EF12C8701FB
:100FF0000F5B1C4FF8018081863049F48091C90253
:10100000882329F06630710511F00E94E1074EEF48
:101010004D0D4231C0F484E0A816B104A1F0F701EF
:10102000E357FD4F20812C3070F430E0C901880F68
:10103000991F820F931F8D559D4F4A830E94011463
:101040004A818111C3C092EF9D0D983078F461E020
:1010500070E0E2E0AE16B10411F060E070E0892FBC
:101060004A8399830E94CE0699814A814231D8F4FD
:10107000ED2DE695E695E6958D2D8770F0E0E25C26
:10108000FC4F21E030E0082E01C0220F0A94EAF75D
:10109000A114B10421F48081822B808304C02095A7
:1010A000808128232083F701EE0FFF1FEE5EFC4FA7
:1010B00011821082F2E0AF16B104A1F03CF4A11449
:1010C000B104F9F0AA94AB2851F16FC0F4E0AF1667
:1010D000B10409F448C084F1E6E0AE16B10409F4A5
:1010E0005CC063C0983008F089C0423140F460E0D1
:1010F0008D2D0E949C1560E08D2D0E94D51582E0FB
:1011000051C0423108F07AC060E08D2D0E949C15DC
:1011100060E08D2D0E94D515F80110826FC042311C
:1011200008F06CC060E08D2D0E94D51561E08D2D1A
:101130000E949C1581E036C0F3E0DF1649F08BEF8A
:101140008D0D823028F087EF8D0D833008F056C06A
:1011500061E08D2D0E949C1560E070E08D2D0E9455
:10116000141583E01FC0423108F048C084E0F80144
:101170008083F701E357FD4F80818F3F69F190E055
:101180009C01220F331F280F391FC9018D559D4F18
:101190000E940114811132C01FC08EEE8D0D82306D
:1011A00068F586E0F801808329C067E271E084E297
:1011B00092E00F900F90DF91CF911F910F91FF90D0
:1011C000EF90DF90BF90AF900C9480048D2D4A83F8
:1011D0000E9440074A8137CF4FEF5FEF6FEF7FEFFD
:1011E0008D2D0F900F90DF91CF911F910F91FF9058
:1011F000EF90DF90BF90AF900C94FA060F900F9095
:10120000DF91CF911F910F91FF90EF90DF90BF90F2
:10121000AF900895CF93C0E08EEE8C0F823028F40B
:1012200066E070E08C2F0E94E707CF5FC631A1F720
:1012300081E08093C90282E793E0CF910C94640F20
:101240000F931F93CF93DF938091C90281110E9466
:10125000E10710925A0310923E0310925703109226
:101260005B0310923F031092580310925C0310929C
:10127000400310925903CDE8D2E010E00FEF82EF67
:10128000810F883018F462E070E002C061E070E025
:10129000812F0E94E70709931F5F163181F7109293
:1012A0005E0310925D031092800210927F02DF9124
:1012B000CF911F910F91089524E042E068E371E01F
:1012C00084E292E00E94180342E956E060EE84E274
:1012D00092E00E948E044CE256E060E984E292E0E3
:1012E0000E948E044EEC56E060EC84E292E00E9494
:1012F0008E044AE857E060ED84E292E00E948E049A
:1013000047EE57E064EF84E292E00E948E0442E2EE
:101310005AE060EF84E292E00E94B90440E259E0B2
:101320006FEF84E292E00E94B10440E051EE60E091
:1013300070E084E292E00E9411060E9420090C9461
:10134000080ECF93DF93C3EAD2E0CE010E94BB1216
:10135000239682E0C73CD807C1F7DF91CF9108956B
:10136000DF92EF92FF920F931F93CF93DF93F82EAC
:10137000EB01D42E6F3F8FEF7807B9F06F2D82E726
:1013800093E00E946E0F6C2F82E793E00E94250F7E
:1013900082E793E00E94EF0F8091C7029091C8020C
:1013A000009729F00E94B11402C0C0E0D0E04D2D9A
:1013B0006F2D82E793E00E94EC0F0D2D10E082E785
:1013C00093E00E94CD0E081719071CF463E871E042
:1013D00009C082E793E00E94CD0E8017910734F494
:1013E0006BEA71E084E292E00E948004F092CA020B
:1013F000C093CB026CECE62E62E0F62EC0E0D0E0AB
:10140000C017D10784F042E04D0D2AEC32E067E7C7
:1014100084E292E0DF91CF911F910F91FF90EF90C6
:10142000DF900C94380482E793E00E94CD0E892B64
:1014300051F382E793E00E94D50EF70181937F017B
:101440002196DECFCF92DF92EF92FF920F931F9300
:10145000CF93DF93CDB7DEB729970FB6F894DEBFF1
:101460000FBECDBFF62E8A018F3609F466C178F41F
:10147000893609F447C220F4813509F45BC222C3DE
:101480008B3609F480C18D3609F4E6C11BC386375B
:1014900079F038F4803709F4F6C0853709F452C280
:1014A00011C3883709F4D8C08A3709F42AC10AC39E
:1014B000DA0111968C91982F987185FF03C062ED27
:1014C00071E055C0FA018081983069F150F49111B2
:1014D000F9C2682F82E793E00E946E0F22E0E22EAD
:1014E00007C0903109F43DC0983109F472C0EAC2D6
:1014F000EF1480F4F801EE0DF11D81816081F0E8B8
:101500008F9F6019112482E793E00E94250FE394D6
:10151000E394EECF82E793E00E94EF0F86E490E041
:101520000E94B114CFC242816381B6E0E0E8FB12B1
:1015300010C06E9FB0011124640F711DD801159663
:101540009C91159714964C91B0E89B9F40191124DB
:1015500005C06E9F401911246FEF7FEF0E94B00904
:10156000B1C2E0910A01E7303CF062EF71E084E241
:1015700092E00E948004A6C2DA0112969C91129712
:1015800013962C91B6E0F0E86B1310C02F9F9001DA
:101590001124290F311DDA0115964C9115971496D7
:1015A0009C91B0E84B9F9019112405C02F9F901972
:1015B00011242FEF3FEFEF5FE0930A0144E0E402D4
:1015C000F0011124E651FD4F808332832183938300
:1015D00079C250910A01151634F440E0252F3327C3
:1015E00027FD30950EC08FEF80930A016BC2EE0F7E
:1015F000FF1FEE0FFF1FE651FD4F9081981719F165
:101600004F5FE42FF0E02E173F078CF740E01BC040
:101610004830C0F4DF01AA0FBB1FAA0FBB1FA251A5
:10162000BD4F8C91EE0FFF1FEE0FFF1FE651FD4FD8
:10163000808311968D919C9112979283818313964A
:101640008C9183834F5FE42FF0E02E173F0704F760
:10165000515050930A0136C2DA012C9111968C91A7
:10166000B0E88B9FC0011124820F911D009721F0DB
:101670009093C8028093C7028091C902811122C24F
:101680000E940A091FC2E4E0E61708F01BC2DA0153
:10169000FC901196EC9011971296DC90129713968D
:1016A000CC90139714961C918EEF8F0D823108F019
:1016B00009C2EF2DF0E0E357FD4FE081EC3060F41C
:1016C000F0E0CF01880F991F8E0F9F1F8D559D4F02
:1016D0000E9401148111F2C1B0E81B9FA0011124E6
:1016E0004C0D511DE0E8DE9EB00111246E0D711D00
:1016F0008F2D0E94FA0664E070E08F2D0E94E707AC
:10170000E1C1F1E0F61708F0DDC1DA012C91119684
:101710008C91B0E88B9FC0011124820F911D909392
:101720000C0180930B010A9708F0CCC18AE090E08D
:1017300090930C0180930B01C5C1E1E0E61708F01E
:10174000C1C1DA0111966C9170E0B2E0FB16B1F004
:10175000FA012281F0E82F9F90011124622B732B54
:1017600023E0F21659F0DA0113968C9190E090E4A0
:10177000899F902D88271124682B792BF80180816F
:101780000E9492069FC160EF84E292E00E9484046E
:101790006CE684E292E00E9484041EEF84EF810FE5
:1017A000883058F462E084E292E00E9484046AE0A7
:1017B00084E292E00E9484040DC0113059F463E089
:1017C00084E292E00E94840468E084E292E00E9455
:1017D000840408C08DEF810F823088F389EF810F78
:1017E000833068F3123150F464E084E292E00E94A6
:1017F00084046EE084E292E00E94840480EF810F12
:10180000823050F466E084E292E00E94840461E059
:1018100084E292E00E9484046FE784E292E00E94F6
:1018200084041F5F143171F1123108F0B7CF60E00A
:1018300084E292E00E94840461E084E292E00E94EB
:10184000840461E084E292E00E94840461E084E226
:1018500092E00E948404A2CF662309F433C1DA0126
:101860000C9160EF84E292E00E9484046EE684E2D0
:1018700092E00E948404602F84E292E00E9484043B
:10188000063130F067EF84E292E00E9484041AC1CE
:1018900010E0F801EF5BFC4F608184E292E00E946F
:1018A0008404000F111FF801EE5EFC4F7F01608180
:1018B0006F7784E292E00E948404D7016D917C915D
:1018C000CB018078892B49F0660F672F661F770B55
:1018D0006F7784E292E00E948404F801EE5EFC4F90
:1018E00060817181CB018827907C892B59F2770F19
:1018F000660B770F762F661F6F7784E292E00E9467
:101900008404C0CF60EF84E292E00E9484046AE61F
:1019100084E292E00E94840412EF183010F06FE726
:1019200001C0612F84E292E00E9484041F5F18309E
:10193000A1F7A8CF662309F4C5C0BA018F2D0E9474
:10194000140EC0C0FA018381C28080FBC7F8D12C7D
:10195000E12CF12CFC2CEE24DD24CC249581848117
:1019600090FB87F990E0A0E0B0E0DC0199278827A0
:10197000C80ED91EEA1EFB1E9185808590FB87F953
:10198000C80ED11CE11CF11C9781868190FB87F960
:1019900090E0A0E0B0E0BA2FA92F982F8827C80EBA
:1019A000D91EEA1EFB1E818161E08130C1F4808175
:1019B0000E949C1560E0D8018C910E94D51582E0B0
:1019C00090E00E94B11461E0F80180810E94D51579
:1019D000C6010E94B11460E0D8018C9113C0FA01D5
:1019E00080810E94D51582E090E00E94B11460E0F1
:1019F000D8018C910E94D515C6010E94B11461E0F6
:101A0000F80180810E94D515D8011B968C911B97F7
:101A10001A962C9180FB27F9822F90E0A0E0B0E08D
:101A2000582F442733272227F8019585848590FB7A
:101A300087F990E0A0E0B0E0DC0199278827280F23
:101A4000391F4A1F5B1F9189808990FB87F9280FF6
:101A5000311D411D511D9785868590FB87F990E0CA
:101A6000A0E0B0E0BA2FA92F982F8827280F391FA0
:101A70004A1F5B1F60E080812E833F834887598720
:101A80000E949C152E813F8148855985D801119669
:101A90006C9111978C910E940B16F801208129837B
:101AA0009A838B837C836D839E012F5F3F4F45E03C
:101AB00065E784E292E00E94380404C08F2D0E9402
:101AC00040070ACE29960FB6F894DEBF0FBECDBFF1
:101AD000DF91CF911F910F91FF90EF90DF90CF900A
:101AE00008958F929F92AF92BF92CF92DF92EF9222
:101AF000FF920F931F93CF93DF930E94B10784E26D
:101B000092E00E947803892B29F084E292E00E94FF
:101B1000E404F5CF0E945A1460930E0370930F03F0
:101B20008093100390931103C0900A03D0900B038D
:101B3000E0900C03F0900D0340910B0150910C01CB
:101B40004A01A12CB12C8B019C010C191D092E09F5
:101B50003F0980169106A206B30608F04CC0D501D5
:101B6000C4018C0D9D1DAE1DBF1D80930A03909373
:101B70000B03A0930C03B0930D03C1E4D3E012EF69
:101B80001830C0F488818230A9F420915D0330912F
:101B90005E03012E02C0359527950A94E2F720FFD7
:101BA00009C0812F0E94F714AC01612F84E292E0FA
:101BB0000E94F1031F5F2196183011F780910A01EE
:101BC00087FD19C0C0E0EC2FF0E080910A01992751
:101BD00087FD90958E179F0774F0EE0FFF1FEE0F95
:101BE000FF1FE651FD4F61817281438180810E9418
:101BF000B009CF5FE8CFDF91CF911F910F91FF9098
:101C0000EF90DF90CF90BF90AF909F908F9008950E
:101C10008FE593E00E9434018FE593E00C9441013D
:101C20008FE593E00C944101CF92DF92EF92FF9207
:101C3000CF93DF93FB018081823009F446C070F4BA
:101C4000813009F097C061818FE593E0DF91CF91FA
:101C5000FF90EF90DF90CF900C940402833009F452
:101C600049C0843009F086C0C280D12CE12CF12C0F
:101C7000A7E0CC0CDD1CEE1CFF1CAA95D1F78381DC
:101C800090E0A0E0B0E0CEE0880F991FAA1FBB1F34
:101C9000CA95D1F7C80ED91EEA1EFB1E8181C80E57
:101CA000D11CE11CF11C848190E0A0E0B0E0D5E102
:101CB000880F991FAA1FBB1FDA95D1F7C80ED91E2E
:101CC000EA1EFB1EC0E0D0E008C0DF91CF91FF907C
:101CD000EF90DF90CF900C94100EA7019601BE01FB
:101CE0008FE593E00E942E022196C11581E0D8076E
:101CF000A1F740C0248130E040E050E087E0220FAF
:101D0000331F441F551F8A95D1F7858190E0A0E0CD
:101D1000B0E06EE0880F991FAA1FBB1F6A95D1F72C
:101D2000280F391F4A1F5B1F8381280F311D411D5A
:101D3000511D868190E0A0E0B0E075E1880F991F09
:101D4000AA1FBB1F7A95D1F7280F391F4A1F5B1FA7
:101D50008281618170E090E8899F600D711D11247E
:101D60008FE593E0DF91CF91FF90EF90DF90CF90E0
:101D70000C942E02DF91CF91FF90EF90DF90CF90E7
:101D8000089523E046E060E071E08FE593E00C9475
:101D9000D6008FE593E00C9425018091A20390E09A
:101DA0002091A303821B910908952091A3038091A0
:101DB000A203281750F4E22FF0E0EC55FC4F80818D
:101DC00090E02F5F2093A30308958FEF9FEF089576
:101DD000E091A3038091A203E81730F4F0E0EC5502
:101DE000FC4F808190E008958FEF9FEF0895089554
:101DF000CF92DF92EF92FF920F931F93CF93DF93D7
:101E00007C01CB018A0120917E03222389F0EB0122
:101E10006B01C40ED51ECC15DD0569F06991D701A3
:101E2000ED91FC910190F081E02DC7010995F3CF70
:101E3000642F0E94AB10C801DF91CF911F910F91C9
:101E4000FF90EF90DF90CF900895CF93DF931F9294
:101E5000CDB7DEB7698320917E032223D1F0209194
:101E60007F03203240F021E030E0FC013383228305
:101E700080E090E015C080918003E82FF0E0EF57FC
:101E8000FC4F998190838F5F8093800380937F03C1
:101E900005C061E0CE0101960E94AB1081E090E0A8
:101EA0000F90DF91CF910895FC011382128248EECA
:101EB00053E060E070E0448355836683778387E076
:101EC00092E09183808308951092A3031092A2035D
:101ED0001092800310927F030C94F60F81E08093A0
:101EE0007E036093A1031092800310927F030895F4
:101EF0000F93062F21E040917F0361E873E080910A
:101F0000A1030E9458101092800310927F03109238
:101F10007E030F9108958F929F92AF92BF92CF92BE
:101F2000DF92EF92FF920F931F93CF93DF93EC0119
:101F3000F62ED42E48015901EE2019F10E946E0FA1
:101F40001E2D143008F013E01150B8F0E881F9812B
:101F500028E0129FB0011124A501940104C05695F8
:101F60004795379527956A95D2F7CA01B90101902F
:101F7000F081E02DCE010995E7CF60E0CE010E940F
:101F8000780F4D2D413208F040E22C2D64EA73E0C9
:101F90008F2D0E9414101092A3038093A203DF914F
:101FA000CF911F910F91FF90EF90DF90CF90BF9056
:101FB000AF909F908F900895CF92EF920F931F93C1
:101FC000C22EE12C00E010E098010E948B0F1F91BF
:101FD0000F91EF90CF90089521E00C94DC0F61E019
:101FE0000C94780F82E793E00C94540F1092310414
:101FF00081E080932F0410922E0461E082E10E9420
:10200000D51561E083E10E94D515E9EBF0E0808110
:102010008E7F808380818D7F808388E48093B80069
:1020200085E48093BC000895413208F03FC0909150
:1020300031049111FCCF91E09093310420932F044F
:102040002FEF2093C40310920904240F2093080457
:102050009093300490913004880F892B8093300442
:1020600080912E04813041F410922E04809130042E
:102070008093BB0085EC01C085EE8093BC0080910D
:1020800031048130E1F380910904841710F4409108
:1020900009042AE034E0FB01D9018A2F821B84174E
:1020A00018F48D918193F9CF842F089580E00895DD
:1020B0000F93413208F046C0909131049111FCCF4A
:1020C00092E09093310400932F049FEF9093C40308
:1020D0001092090440930804FB016AE074E0DB01FC
:1020E0009A2F961B941718F491919D93F9CF109203
:1020F000300490913004880F892B809330048091B4
:102100002E04813041F410922E048091300480938B
:10211000BB0085EC01C085EE8093BC00222321F03A
:10212000809131048230E1F38091C4038F3F61F0EC
:102130008091C403803251F08091C403803341F414
:1021400083E007C081E005C080E003C082E001C0F9
:1021500084E00F910895613298F420913104243085
:1021600089F46093E603FC0188EE93E0DC012A2FFA
:10217000281B261718F421912D93F9CF80E008959C
:1021800081E0089582E0089585ED8093BC00809100
:10219000BC0084FDFCCF10923104089585EC80933F
:1021A000BC001092310408951F920F920FB60F9247
:1021B00011242F933F934F935F936F937F938F934C
:1021C0009F93AF93BF93EF93FF938091B900887F64
:1021D000803609F49CC068F5883209F45BC090F43D
:1021E000803109F454C038F4882309F4F3C08830EE
:1021F00009F44DC0F3C0883109F44CC0803209F4B1
:102200005DC0ECC0803409F468C048F4803309F440
:1022100055C0883309F0E2C08093C403A6C080355E
:1022200009F44FC0883509F45DC0883409F0D6C080
:10223000D3C0883909F4C4C0A8F4883709F467C04A
:1022400038F4883609F463C0803709F460C0C6C02A
:10225000883809F4B5C0803909F45FC0803809F0C6
:10226000BDC05BC0803B09F483C038F4803A09F4F8
:1022700066C0883A09F47CC0B1C0803C09F4A4C0AF
:10228000883C09F4A1C0883B09F487C0A7C08091AD
:10229000300410C09091090480910804981770F5DB
:1022A000E091090481E08E0F80930904F0E0E65F7D
:1022B000FB4F80818093BB0085EC83C08093C40377
:1022C0008BC0E091090481E08E0F80930904809116
:1022D000BB00F0E0E65FFB4F8083909109048091A2
:1022E00008046BC0E091090481E08E0F809309041B
:1022F0008091BB00F0E0E65FFB4F808380912F046C
:1023000081116AC081E080932E0484EA5EC083E07C
:10231000809331041092C503CFCF8091C5038032E2
:1023200008F04EC0E091C50381E08E0F8093C50395
:102330008091BB00F0E0EA53FC4F8083BDCF8091D9
:10234000C503803230F4E091C503F0E0EA53FC4F5E
:1023500010826091C50370E0E0912A04F0912B0493
:1023600086EC93E009951092C5030E94CE1036C00A
:1023700084E0809331041092E7031092E603E09129
:102380002C04F0912D0409958091E603811105C07C
:1023900081E08093E6031092E803E091E70381E097
:1023A0008E0F8093E703F0E0E851FC4F808180932B
:1023B000BB009091E7038091E603981708F47CCF67
:1023C00085E88093BC000AC085EC8093BC00109225
:1023D000310404C01092C4030E94C410FF91EF9115
:1023E000BF91AF919F918F917F916F915F914F912D
:1023F0003F912F910F900FBE0F901F9018951F9235
:102400000F920FB60F9211242F933F934F935F9328
:102410006F937F938F939F93AF93BF93EF93FF93AC
:102420008091330487FF05C01092850010928400CC
:102430001AC020913304332727FD30958091320450
:1024400090E0281739077CF480913304992787FDA1
:102450009095FC01EE0FFF1FE80FF91FEC5CFB4F9E
:10246000808186FD15C0809133048F5F8093330493
:1024700020913304332727FD30958091320490E07A
:1024800028173907BCF4809133048C305CF112C0FA
:1024900080913304992787FD9095FC01EE0FFF1F73
:1024A000E80FF91FEC5CFB4F808160E08F730E94A6
:1024B000D515D9CF80918400909185000496803401
:1024C0009C4918F480E49CE905C0809184009091B7
:1024D0008500049690938900809388008FEF809305
:1024E000330438C0209184003091850080913304FA
:1024F000992787FD9095FC01EE0FFF1FE80FF91F4C
:10250000EC5CFB4F81819281820F931F9093890035
:102510008093880080913304992787FD9095FC0172
:10252000EE0FFF1FE80FF91FEC5CFB4F808186FF69
:1025300011C080913304992787FD9095FC01EE0F1F
:10254000FF1FE80FF91FEC5CFB4F808161E08F7388
:102550000E94D515FF91EF91BF91AF919F918F91FF
:102560007F916F915F914F913F912F910F900FBE8F
:102570000F901F901895209132042C30A0F431E078
:10258000320F30933204FC012083822F90E0FC0153
:10259000EE0FFF1FE80FF91FEC5CFB4F88EB9BE091
:1025A0009283818308952FEFFC0120830895DF92A9
:1025B000EF92FF920F931F93CF93DF93EC01D62EF0
:1025C0007A01890188818C3008F066C061E08D2D28
:1025D0000E949C158881A82FB0E0FD01EE0FFF1F1F
:1025E000EA0FFB1FEC5CFB4F2D2D2F739081907C2D
:1025F000922B908360E272E06E197F0977FF02C030
:102600006D5F7F4F7595679575956795698340E612
:1026100059E0401B510B57FF02C04D5F5F4F55956E
:102620004795559547954A836CE00E94B1189CE008
:10263000899FB001112420E030E0A901460F571F07
:10264000FA01EE0FFF1FE40FF51FEC5CFB4F9081CA
:1026500096FD16C02F5F3F4F2C30310571F7811169
:102660000FC01092800082E080938100109285005C
:1026700010928400B19A80916F00826080936F0005
:10268000888190E0FC01EE0FFF1FE80FF91FEC5C62
:10269000FB4F8081806480838881DF91CF911F917F
:1026A0000F91FF90EF90DF90089520E639E040E22F
:1026B00052E00C94D712FC01808190E0FC01EE0FF7
:1026C000FF1FE80FF91FEC5CFB4F80818F7B80833D
:1026D0000895FC0180818C3070F5918128E830E00C
:1026E000291B310997FD3395220F331F220F331F0A
:1026F000621773077CF0928128E532E0291B3109CB
:1027000097FD3395220F331F220F331F6217730774
:102710000CF49B0122503109220F331F4FB7F8945C
:1027200090E0FC01EE0FFF1FE80FF91FEC5CFB4F80
:10273000328321834FBF08954F925F926F927F92B1
:10274000AF92BF92CF92DF92EF92FF920F931F93BF
:10275000CF93DF93EC01603282E078070CF040C049
:1027600077FD06C0653B71052CF064EB70E002C09C
:1027700060E070E0898128E830E0281B310987FD9E
:102780003395220F331F220F331F5901CC24B7FC7E
:10279000C094DC2C882777FD8095982F2A8148E506
:1027A00052E0421B510927FD5395440F551F440F1A
:1027B000551F2A01662457FC6094762C7F926F92F5
:1027C0005F924F9214EBE12EF12C00E010E020E03C
:1027D00030E0A9010E9449180F900F900F900F90C0
:1027E000CE01DF91CF911F910F91FF90EF90DF907D
:1027F000CF90BF90AF907F906F905F904F900C9470
:102800006913FC01808190E0FC01EE0FFF1FE80FCF
:10281000F91FEC5CFB4F808186FB882780F90895C7
:102820001F920F920FB60F9211242F933F938F9305
:102830009F93AF93BF938091590490915A04A091B4
:102840005B04B0915C043091580423E0230F2D37D2
:1028500020F40196A11DB11D05C026E8230F0296A4
:10286000A11DB11D209358048093590490935A04DC
:10287000A0935B04B0935C0480915D0490915E042E
:10288000A0915F04B09160040196A11DB11D8093D9
:102890005D0490935E04A0935F04B0936004BF91C5
:1028A000AF919F918F913F912F910F900FBE0F90FD
:1028B0001F9018952FB7F8946091590470915A049D
:1028C00080915B0490915C042FBF08953FB7F8940A
:1028D00080915D0490915E04A0915F04B0916004CA
:1028E00026B5A89B05C02F3F19F00196A11DB11D6B
:1028F0003FBF6627782F892F9A2F620F711D811D88
:10290000911D42E0660F771F881F991F4A95D1F7E6
:102910000895CF92DF92EF92FF92CF93DF936B01F6
:102920007C010E946614EB01C114D104E104F1049E
:1029300089F00E94A0180E9466146C1B7D0B683EF3
:10294000734090F381E0C81AD108E108F108C8513A
:10295000DC4FEACFDF91CF91FF90EF90DF90CF90E7
:1029600008958230910538F0880F991F880F991FBC
:1029700005970197F1F70895789484B5826084BD36
:1029800084B5816084BD85B5826085BD85B5816073
:1029900085BDEEE6F0E0808181608083E1E8F0E0D3
:1029A0001082808182608083808181608083E0E802
:1029B000F0E0808181608083E1EBF0E080818460E1
:1029C0008083E0EBF0E0808181608083EAE7F0E0E3
:1029D0008081846080838081826080838081816047
:1029E00080838081806880831092C10008958E303A
:1029F00008F08E50877020910D0190E4299F90017E
:102A00001124822B80937C0080917A0080648093D3
:102A10007A0080917A0086FDFCCF80917800209129
:102A2000790090E0922B08951F93CF93DF93182F96
:102A3000EB0161E00E949C15209711F460E004C056
:102A4000CF3FD10539F461E0812FDF91CF911F9104
:102A50000C94D515E12FF0E0E859FF4FE491E330F5
:102A6000F9F048F4E130B9F0E230A1F584B58062C4
:102A700084BDC8BD34C0E730E9F0E83019F1E43076
:102A800049F580918000806280938000D0938B0014
:102A9000C0938A0024C084B5806884BDC7BD1FC0B0
:102AA00080918000806880938000D0938900C093DB
:102AB000880015C08091B00080688093B000C093FA
:102AC000B3000DC08091B00080628093B000C093CD
:102AD000B40005C0C038D1050CF0B5CFAFCFDF9141
:102AE000CF911F910895833081F028F4813099F0BF
:102AF0008230A1F008958730A9F08830B9F0843091
:102B0000D1F4809180008F7D03C0809180008F7709
:102B100080938000089584B58F7702C084B58F7D3F
:102B200084BD08958091B0008F7703C08091B0007C
:102B30008F7D8093B0000895CF93DF9390E0FC01E8
:102B4000E458FF4F2491FC01E057FF4F8491882304
:102B500049F190E0880F991FFC01E854FF4FA591BF
:102B6000B49182559F4FFC01C591D4919FB76111DB
:102B700008C0F8948C91209582238C9388818223BD
:102B80000AC0623051F4F8948C91322F309583232F
:102B90008C938881822B888304C0F8948C91822B3B
:102BA0008C939FBFDF91CF9108950F931F93CF9385
:102BB000DF931F92CDB7DEB7282F30E0F901E85937
:102BC000FF4F8491F901E458FF4F1491F901E05748
:102BD000FF4F04910023C9F0882321F069830E94EC
:102BE00073156981E02FF0E0EE0FFF1FE255FF4FF4
:102BF000A591B4919FB7F8948C91611103C0109581
:102C0000812301C0812B8C939FBF0F90DF91CF91C7
:102C10001F910F9108950F931F93762F90E0FC0161
:102C2000E458FF4F6491FC01E057FF4FE4917111AC
:102C3000762FF0E0EE0FFF1FEC55FF4F859194913A
:102C400089019A013F70472F0E949100611571051B
:102C50008105910531F06F5F7F4F8F4F9F4F9F70C0
:102C600003C060E070E0CB011F910F910895FC015B
:102C7000818D228D90E0805C9F4F821B91098F7324
:102C800099270895FC01918D828D981731F0828DDE
:102C9000E80FF11D858D90E008958FEF9FEF089567
:102CA000FC01918D828D981761F0828DDF01A80F54
:102CB000B11D5D968C91928D9F5F9F73928F90E076
:102CC00008958FEF9FEF089584ED97E1892B49F0E8
:102CD00080E090E0892B29F00E94D41781110C9498
:102CE00000000895FC01848DDF01A80FB11DA35AD7
:102CF000BF4F2C91848D90E001968F739927848F1C
:102D0000A689B7892C93A089B1898C9180648C9312
:102D1000938D848D981306C00288F389E02D8081FD
:102D20008F7D80830895CF93DF93EC01888D882376
:102D3000C9F0EA89FB89808185FD05C0A889B98928
:102D40008C9186FD0FC00FB607FCF5CF808185FF03
:102D5000F2CFA889B9898C9185FFEDCFCE010E9471
:102D60007216E7CFDF91CF910895CF92DF92FF9255
:102D70000F931F93CF93DF931F92CDB7DEB76C01F4
:102D800081E0D60158968C9358975B969C915B97FF
:102D90005C968C915C97981307C05096ED91FC91CE
:102DA0005197808185FD2EC0F601038D10E00F5FE5
:102DB0001F4F0F731127F02EF601848DF81211C0EA
:102DC0000FB607FCF9CFD6015096ED91FC915197C3
:102DD000808185FFF1CFC60169830E9472166981E7
:102DE000EBCF838DE80FF11DE35AFF4F6083D601CF
:102DF0005B960C935B975296ED91FC915397808173
:102E000080620CC0D6015696ED91FC915797608375
:102E10005096ED91FC91519780818064808381E090
:102E200090E00F90DF91CF911F910F91FF90DF9075
:102E3000CF900895BF92CF92DF92EF92FF92CF93FF
:102E4000DF93EC016A017B01B22EE889F98982E007
:102E50008083411581EE580761057105A1F060E09E
:102E600079E08DE390E0A70196010E94BD18215002
:102E700031094109510956954795379527952115EF
:102E800080E1380798F0E889F989108260E874E8F1
:102E90008EE190E0A70196010E94BD1821503109F2
:102EA000410951095695479537952795EC85FD853C
:102EB0003083EE85FF852083188EEC89FD89B082F2
:102EC000EA89FB89808180618083EA89FB8980812E
:102ED00088608083EA89FB89808180688083EA89B1
:102EE000FB8980818F7D8083DF91CF91FF90EF9070
:102EF000DF90CF90BF9008951F920F920FB60F9260
:102F000011242F938F939F93EF93FF93E09171047C
:102F1000F09172048081E0917704F091780482FD51
:102F200012C0908180917A048F5F8F7320917B040F
:102F3000821751F0E0917A04F0E0EF59FB4F958F42
:102F400080937A0401C08081FF91EF919F918F91CE
:102F50002F910F900FBE0F901F9018951F920F92F8
:102F60000FB60F9211242F933F934F935F936F935C
:102F70007F938F939F93AF93BF93EF93FF9381E6DC
:102F800094E00E947216FF91EF91BF91AF919F91D3
:102F90008F917F916F915F914F913F912F910F9002
:102FA0000FBE0F901F90189581E694E00E9437168F
:102FB00021E0892B09F420E0822F08951092640407
:102FC0001092630488EE93E0A0E0B0E08093650483
:102FD00090936604A0936704B093680487E192E03D
:102FE000909362048093610485EC90E090936E046A
:102FF00080936D0484EC90E09093700480936F0450
:1030000080EC90E0909372048093710481EC90E0E6
:10301000909374048093730482EC90E09093760410
:103020008093750486EC90E0909378048093770405
:1030300010927A0410927B0410927C0410927D040A
:103040000895CF92DF92EF92FF920F931F93CF9349
:10305000DF937C016A01EB0100E010E00C151D0517
:1030600071F06991D701ED91FC910190F081E02D13
:10307000C7010995892B19F00F5F1F4FEFCFC801CA
:10308000DF91CF911F910F91FF90EF90DF90CF9044
:1030900008954F925F926F927F92AF92BF92CF92BC
:1030A000DF92EF92FF920F931F93CF93DF93CDB7F1
:1030B000DEB729013A01621B730B840B950B29893A
:1030C0003A894B895C892A193B094C095D09298B8E
:1030D0003A8B4B8B5C8B9B01AC0169897A898B891C
:1030E0009C890E94A118E418F50806091709A8018F
:1030F00097010E94DF182A0D3B1D4C1D5D1DCA0162
:10310000B901DF91CF911F910F91FF90EF90DF9068
:10311000CF90BF90AF907F906F905F904F90089549
:1031200008950E94BC140E9490180E945C09C4E695
:10313000D6E10E94710D2097E1F30E946416F9CF49
:103140000895DB018F939F930E94FE18BF91AF916A
:10315000A29F800D911DA39F900DB29F900D1124F1
:103160000895991B79E004C0991F961708F0961BE3
:10317000881F7A95C9F780950895A1E21A2EAA1B97
:10318000BB1BFD010DC0AA1FBB1FEE1FFF1FA21717
:10319000B307E407F50720F0A21BB30BE40BF50B14
:1031A000661F771F881F991F1A9469F7609570959D
:1031B000809590959B01AC01BD01CF010895052E2E
:1031C00097FB1EF400940E94F61857FD07D00E944A
:1031D000BD1807FC03D04EF40C94F618509540959A
:1031E000309521953F4F4F4F5F4F089590958095B3
:1031F000709561957F4F8F4F9F4F08950E940F19D3
:10320000A59F900DB49F900DA49F800D911D11243A
:103210000895EE0FFF1F0590F491E02D0994A29FF1
:10322000B001B39FC001A39F700D811D1124911D9A
:10323000B29F700D811D1124911D0895CF93DF93CE
:103240008230910510F482E090E0E0910005F09169
:10325000010520E030E0A0E0B0E0309739F1408196
:10326000518148175907B8F04817590771F48281FE
:103270009381109729F013969C938E9312972CC0EC
:10328000909301058093000527C02115310531F089
:103290004217530718F0A901DB0101C0EF019A01A1
:1032A000BD01DF010280F381E02DD7CF211531056B
:1032B000F9F0281B390B2430310580F48A819B8179
:1032C0006115710521F0FB019383828304C0909303
:1032D000010580930005FE01329644C0FE01E20F15
:1032E000F31F8193919322503109398328833AC087
:1032F0002091FE043091FF04232B41F42091020120
:10330000309103013093FF042093FE0420910001CB
:10331000309101012115310541F42DB73EB740919F
:10332000040150910501241B350BE091FE04F0913E
:10333000FF04E217F307A0F42E1B3F0B28173907F1
:1033400078F0AC014E5F5F4F2417350748F04E0F01
:103350005F1F5093FF044093FE048193919302C03A
:10336000E0E0F0E0CF01DF91CF910895CF93DF93BC
:10337000009709F487C0FC01329713821282C09132
:103380000005D0910105209781F420813181280F1B
:10339000391F8091FE049091FF048217930779F5FD
:1033A000F093FF04E093FE046DC0DE0120E030E006
:1033B000AE17BF0750F412964D915C9113979D0183
:1033C0004115510509F1DA01F3CFB383A28340819E
:1033D0005181840F951F8A179B0771F48D919C91E1
:1033E0001197840F951F02969183808312968D9179
:1033F0009C911397938382832115310529F4F093CF
:103400000105E09300053EC0D9011396FC93EE93AD
:1034100012974D915D91A40FB51FEA17FB0779F440
:1034200080819181840F951F0296D90111969C93FA
:103430008E938281938113969C938E931297E0E0F2
:10344000F0E08A819B81009719F0FE01EC01F9CF31
:10345000CE01029628813981820F931F2091FE04AC
:103460003091FF042817390769F4309729F4109236
:1034700001051092000502C013821282D093FF044E
:10348000C093FE04DF91CF910895DC0101C06D93DC
:1034900041505040E0F70895FB01DC01415050409D
:1034A00048F001900D920020C9F701C01D924150D3
:1034B0005040E0F70895FC0181E090E0019006168D
:1034C00009F4CF010020D1F701970895FB01519134
:1034D0005523A9F0BF01DC014D9145174111E1F7DA
:1034E00059F4CD010190002049F04D914015411152
:1034F000C9F3FB014111EFCF81E090E001970895FE
:1035000010E0CCECD0E004C0FE010E940B19229622
:0A351000CE3CD107C9F7F894FFCFB5
:10351A0000000205800001000000FF1300012E6375
:10352A007070004D617820736572766F73206174D4
:10353A0074616368656400556E6B6E6F776E207098
:10354A00696E206D6F6465002F55736572732F6104
:10355A006A6669736865722F6465762F746D702F59
:10356A006D626F745F6E6F6465626F74732F6669E4
:10357A00726D776172652F6D626F744669726D61E3
:10358A0074612F6D626F744669726D6174612E6920
:10359A006E6F004932432052656164204572726F32
:1035AA00723A20546F6F206D616E7920627974656A
:1035BA0073207265636569766564004932432052F7
:1035CA00656164204572726F723A20546F6F20668B
:1035DA0065772062797465732072656365697665BB
:1035EA00640031302D62697420616464726573739A
:1035FA00696E67206E6F7420737570706F72746570
:10360A006400746F6F206D616E79207175657269DF
:10361A0065730000000000250FF80ECD0ED50EE8E8
:10362A000EF70E00000000B5162118371650164284
:04363A0016931600CD
:00000001FF
