:100000000C9473000C949B000C949B000C949B002C
:100010000C949B000C949B000C949B000C949B00F4
:100020000C949B000C949B000C949B000C9412105D
:100030000C949B000C949B000C949B000C949B00D4
:100040000C945F150C949B000C94CB180C94FD1829
:100050000C949B000C949B000C949B000C949B00B4
:100060000C9432140C949B009108BC088508C908B4
:10007000DF080309FD080309030903092109A3088F
:100080000000000800020100000304070000000057
:100090000000000001020408102040800102040852
:1000A00010200102040810200404040404040404C1
:1000B0000202020202020303030303030000000022
:1000C00023002600290000000000250028002B0046
:1000D00000000000240027002A00DE04CE09F40FEF
:1000E00048132D19031011241FBECFEFD8E0DEBF37
:1000F000CDBF12E0A0E0B1E0E8EBF7E302C005906D
:100100000D92AE31B107D9F725E0AEE1B2E001C002
:100110001D92AF38B207E1F710E0C4EED0E004C0A2
:100120002297FE010E944F1ACA3DD107C9F70E94CB
:10013000E0190C94CF1B0C940000CF92DF92EF9249
:10014000FF920F931F93E82FF92F05C0015011095B
:100150002109310961F1908196239417B9F305C003
:10016000015011092109310911F19081962394134D
:10017000F7CFC12CD12CE12CF12C0AC08FEFC81A7B
:10018000D80AE80AF80A0C151D052E053F0579F076
:1001900080818623841791F36C2D7D2D8E2D9F2DCC
:1001A0001F910F91FF90EF90DF90CF90089560E046
:1001B00070E080E090E01F910F91FF90EF90DF9052
:1001C000CF9008950F931F93CF93DF93EC018B0192
:1001D00088819981DC01ED91FC916F770190F0812C
:1001E000E02D099588819981DC01ED91FC91B801A0
:1001F000660F672F661F770B6F770190F081E02DF8
:10020000DF91CF911F910F910994DC018D919C9109
:10021000DC01ED91FC910190F081E02D60EF0994FB
:10022000DC018D919C91DC01ED91FC910190F081BC
:10023000E02D67EF0994CF93DF93EC0188819981DA
:10024000DC01ED91FC910190F081E02D69EF0995C1
:1002500088819981DC01ED91FC910190F081E02D84
:1002600062E0099588819981DC01ED91FC91019012
:10027000F081E02D65E0DF91CF9109941F93CF933A
:10028000DF93EC018A818823D9F1CE010E94050118
:1002900088819981DC01ED91FC910190F081E02D44
:1002A00069E7099588819981DC01ED91FC91AB8129
:1002B000BC810190F081E02D6C9109958881998134
:1002C000DC01ED91FC91AB81BC810190F081E02DCE
:1002D00011966C91099512E08A81181758F4EB81F8
:1002E000FC81E10FF11D608170E0CE010E94E2000F
:1002F0001F5FF2CFCE01DF91CF911F910C941001BF
:10030000DF91CF911F910895CF92DF92EF92FF92EC
:100310000F931F93CF93DF938C01EB01C42ED22E4A
:100320006EE071E0CE010E94B51B7C016FE270E0CF
:10033000CE010E94AA1B009739F46CE570E0CE0153
:100340000E94AA1B009711F0EC012196E114F10420
:1003500051F4FE0101900020E9F7EC1BEF5FD8019A
:100360001296EC9306C0EC1AFD0AE394E394F801AC
:10037000E282D80113968D919C9114970E94051BDF
:10038000F801E280F12CC70101960E946D1AD80194
:1003900014969C938E931397FC01EE0DFF1D108213
:1003A000FC01C082D18212964C9150E0425051091A
:1003B000BE010296DF91CF911F910F91FF90EF90B8
:1003C000DF90CF900C949B1BDC018D919C91DC0104
:1003D000ED91FC910480F581E02D09940F931F931A
:1003E000CF93DF93FC012085213749F0293709F0AD
:1003F00049C0DF91CF911F910F910C943E01FC01F8
:10040000E556FF4F0190F081E02D309709F450C080
:10041000DC01A75BBF4F4D915C919A0121503109DE
:1004200037FD9A01B90175956795062F40E050E0B8
:1004300020E030E04E5F5F4F2017A0F4EC01C40FC6
:10044000D51F1F81DC01A20FB31F18961C931897AC
:10045000C885D0E8CD9F1019112418961C932F5FE2
:100460003F4FE8CFDC01A60FB11D17962C911797CF
:10047000222311F018961C920896DF91CF911F91BC
:100480000F910994FC01E356FF4F0190F081E02D9C
:10049000309771F0AC01475F5F4FDC01A75BBF4F46
:1004A0006C916150822FDF91CF911F910F91099430
:1004B000DF91CF911F910F9108950F931F93CF93C9
:1004C000DF93EC018A0188819981DC01ED91FC9137
:1004D0006F70606E0190F081E02D0995B801CE013A
:1004E000DF91CF911F910F910C94E2000F931F9316
:1004F000CF93DF93EC018A0188819981DC01ED9132
:10050000FC916F7060690190F081E02D0995888100
:100510009981DC01ED91FC91602F6F770190F08162
:10052000E02D099588819981DC01ED91FC91B8015C
:10053000660F672F661F770B0190F081E02DDF912A
:10054000CF911F910F910994CF92DF92EF92FF927A
:100550000F931F93CF93DF9300D01F92CDB7DEB7D9
:100560008C01F42E2A833B8369830E940501D80104
:100570008D919C91DC01ED91FC910190F081E02D39
:10058000698109952A81E22EC22E3B81D32E8C2DC2
:100590008E198F1540F4F60161916F0170E0C8016A
:1005A0000E94E200F4CFC8010F900F900F90DF91EE
:1005B000CF911F910F91FF90EF90DF90CF900C940F
:1005C00010019A01613751F4FA0101900020E9F716
:1005D0003197E41BF50B4E2F0C94A4020895AB0148
:1005E00061E70C94E102DC018D919C91DC01ED91BD
:1005F000FC910190F081E02D0994603DC1F028F458
:10060000603969F0603C79F00895643FA1F0653F7E
:10061000B1F0603EC9F4FC01E357FF4F13C0FC0189
:10062000E157FF4F0FC0FC01EF56FF4F0BC0FC011D
:10063000ED56FF4F07C0FC01EB56FF4F03C0FC0116
:10064000E956FF4F5183408308956F3F29F4FC0121
:10065000E756FF4F51834083089583569F4FFC0117
:10066000518340830895860F911DFC01E55BFF4F88
:1006700080810895860F911DFC01E55BFF4F80810D
:100680008F3709F040830895860F911D860F911DC5
:10069000FC01EF59FF4F808191810895860F911DD4
:1006A000860F911DFC01EF59FF4F51834083089540
:1006B000FC0115821682178280E090E0DF01A80F0E
:1006C000B91F18961C92019680349105B9F7DF0185
:1006D000A85BBF4F1C9211961D921C92E756FF4FCC
:1006E0000190F081E02D309709F009940895FC0104
:1006F000E156FF4F1082FC011282148213820C9487
:100700005803CF93DF93EC01FC01E85BFF4F80813E
:100710008823A1F0673F31F41082CE01DF91CF91A1
:100720000C94EE01FE01E75BFF4F80819181C80FC1
:10073000D91F688701969183808398C08D81882313
:1007400009F452C067FD50C081508D83FE01E80F4F
:10075000F11D608781118AC08E81882309F486C0CB
:10076000803DA1F140F4803981F0803CD9F5FE0153
:10077000EF56FF4F2EC0843FC9F0853FD9F0803E31
:1007800089F5FE01E357FF4F03C0FE01E157FF4F1C
:100790000190F081E02D309729F18885698570E01E
:1007A00090E8899F600D711D11241AC0FE01EB565F
:1007B000FF4F03C0FE01E956FF4F0190F081E02D8D
:1007C000309781F0688570E089850BC0FE01ED5699
:1007D000FF4F0190F081E02D309721F0688570E0A7
:1007E0008F8109951E8242C0862F603F28F4807F4A
:1007F00090E06F706F8301C090E0803F910549F1F8
:100800007CF4803C910509F124F480399105D9F0FC
:100810002DC0803D9105C9F0803E9105A1F026C014
:10082000893F9105E9F03CF49C01245F31092230B5
:10083000310548F01BC08F3F9105C1F4CE01DF9117
:10084000CF910C94580392E001C091E09D838E8378
:100850000DC081E08083C75BDF4F1982188206C01C
:100860008EE192E0DF91CF910C941B01DF91CF914B
:100870000895CF93DF93EC0188819981DC01ED919C
:10088000FC910680F781E02D09958F3FBFEF9B0714
:1008900031F0682FCE01DF91CF910C948103DF916D
:1008A000CF9108957F928F929F92AF92BF92CF92F5
:1008B000DF92EF92FF920F931F93CF93DF93762EE9
:1008C000EA01680110E0EE24D7FCE094FE2C490117
:1008D000AA2497FCA094BA2C212F30E02C173D07B6
:1008E00094F4C701B6010E94D81561E0872D0E94DB
:1008F0002417C501B4010E94D81560E0872D0E941D
:1009000024171F5FE9CFDF91CF911F910F91FF90C7
:10091000EF90DF90CF90BF90AF909F908F907F909F
:1009200008950F931F93CF93DF93EC01FC01E156E1
:10093000FF4F8081811126C061E08DE00E94EB169F
:1009400002ED10E028E230E042E050E06DE0CE0140
:100950000E9452046AEF70E080E090E00E94D81597
:1009600028E230E045E050E06DE0CE010E94520404
:100970006DE770E080E090E0DF91CF911F910F91E3
:100980000C94D815DF91CF911F910F910895CF93BB
:10099000DF93EC0126E08EEE94E00E9469188EEE63
:1009A00094E099838883CE010E949104CE010E9435
:1009B0001B01CE01DF91CF910C943E018EE192E0BC
:1009C0000C9477030F931F93D8019C91822F8095ED
:1009D0008923292B3FB7F894FB01460F571FE417D3
:1009E000F50781F0919168E02C9300C097FF8C93FC
:1009F000990F00C000C000C008F48C9300C06A9535
:100A000099F7EDCF3FBF78941F910F910895EF9222
:100A1000FF920F931F93CF93DF93EC017B018A81A9
:100A20009B81009711F00E94051BF982E882E11476
:100A3000F104C9F08701000F111F0E0D1F1DC80121
:100A40000E946D1A9B838A83009759F0A80160E089
:100A500070E0DF91CF911F910F91FF90EF900C9478
:100A6000941B19821882DF91CF911F910F91FF90F3
:100A7000EF900895CF93DF93EC010E9407051D824C
:100A800081E08C8382E08E83DF91CF91089560E0D6
:100A900070E00C943A05FC01808191810895FC017D
:100AA00020813181A901440F551F420F531F60E07F
:100AB00070E0828193810C94941BFC018081918170
:100AC0006817790700F5CB01880F991F860F971FCC
:100AD0005481A281B381A80FB91FA50FB11D4C93FA
:100AE0004581A281B381A80FB91FA40FB11D3C930A
:100AF00036810280F381E02DE80FF91FE30FF11D2D
:100B0000208380E0089581E00895EF92FF920F9393
:100B10001F93FC01A185B2858C919385892B8C93C1
:100B2000E184F2840781108580819181AC01440FBA
:100B3000551F480F591F628173812385CF010E9481
:100B4000E2041F910F91FF90EF900895FC01158230
:100B500081E0848382E086830895FC01148281E031
:100B6000858382E086830895FC01168281E0848378
:100B700082E0858308950895DC0170E0FB01EC5666
:100B8000FF4FE4911B96EC931B9768557F4FFB0139
:100B9000249130E0220F331F2A533F4FF9018591F2
:100BA000949118969C938E931797FB016491E62F6E
:100BB000F0E0EE0FFF1FE053FF4F859194911A96DE
:100BC0009C938E93199708950F931F93CF93DF9360
:100BD0001F92CDB7DEB7182F062F8EEF810F82310F
:100BE000C0F4612F8EE192E079830E943303598132
:100BF000813079F4402F612F8EE192E00E944E0304
:100C0000602F812F0F90DF91CF911F910F910C9446
:100C100024170F90DF91CF911F910F9108951F938B
:100C2000CF93DF93182FEB018631A8F5682F8EE163
:100C300092E00E9433038330F9F0843061F58EEF47
:100C4000810F823180F4E12FF0E0E353FD4F4081CA
:100C500050E0CA01880F991F840F951FBE018D5166
:100C60009D4F0E94AF11AE01612F8EE192E0DF91A6
:100C7000CF911F910C944E03133041F08BEF810FF5
:100C8000823020F087EF810F833068F7BE01812F1B
:100C90000E946316E8CFDF91CF911F910895DF92F4
:100CA000EF92FF920F931F93CF93DF93082FE62EBF
:100CB000833008F08CC0182F110F110F110F185F1F
:100CC000173108F016E1C02FCC0FCC0FCC0FD0E0BD
:100CD000FF24F394C11758F58EEF8C0F823120F565
:100CE0006C2F8EE192E00E943303813039F06C2F3B
:100CF0008EE192E00E943303811116C0DD24D3946B
:100D00008F2D8E2109F4D12C6C2F8EE192E00E9460
:100D10003303813009F044C0DF294D2D50E06C2FA2
:100D20008EE192E00E944E03FF0CCF5FD3CF011102
:100D30000AC0DC7FF8949BB18D2F80958923DE213A
:100D40008D2B8BB92BC00130E1F42D2F2E21F8947F
:100D500095B18D2F8F7380958923922F9F73892B47
:100D600085B988B1E22EE294E694E69433E0E3227A
:100D7000D295D695D695D370D095D823ED2AE8B8DC
:100D80000DC0DF70F89498B18D2F880F880F809573
:100D90008923ED22EE0CEE0C8E2988B9789417C0C9
:100DA0006C2F8EE192E00E9433038111B6CFDD20DB
:100DB00009F4B3CF6C2F8EE192E00E9444030197B7
:100DC00009F4ABCF62E08C2F0E94EB16A6CFDF9127
:100DD000CF911F910F91FF90EF90DF900895CF93E7
:100DE000C82F883058F5409183035091840321E047
:100DF00030E0082E02C0220F331F0A94E2F7672B5F
:100E000049F420953095242335233093840320938F
:100E1000830314C0242B352B309384032093830346
:100E20008091BE0281110AC08C2F0E944616AC012F
:100E30006C2F8EE192E0CF910C945D02CF910895DA
:100E4000DB019A019091BF029C30D0F54091C00225
:100E5000682F70E0442369F0E42FF0E0E054FD4F88
:100E60008081FB01E353FD4F808341504093C002DA
:100E700007C0FB01E353FD4F90839F5F9093BF0238
:100E8000FB01E353FD4F1A161B067CF412161306E2
:100E900064F4408150E0CA01880F991F840F951FA8
:100EA000AD018D519D4F0C94EA10208130E0C901B5
:100EB000880F991F820F931F8D519D4F0C946811BD
:100EC00063E171E08EE192E00C94EF02CF93DF9347
:100ED000C82FD0E0C353DD4F288130E0C901880F0F
:100EE000991F820F931F8D519D4F0E946E11888113
:100EF0009091BF02891306C0882379F081508093B6
:100F0000BF020BC0992349F0E091C002EF5FE0936C
:100F1000C002F0E0E054FD4F80838FEF8883DF91C3
:100F2000CF9108951F93CF93DF93162FC82FD0E052
:100F3000FE01E658FC4F90811923C358DC4F411144
:100F400003C09881911741F0412F50E0682F8EE146
:100F500092E00E9476021883DF91CF911F9108954D
:100F6000833020F5282F30E0F901E058FC4F6083F2
:100F7000672BE1F0F901E658FC4F9081811103C025
:100F800069B16C7F0FC0813049F463B126B140E490
:100F9000249F900111246F73622B04C066B16C739F
:100FA00066956695692341E00C94920708958091B7
:100FB0008003882349F069B180917A0368236C7FAC
:100FC00040E080E00E94920780918103882379F0BD
:100FD00063B186B120E4829FC00111246F73682B36
:100FE00080917B03682340E081E00E94920780911A
:100FF0008203882359F066B16C736695669580917B
:101000007C03682340E082E00C94920708951092DC
:1010100009038FEF80930A010895FF920F931F93A6
:10102000CF93DF93182FEB01682F8EE192E00E949F
:1010300033038F3709F405C1612F8EE192E00E94DE
:101040003303863041F480910903882321F0C630B0
:10105000D10509F0E3C00EEF010F0231B8F4C4303E
:10106000D105A1F0E12FF0E0E353FD4F80818C30FA
:1010700068F490E09C01220F331F280F391FC9012B
:101080008D519D4F0E9414128111CBC0B2EFFB2EE7
:10109000F10E87E08F1550F061E070E0C230D105AD
:1010A00011F060E070E08F2D0E94EF060231E8F44D
:1010B000E12FE695E695E695812F8770F0E0E658FA
:1010C000FC4F21E030E0082E01C0220F0A94EAF71D
:1010D000209719F0CB30D10521F48081822B8083B9
:1010E00004C0209580812823208340E050E0612FB8
:1010F0008EE192E00E944E03CC30D10508F083C00F
:10110000FE01EC5CFF4F0C944D1A87E08F1508F43C
:1011100098C0023120F460E0812F0E94EB1642E07B
:1011200008C0023108F08DC060E0812F0E94EB16EC
:1011300040E0612F8EE192E0DF91CF911F910F91FE
:10114000FF900C943A03023108F07BC062E0812FDB
:101150000E94EB164BE0612F8EE192E00E943A0371
:1011600041E050E0612F8EE192E0DF91CF911F913D
:101170000F91FF900C944E03023108F062C060E0C2
:10118000812F0E94241761E0812F0E94EB1641E01D
:10119000D0CF133049F08BEF810F823028F087EFEA
:1011A000810F833008F04DC061E0812F0E94EB1663
:1011B00060E070E0812F0E94631643E0BACF0231F5
:1011C00008F03FC044E0612F8EE192E00E943A03B4
:1011D000E12FF0E0E353FD4F80818F3F31F190E04C
:1011E0009C01220F331F280F391FC9018D519D4FBC
:1011F0000E941412811125C018C08EEE810F82301A
:1012000000F546E096CF67E271E08EE192E0DF9173
:10121000CF911F910F91FF900C94EF020E9407084D
:101220001ACF812F0E94660731CF4FEF5FEF6FEF2C
:101230007FEF812FDF91CF911F910F91FF900C9441
:101240002007DF91CF911F910F91FF900895CF93C9
:10125000C0E08EEE8C0F823028F466E070E08C2FB8
:101260000E940D08CF5FC631A1F781E0809309038A
:1012700085E294E0CF910C94BA120F931F93CF9311
:10128000DF9381E08093BE028091090381110E9467
:1012900007081092800310927A0310927D03109237
:1012A000810310927B0310927E03109282031092AE
:1012B0007C0310927F03CDECD2E010E00FEF82EFC1
:1012C000810F883018F462E070E006C08EEF810F65
:1012D000823128F461E070E0812F0E940D080993AB
:1012E0001F5F163161F710928403109283031092EE
:1012F000C0021092BF021092BE02DF91CF911F91E7
:101300000F91089525E042E068E371E08EE192E0FC
:101310000E9484014FE056E060EE8EE192E00E9470
:10132000FD024FE456E060E98EE192E00E94FD028A
:101330004FEE56E060EC8EE192E00E94FD0240EB41
:1013400057E060ED8EE192E00E94FD024DE058E032
:1013500064EF8EE192E00E94FD0244EE55E065EFFD
:101360008EE192E00E94FD0242E65AE060EF8EE1DB
:1013700092E00E942D034DE359E06FEF8EE192E081
:101380000E94250340E051EE60E070E08EE192E0C3
:101390000E94C7040E943D090C94780ECF93DF93FE
:1013A000C3EED2E0CE010E94CE10239683E0C73078
:1013B000D807C1F7DF91CF910895682F85E294E0B7
:1013C0000C947B1285E294E00E942B120895AF9258
:1013D000BF92DF92EF92FF920F931F93CF93DF9311
:1013E0001F92CDB7DEB7F82E5B01D42E6F3F8FEF83
:1013F0007807C1F06F2D85E294E029830E94C41222
:101400008A2D0E94DD092981622F85E294E00E94E5
:10141000CE128091070390910803009729F00E9453
:10142000001602C0A12CB12C4D2D6F2D85E294E049
:101430000E9442130D2D10E085E294E00E942312D9
:10144000081719071CF463E971E009C085E294E00C
:101450000E9423128017910734F460EB71E08EE153
:1014600092E00E94EF02F0920A03A0920B035CE06C
:10147000E52E53E0F52EA12CB12CA016B1069CF060
:1014800042E04D0D2AE033E067E78EE192E00F90F5
:10149000DF91CF911F910F91FF90EF90DF90BF9060
:1014A000AF900C94A40285E294E00E942312892B51
:1014B00039F30E94E209F70181937F01FFEFAF1A30
:1014C000BF0ADBCFCF92DF92EF92FF920F931F9371
:1014D000CF93DF93CDB7DEB729970FB6F894DEBF71
:1014E0000FBECDBFF62E8A018F3609F474C178F491
:1014F000893609F476C220F4813509F48AC251C3D1
:101500008B3609F48EC18D3609F409C24AC3863779
:1015100079F038F4803709F404C1853709F481C2C1
:1015200040C3883709F4E6C08A3709F438C139C3A3
:10153000DA0111962C91922F987125FF03C06CEC63
:1015400071E057C0FA01808126FB222720F931E0A3
:101550002327983051F150F4911123C3682F85E26D
:1015600094E00E94C412B2E0EB2E06C09031D9F193
:10157000983109F471C015C3EF1470F4F801EE0D41
:10158000F11D91818081F0E89F9F801911240E94B4
:10159000DD09E394E394F0CF85E294E00E944513E3
:1015A00086E490E00E940016FCC242816381B6E0AE
:1015B000E0E8FB1210C06E9FB0011124640F711D92
:1015C000D80115969C91159714964C91B0E89B9F65
:1015D0004019112405C06E9F401911246FEF7FEF51
:1015E0000E94E709DEC2E0910A01E7303CF06CEEB0
:1015F00071E08EE192E00E94EF02D3C2DA0112960E
:101600009C91129713964C91B6E0F0E86B1310C0C2
:101610004F9FA0011124490F511DD80115963C91EF
:10162000159714969C91B0E83B9F9019112405C022
:101630004F9F901911244FEF5FEFEF5FE0930A0186
:1016400035E0E302F0011124E65BFC4F8083528316
:10165000418393832483A5C260910A0116163CF44A
:1016600070E0262F332727FD309595E00FC08FEFD0
:1016700080930A0196C2949FF001959FF00D11246A
:10168000E65BFC4F4081481739F07F5F472F50E001
:101690002417350784F770E015E0872F90E02817AE
:1016A000390724F1783000F5AC014F5F5F4F149F8C
:1016B000D001159FB00D1124A65BBC4F4C91189F13
:1016C000F001199FF00D1124E65BFC4F4083119649
:1016D0008D919C9112979283818313968C9113978D
:1016E000838314968C9184837F5FD7CF61506093FE
:1016F0000A0157C2DA012C9111968C91B0E88B9FA8
:10170000C0011124820F911D009721F090930803CE
:101710008093070380910903811143C20E94270926
:1017200040C2E4E0E61708F03CC2DA01FC901196F2
:10173000EC9011971296DC9012971396CC90139719
:1017400014961C918EEF8F0D823108F02AC2EF2D76
:10175000F0E0E353FD4FE081EC3060F4F0E0CF01C6
:10176000880F991F8E0F9F1F8D519D4F0E9414123D
:10177000811113C2B0E81B9FA00111244C0D511D13
:10178000E0E8DE9EB00111246E0D711D8F2D0E94C8
:10179000200764E070E08F2D0E940D0802C2F1E086
:1017A000F61708F0FEC1DA012C9111968C91B0E881
:1017B0008B9FC0011124820F911D90930C01809387
:1017C0000B01892B09F0EDC181E090E090930C01B1
:1017D00080930B01E6C1E1E0E61708F0E2C1DA010F
:1017E00011966C9170E0B2E0FB16B1F0FA01228123
:1017F000F0E82F9F90011124622B732B23E0F21647
:1018000059F0DA0113968C9190E090E4899F902D25
:1018100088271124682B792BF80180810E940F06FC
:10182000C0C160EF8EE192E00E94F3026CE68EE1AF
:1018300092E00E94F3021EEF84EF810F883058F48B
:1018400062E08EE192E00E94F3026AE08EE192E0B3
:101850000E94F3020DC0113059F463E08EE192E072
:101860000E94F30268E08EE192E00E94F30208C059
:101870008DEF810F823088F389EF810F833068F319
:10188000123150F464E08EE192E00E94F3026EE0C7
:101890008EE192E00E94F30280EF810F823050F4DB
:1018A00066E08EE192E00E94F30261E08EE192E058
:1018B0000E94F3026FE78EE192E00E94F3021F5F45
:1018C000143109F442C0123108F0B6CF60E08EE165
:1018D00092E00E94F30261E08EE192E00E94F30246
:1018E0006BE08EE192E00E94F30261E08EE192E013
:1018F0000E94F30261E08EE192E00E94F30261E057
:101900008EE192E00E94F30265E78EE192E00E9490
:10191000F30261E08EE192E00E94F3028DCF662334
:1019200009F43FC1DA011C9160EF8EE192E00E9460
:10193000F3026EE68EE192E00E94F302612F8EE1E7
:1019400092E00E94F302163130F067EF8EE192E0F0
:101950000E94F30226C1612F8EE192E00E943303C0
:10196000682F8EE192E00E94F302612F8EE192E0F7
:101970000E944403682F6F778EE192E00E94F30289
:10198000612F8EE192E00E9444038078892B79F0E8
:10199000612F8EE192E00E944403880F892F881FF7
:1019A000990B682F6F778EE192E00E94F302612F0E
:1019B0008EE192E00E9444038827907C892B29F2D3
:1019C000612F8EE192E00E944403990F880B990FDA
:1019D000982F881F682F6F778EE192E00E94F302A4
:1019E000B4CF60EF8EE192E00E94F3026AE68EE1EE
:1019F00092E00E94F30212EF183010F06FE701C07E
:101A0000612F8EE192E00E94F3021F5F1830A1F770
:101A10009CCF662309F4C5C0BA018F2D0E94840EA5
:101A2000C0C0FA018381C28080FBC7F8D12CE12CB1
:101A3000F12CFC2CEE24DD24CC249581848190FBB8
:101A400087F990E0A0E0B0E0DC0199278827C80E74
:101A5000D91EEA1EFB1E9185808590FB87F9C80E72
:101A6000D11CE11CF11C9781868190FB87F990E0E5
:101A7000A0E0B0E0BA2FA92F982F8827C80ED91E52
:101A8000EA1EFB1E818161E08130C1F480810E94E9
:101A9000EB1660E0D8018C910E94241782E090E060
:101AA0000E94001661E0F80180810E942417C6019F
:101AB0000E94001660E0D8018C9113C0FA01808169
:101AC0000E94241782E090E00E94001660E0D80196
:101AD0008C910E942417C6010E94001661E0F80153
:101AE00080810E942417D8011B968C911B971A960F
:101AF0002C9180FB27F9822F90E0A0E0B0E0582FD6
:101B0000442733272227F8019585848590FB87F9A0
:101B100090E0A0E0B0E0DC0199278827280F391F6A
:101B20004A1F5B1F9189808990FB87F9280F311D1F
:101B3000411D511D9785868590FB87F990E0A0E0B7
:101B4000B0E0BA2FA92F982F8827280F391F4A1FD6
:101B50005B1F60E080812E833F83488759870E9406
:101B6000EB162E813F8148855985D80111966C91DD
:101B700011978C910E945A17F801208129839A832A
:101B80008B837C836D839E012F5F3F4F45E065E72C
:101B90008EE192E00E94A40204C08F2D0E9466078D
:101BA000E9CD29960FB6F894DEBF0FBECDBFDF9109
:101BB000CF911F910F91FF90EF90DF90CF900895FC
:101BC0008F929F92AF92BF92CF92DF92EF92FF924D
:101BD0000F931F930E94D7078EE192E00E94E401C9
:101BE000892B29F08EE192E00E943904F5CF0E9402
:101BF000A91560937603709377038093780390938D
:101C00007903C0907203D0907303E0907403F09056
:101C1000750340910B0150910C014A01A12CB12C8C
:101C20008B019C010C191D092E093F098016910694
:101C3000A206B30608F051C0D501C4018C0D9D1D4C
:101C4000AE1DBF1D8093720390937303A093740322
:101C5000B093750312EF6EE0610F1830D8F48EE187
:101C600092E00E9433038230A9F4209183033091E3
:101C70008403012E02C0359527950A94E2F720FFD0
:101C800009C0812F0E944616AC01612F8EE192E0BF
:101C90000E945D021F5F1830F1F680910A0187FDF6
:101CA0001CC010E005E0812F90E020910A0133274D
:101CB00027FD30952817390784F0089FF001099F08
:101CC000F00D1124E65BFC4F618172812481438118
:101CD00080810E94E7091F5FE6CF1F910F91FF905F
:101CE000EF90DF90CF90BF90AF909F908F9008952E
:101CF000EDE8F3E0A5E8B3E0119211921D9283E0C4
:101D0000ED39F807C9F708959F92AF92BF92CF922D
:101D1000DF92EF92FF920F931F93CF93DF93FB011C
:101D200090819F70923009F442C020F4913009F400
:101D3000EBC04EC1933009F482C0943009F048C121
:101D4000C280D12CE12CF12CA7E0CC0CDD1CEE1CC8
:101D5000FF1CAA95D1F7838190E0A0E0B0E0CEE02F
:101D6000880F991FAA1FBB1FCA95D1F7C80ED91E8D
:101D7000EA1EFB1E8181C80ED11CE11CF11C84816E
:101D800090E0A0E0B0E0D5E1880F991FAA1FBB1F2B
:101D9000DA95D1F7C80ED91EEA1EFB1ECDE9D3E0B5
:101DA00015E8A12E13E0B12E992493942DC08091B3
:101DB000FD0381110DC181E08093FD03CDE9D3E0E6
:101DC00005E813E0CE010E944B05892B21F0F801B4
:101DD00080818111F9C0F80111928F012C96F3E0F6
:101DE000CD3FDF0779F71092FD03F2C0CE010E94CC
:101DF0004F05F50190822C96FFEFAF1ABF0A23E042
:101E0000CD3FD20709F4E4C0CE010E944B05892BD7
:101E100091F3C114D104E104F10441F300E010E0B6
:101E2000CE010E944B050817190718F7A701960164
:101E3000B801CE010E945D050F5F1F4FF1CF828177
:101E4000618170E030E8839F600D711D11249381E2
:101E50002481C5808681EDE8F3E0C0E04191519195
:101E60006417750778F530E040E050E017E0220F86
:101E7000331F441F551F1A95D1F7D12CE12CF12C9B
:101E80000EE0CC0CDD1CEE1CFF1C0A95D1F72C0DCE
:101E90003D1D4E1D5F1D290F311D411D511D90E03F
:101EA000A0E0B0E0E5E1880F991FAA1FBB1FEA95EB
:101EB000D1F7280F391F4A1F5B1FC11107C08DE9D9
:101EC00093E019C0CF5FC83049F682C0EC2FFF27DE
:101ED000E7FDF095DF01AA0FBB1FA557BC4F8D9101
:101EE0009C91681B790BACE0AE9FC001AF9F900D39
:101EF000112483569C4F0E945D05EC2FF0E0EB57B8
:101F0000FC4F81E0808364C0833008F461C09BEAA9
:101F1000899FB12C1124B694CDE9D3E09DE8E92E38
:101F200093E0F92E8B010D5F1F4FA12C8091FE03D2
:101F3000F80132976F01811105C060816F71CE0188
:101F40000E94BC05F601208130E085E0359527959B
:101F50008A95E1F72130310549F02230310551F001
:101F6000232B59F4CE010E94A60507C0CE010E9482
:101F7000AD0503C0CE010E94B405F8013197808100
:101F8000F8016081F0E86F9FB0011124680F711DA6
:101F9000CE010E940705AA2029F0F7013297C080E0
:101FA000D18002C0C12CD12CCE010E944B058C0DDA
:101FB0009D1DF701819391937F01A3942C960D5F52
:101FC0001F4FAB10B3CF04C0CE010E94850503CFD5
:101FD000DF91CF911F910F91FF90EF90DF90CF9005
:101FE000BF90AF909F900895CF93DF93CDE9D3E05A
:101FF000CE010E9447052C9683E0CD3FD807C1F75C
:10200000DF91CF910895CF93DF93CDEFD3E02C975D
:10201000CE010E94BB0583E0CD39D807C1F7DF911F
:10202000CF9108951F920F920FB60F9211242F9304
:102030003F934F935F936F937F938F939F93AF9350
:10204000BF93EF93FF938091000487FF05C0109228
:102050008500109284001AC020910004332727FDC8
:1020600030958091FF0390E0281739077CF4809128
:102070000004992787FD9095FC01EE0FFF1FE80FE4
:10208000F91FEF5FFB4F808186FD15C08091000432
:102090008F5F8093000420910004332727FD309543
:1020A0008091FF0390E028173907BCF48091000469
:1020B0008C305CF112C080910004992787FD9095C7
:1020C000FC01EE0FFF1FE80FF91FEF5FFB4F808150
:1020D00060E08F730E942417D9CF80918400909183
:1020E0008500049680349C4918F480E49CE905C07E
:1020F000809184009091850004969093890080934C
:1021000088008FEF8093000438C0209184003091C4
:10211000850080910004992787FD9095FC01EE0FC2
:10212000FF1FE80FF91FEF5FFB4F81819281820F44
:10213000931F9093890080938800809100049927D1
:1021400087FD9095FC01EE0FFF1FE80FF91FEF5F71
:10215000FB4F808186FF11C080910004992787FD85
:102160009095FC01EE0FFF1FE80FF91FEF5FFB4F8B
:10217000808161E08F730E942417FF91EF91BF91DE
:10218000AF919F918F917F916F915F914F913F910F
:102190002F910F900FBE0F901F9018952091FF0365
:1021A0002C30A0F431E0320F3093FF03FC01208388
:1021B000822F90E0FC01EE0FFF1FE80FF91FEF5F89
:1021C000FB4F88EB9BE09283818308952FEFFC0106
:1021D00020830895DF92EF92FF920F931F93CF9386
:1021E000DF93EC01D62E7A01890188818C3008F0CA
:1021F00066C061E08D2D0E94EB168881A82FB0E0AB
:10220000FD01EE0FFF1FEA0FFB1FEF5FFB4F2D2DB0
:102210002F739081907C922B908360E272E06E1914
:102220007F0977FF02C06D5F7F4F75956795759544
:102230006795698340E659E0401B510B57FF02C088
:102240004D5F5F4F55954795559547954A836CE08F
:102250000E94001A9CE0899FB001112420E030E028
:10226000A901460F571FFA01EE0FFF1FE40FF51FDC
:10227000EF5FFB4F908196FD16C02F5F3F4F2C30D4
:10228000310571F781110FC01092800082E08093B8
:1022900081001092850010928400B19A80916F00A5
:1022A000826080936F00888190E0FC01EE0FFF1F39
:1022B000E80FF91FEF5FFB4F808180648083888186
:1022C000DF91CF911F910F91FF90EF90DF900895D4
:1022D00020E639E040E252E00C94EA10FC018081F3
:1022E00090E0FC01EE0FFF1FE80FF91FEF5FFB4FBF
:1022F00080818F7B80830895FC0180818C3070F514
:10230000918128E830E0291B310997FD3395220F90
:10231000331F220F331F621773077CF0928128E569
:1023200032E0291B310997FD3395220F331F220F0D
:10233000331F621773070CF49B0122503109220FDF
:10234000331F4FB7F89490E0FC01EE0FFF1FE80F2A
:10235000F91FEF5FFB4F328321834FBF08954F92E8
:102360005F926F927F92AF92BF92CF92DF92EF9285
:10237000FF920F931F93CF93DF93EC01603282E0C3
:1023800078070CF040C077FD06C0653B71052CF066
:1023900064EB70E002C060E070E0898128E830E022
:1023A000281B310987FD3395220F331F220F331F5E
:1023B0005901CC24B7FCC094DC2C882777FD80958C
:1023C000982F2A8148E552E0421B510927FD539579
:1023D000440F551F440F551F2A01662457FC609473
:1023E000762C7F926F925F924F9214EBE12EF12C3C
:1023F00000E010E020E030E0A9010E9498190F9061
:102400000F900F900F90CE01DF91CF911F910F9100
:10241000FF90EF90DF90CF90BF90AF907F906F9044
:102420005F904F900C947C11FC01808190E0FC0146
:10243000EE0FFF1FE80FF91FEF5FFB4F808186FB58
:10244000882780F908958091550490E020915604E2
:10245000821B9109089520915604809155042817F4
:1024600050F4E22FF0E0E95AFB4F808190E02F5FBB
:102470002093560408958FEF9FEF0895E09156043E
:1024800080915504E81730F4F0E0E95AFB4F808161
:1024900090E008958FEF9FEF08950895CF92DF9217
:1024A000EF92FF920F931F93CF93DF937C01CB01A9
:1024B0008A0120913104222389F0EB016B01C40EC3
:1024C000D51ECC15DD0569F06991D701ED91FC9120
:1024D0000190F081E02DC7010995F3CF642F0E9490
:1024E0000914C801DF91CF911F910F91FF90EF90D8
:1024F000DF90CF900895CF93DF931F92CDB7DEB7D3
:102500006983209131042223D1F0209132042032BA
:1025100040F021E030E0FC013383228380E090E052
:1025200015C080913304E82FF0E0EC5CFB4F9981FB
:1025300090838F5F809333048093320405C061E001
:10254000CE0101960E94091481E090E00F90DF9186
:10255000CF910895FC011382128248EE53E060E0AF
:1025600070E0448355836683778381E092E09183B2
:1025700080830895109256041092550410923304EB
:10258000109232040C944C1381E0809331046093D8
:102590005404109233041092320408950F93062FBE
:1025A00021E04091320464E374E0809154040E947D
:1025B000B2131092330410923204109231040F912E
:1025C00008958F929F92AF92BF92CF92DF92EF9237
:1025D000FF920F931F93CF93DF93EC01F62ED42E2F
:1025E00048015901EE2019F10E94C4121E2D143029
:1025F00008F013E01150B8F0E881F98128E0129F4B
:10260000B0011124A501940104C056954795379552
:1026100027956A95D2F7CA01B9010190F081E02DA2
:10262000CE010995E7CF60E0CE010E94CE124D2D7C
:10263000413208F040E22C2D67E574E08F2D0E94B6
:102640006A131092560480935504DF91CF911F9125
:102650000F91FF90EF90DF90CF90BF90AF909F9041
:102660008F900895CF92EF920F931F93C22EE12C7B
:1026700000E010E098010E94E1121F910F91EF908D
:10268000CF90089521E00C94321361E00C94CE12A7
:1026900085E294E00C94AA121092E40481E0809305
:1026A000E2041092E10461E082E10E94241761E0FB
:1026B00083E10E942417E9EBF0E080818E7F808324
:1026C00080818D7F808388E48093B80085E4809347
:1026D000BC000895413208F043C09091E404911188
:1026E000FCCF91E09093E4042093E2042FEF209339
:1026F00077041092BC04240F2093BB049093E3044E
:102700009091E304880F892B8093E3048091E10486
:10271000813061F41092E1048091E3048093BB0066
:102720008091BC0083FDF8CF85EC01C085EE8093DD
:10273000BC008091E4048130E1F38091BC048417F3
:1027400010F44091BC042DEB34E0FB01D9018A2F39
:10275000821B841718F48D918193F9CF842F0895EB
:1027600080E008950F93413208F04AC09091E4044C
:102770009111FCCF92E09093E4040093E2049FEF68
:10278000909377041092BC044093BB04FB016DEB63
:1027900074E0DB019A2F961B941718F491919D9386
:1027A000F9CF1092E3049091E304880F892B809372
:1027B000E3048091E104813061F41092E10480919E
:1027C000E3048093BB008091BC0083FDF8CF85ECCF
:1027D00001C085EE8093BC00222321F08091E404A7
:1027E0008230E1F3809177048F3F61F0809177042C
:1027F000803251F080917704803341F483E007C048
:1028000081E005C080E003C082E001C084E00F9158
:102810000895613298F42091E404243089F460939F
:102820009904FC018BE994E0DC012A2F281B261770
:1028300018F421912D93F9CF80E0089581E0089557
:1028400082E0089585ED8093BC008091BC0084FDFA
:10285000FCCF1092E404089585EC8093BC001092A4
:10286000E40408951F920F920FB60F9211242F9334
:102870003F934F935F936F937F938F939F93AF9308
:10288000BF93EF93FF938091B900887F803609F45E
:102890009EC078F5883209F45DC090F4803109F467
:1028A00056C038F4882309F4F5C0883009F44FC0C5
:1028B000F5C0883109F44EC0803209F45FC0EEC023
:1028C000803409F46AC058F4803309F457C088335F
:1028D00009F0E4C0809377040E942C14DFC0803597
:1028E00009F44FC0883509F45DC0883409F0D6C0BA
:1028F000D3C0883909F4C4C0A8F4883709F467C084
:1029000038F4883609F463C0803709F460C0C6C063
:10291000883809F4B5C0803909F45FC0803809F0FF
:10292000BDC05BC0803B09F483C038F4803A09F431
:1029300066C0883A09F47CC0B1C0803C09F4A4C0E8
:10294000883C09F4A1C0883B09F487C0A7C08091E6
:10295000E30410C09091BC048091BB04981770F5FB
:10296000E091BC0481E08E0F8093BC04F0E0E3545E
:10297000FB4F80818093BB0085EC83C080937704FC
:102980008BC0E091BC0481E08E0F8093BC048091E9
:10299000BB00F0E0E354FB4F80839091BC04809136
:1029A000BB046BC0E091BC0481E08E0F8093BC043B
:1029B0008091BB00F0E0E354FB4F80838091E20400
:1029C00081116AC081E08093E10484EA5EC083E003
:1029D0008093E40410927804CFCF80917804803201
:1029E00008F04EC0E091780481E08E0F8093780467
:1029F0008091BB00F0E0E758FB4F8083BDCF0E9481
:102A00002C1480917804803230F4E0917804F0E066
:102A1000E758FB4F10826091780470E0E091DD048C
:102A2000F091DE0489E794E009951092780436C0AD
:102A300084E08093E40410929A0410929904E09147
:102A4000DF04F091E004099580919904811105C09B
:102A500081E08093990410929B04E0919A0481E0B4
:102A60008E0F80939A04F0E0E556FB4F80818093AF
:102A7000BB0090919A0480919904981708F47CCF38
:102A800085E88093BC000AC085EC8093BC0010925E
:102A9000E40404C0109277040E942214FF91EF9185
:102AA000BF91AF919F918F917F916F915F914F9166
:102AB0003F912F910F900FBE0F901F9018951F926E
:102AC0000F920FB60F9211242F933F938F939F93E2
:102AD000AF93BF938091E6049091E704A091E8043E
:102AE000B091E9043091E50423E0230F2D3720F461
:102AF0000196A11DB11D05C026E8230F0296A11D58
:102B0000B11D2093E5048093E6049093E704A0931D
:102B1000E804B093E9048091EA049091EB04A09159
:102B2000EC04B091ED040196A11DB11D8093EA045F
:102B30009093EB04A093EC04B093ED04BF91AF919C
:102B40009F918F913F912F910F900FBE0F901F90EB
:102B500018952FB7F8946091E6047091E70480917E
:102B6000E8049091E9042FBF08953FB7F89480914D
:102B7000EA049091EB04A091EC04B091ED0426B529
:102B8000A89B05C02F3F19F00196A11DB11D3FBFA5
:102B90006627782F892F9A2F620F711D811D911D35
:102BA00042E0660F771F881F991F4A95D1F7089555
:102BB000CF92DF92EF92FF92CF93DF936B017C0174
:102BC0000E94B515EB01C114D104E104F10489F0B0
:102BD0000E94EF190E94B5156C1B7D0B683E734077
:102BE00090F381E0C81AD108E108F108C851DC4F20
:102BF000EACFDF91CF91FF90EF90DF90CF900895D3
:102C00008230910538F0880F991F880F991F05971A
:102C10000197F1F70895789484B5826084BD84B5F6
:102C2000816084BD85B5826085BD85B5816085BDC7
:102C3000EEE6F0E0808181608083E1E8F0E01082E0
:102C4000808182608083808181608083E0E8F0E021
:102C5000808181608083E1EBF0E08081846080830B
:102C6000E0EBF0E0808181608083EAE7F0E0808142
:102C700084608083808182608083808181608083A2
:102C80008081806880831092C10008958E3008F0A2
:102C90008E50877020910D0190E4299F900111249E
:102CA000822B80937C0080917A00806480937A00EC
:102CB00080917A0086FDFCCF809178002091790088
:102CC00090E0922B08951F93CF93DF93182FEB0181
:102CD00061E00E94EB16209711F460E004C0CF3F42
:102CE000D10539F461E0812FDF91CF911F910C94D0
:102CF0002417E12FF0E0E058FF4FE491E330F9F0C2
:102D000048F4E130B9F0E230A1F584B5806284BDC9
:102D1000C8BD34C0E730E9F0E83019F1E43049F5D6
:102D200080918000806280938000D0938B00C0935C
:102D30008A0024C084B5806884BDC7BD1FC080914F
:102D40008000806880938000D0938900C0938800C1
:102D500015C08091B00080688093B000C093B3002C
:102D60000DC08091B00080628093B000C093B40029
:102D700005C0C038D1050CF0B5CFAFCFDF91CF91F2
:102D80001F910895833081F028F4813099F08230CA
:102D9000A1F008958730A9F08830B9F08430D1F4DB
:102DA000809180008F7D03C0809180008F77809319
:102DB0008000089584B58F7702C084B58F7D84BD6F
:102DC00008958091B0008F7703C08091B0008F7D0F
:102DD0008093B0000895CF93DF9390E0FC01EC5610
:102DE000FF4F2491FC01E855FF4F8491882349F15E
:102DF00090E0880F991FFC01E053FF4FA591B4911B
:102E00008A539F4FFC01C591D4919FB7611108C0AF
:102E1000F8948C91209582238C93888182230AC018
:102E2000623051F4F8948C91322F309583238C9337
:102E30008881822B888304C0F8948C91822B8C9398
:102E40009FBFDF91CF9108950F931F93CF93DF938F
:102E50001F92CDB7DEB7282F30E0F901E058FF4FC1
:102E60008491F901EC56FF4F1491F901E855FF4F99
:102E700004910023C9F0882321F069830E94C216BF
:102E80006981E02FF0E0EE0FFF1FEA53FF4FA5919D
:102E9000B4919FB7F8948C91611103C01095812370
:102EA00001C0812B8C939FBF0F90DF91CF911F9119
:102EB0000F9108950F931F93762F90E0FC01EC562D
:102EC000FF4F6491FC01E855FF4FE4917111762F9B
:102ED000F0E0EE0FFF1FE454FF4F859194918901BC
:102EE0009A013F70472F0E949D0061157105810571
:102EF000910531F06F5F7F4F8F4F9F4F9F7003C0E1
:102F000060E070E0CB011F910F910895FC01818D6D
:102F1000228D90E0805C9F4F821B91098F739927CF
:102F20000895FC01918D828D981731F0828DE80F04
:102F3000F11D858D90E008958FEF9FEF0895FC01BE
:102F4000918D828D981761F0828DDF01A80FB11DE0
:102F50005D968C91928D9F5F9F73928F90E0089504
:102F60008FEF9FEF089583E299E1892B49F080E08C
:102F700090E0892B29F00E94231981110C94000004
:102F80000895FC01848DDF01A80FB11DA35ABF4F26
:102F90002C91848D90E001968F739927848FA68958
:102FA000B7892C93A089B1898C9180648C93938D7F
:102FB000848D981306C00288F389E02D80818F7D6F
:102FC00080830895CF93DF93EC01888D8823C9F027
:102FD000EA89FB89808185FD05C0A889B9898C9122
:102FE00086FD0FC00FB607FCF5CF808185FFF2CFBD
:102FF000A889B9898C9185FFEDCFCE010E94C117B8
:10300000E7CFDF91CF910895CF92DF92FF920F9398
:103010001F93CF93DF931F92CDB7DEB76C0181E092
:10302000D60158968C9358975B969C915B975C96CB
:103030008C915C97981307C05096ED91FC91519735
:10304000808185FD2EC0F601038D10E00F5F1F4FBC
:103050000F731127F02EF601848DF81211C00FB6F0
:1030600007FCF9CFD6015096ED91FC9151978081E4
:1030700085FFF1CFC60169830E94C1176981EBCF3B
:10308000838DE80FF11DE35AFF4F6083D6015B96F5
:103090000C935B975296ED91FC91539780818062DF
:1030A0000CC0D6015696ED91FC91579760835096CF
:1030B000ED91FC91519780818064808381E090E064
:1030C0000F90DF91CF911F910F91FF90DF90CF90E4
:1030D0000895BF92CF92DF92EF92FF92CF93DF934A
:1030E000EC016A017B01B22EE889F98982E08083D4
:1030F000411581EE580761057105A1F060E079E0A6
:103100008DE390E0A70196010E940C1A215031092D
:10311000410951095695479537952795211580E125
:10312000380798F0E889F989108260E874E88EE140
:1031300090E0A70196010E940C1A21503109410923
:1031400051095695479537952795EC85FD85308330
:10315000EE85FF852083188EEC89FD89B082EA898F
:10316000FB89808180618083EA89FB898081886016
:103170008083EA89FB89808180688083EA89FB8972
:1031800080818F7D8083DF91CF91FF90EF90DF90E2
:10319000CF90BF9008951F920F920FB60F921124F7
:1031A0002F938F939F93EF93FF93E091FE04F09101
:1031B000FF048081E0910405F091050582FD12C0B5
:1031C0009081809107058F5F8F732091080582178A
:1031D00051F0E0910705F0E0E251FB4F958F8093AD
:1031E000070501C08081FF91EF919F918F912F91F1
:1031F0000F900FBE0F901F9018951F920F920FB651
:103200000F9211242F933F934F935F936F937F936C
:103210008F939F93AF93BF93EF93FF938EEE94E0C2
:103220000E94C117FF91EF91BF91AF919F918F9134
:103230007F916F915F914F913F912F910F900FBEB2
:103240000F901F9018958EEE94E00E94861721E053
:10325000892B09F420E0822F08951092F104109236
:10326000F00488EE93E0A0E0B0E08093F204909345
:10327000F304A093F404B093F50481E192E09093F9
:10328000EF048093EE0485EC90E09093FB04809330
:10329000FA0484EC90E09093FD048093FC0480ECAD
:1032A00090E09093FF048093FE0481EC90E0909373
:1032B00001058093000582EC90E0909303058093D4
:1032C000020586EC90E0909305058093040510922A
:1032D0000705109208051092090510920A05089535
:1032E000CF92DF92EF92FF920F931F93CF93DF93D2
:1032F0007C016A01EB0100E010E00C151D0571F086
:103300006991D701ED91FC910190F081E02DC70109
:103310000995892B19F00F5F1F4FEFCFC801DF917F
:10332000CF911F910F91FF90EF90DF90CF90089574
:103330004F925F926F927F92AF92BF92CF92DF9245
:10334000EF92FF920F931F93CF93DF93CDB7DEB72A
:1033500029013A01621B730B840B950B29893A8969
:103360004B895C892A193B094C095D09298B3A8BE9
:103370004B8B5C8B9B01AC0169897A898B899C8919
:103380000E94F019E418F50806091709A801970129
:103390000E942E1A2A0D3B1D4C1D5D1DCA01B9014C
:1033A000DF91CF911F910F91FF90EF90DF90CF9021
:1033B000BF90AF907F906F905F904F900895089569
:1033C0000E940B160E94DF190E948209C3EBD7E10D
:1033D0000E94E00D2097E1F30E94B317F9CF089502
:1033E000DB018F939F930E94531ABF91AF91A29FCD
:1033F000800D911DA39F900DB29F900D11240895F3
:10340000991B79E004C0991F961708F0961B881F36
:103410007A95C9F780950895A1E21A2EAA1BBB1BC5
:10342000FD010DC0AA1FBB1FEE1FFF1FA217B30790
:10343000E407F50720F0A21BB30BE40BF50B661FA6
:10344000771F881F991F1A9469F76095709580956A
:1034500090959B01AC01BD01CF010895052E97FB0E
:103460001EF400940E94451A57FD07D00E940C1AC2
:1034700007FC03D04EF40C94451A509540953095B6
:1034800021953F4F4F4F5F4F0895909580957095D0
:1034900061957F4F8F4F9F4F0895EE0FFF1F05904F
:1034A000F491E02D09940E945E1AA59F900DB49F9F
:1034B000900DA49F800D911D11240895A29FB0012D
:1034C000B39FC001A39F700D811D1124911DB29F58
:1034D000700D811D1124911D0895CF93DF938230CB
:1034E000910510F482E090E0E0918D05F0918E0559
:1034F00020E030E0A0E0B0E0309739F14081518128
:1035000048175907B8F04817590771F48281938119
:10351000109729F013969C938E9312972CC090933A
:103520008E0580938D0527C02115310531F0421796
:10353000530718F0A901DB0101C0EF019A01BD0199
:10354000DF010280F381E02DD7CF21153105F9F09D
:10355000281B390B2430310580F48A819B81611549
:10356000710521F0FB019383828304C090938E0543
:1035700080938D05FE01329644C0FE01E20FF31FD9
:103580008193919322503109398328833AC0209145
:103590008B0530918C05232B41F420910201309151
:1035A000030130938C0520938B052091000130910D
:1035B00001012115310541F42DB73EB740910401B9
:1035C00050910501241B350BE0918B05F0918C0582
:1035D000E217F307A0F42E1B3F0B2817390778F0EA
:1035E000AC014E5F5F4F2417350748F04E0F5F1F49
:1035F00050938C0540938B058193919302C0E0E03A
:10360000F0E0CF01DF91CF910895CF93DF93009742
:1036100009F487C0FC01329713821282C0918D0594
:10362000D0918E05209781F420813181280F391F98
:1036300080918B0590918C058217930779F5F09313
:103640008C05E0938B056DC0DE0120E030E0AE1705
:10365000BF0750F412964D915C9113979D0141154F
:10366000510509F1DA01F3CFB383A283408151817F
:10367000840F951F8A179B0771F48D919C91119768
:10368000840F951F02969183808312968D919C9151
:103690001397938382832115310529F4F0938E05C6
:1036A000E0938D053EC0D9011396FC93EE931297DB
:1036B0004D915D91A40FB51FEA17FB0779F4808146
:1036C0009181840F951F0296D90111969C938E9338
:1036D0008281938113969C938E931297E0E0F0E0A1
:1036E0008A819B81009719F0FE01EC01F9CFCE0190
:1036F000029628813981820F931F20918B0530918A
:103700008C052817390769F4309729F410928E0533
:1037100010928D0502C013821282D0938C05C09343
:103720008B05DF91CF910895DC0101C06D9341506D
:103730005040E0F70895FB01DC014150504048F053
:1037400001900D920020C9F701C01D9241505040D8
:10375000E0F70895FC0181E090E00190061609F47D
:10376000CF010020D1F701970895FB015191552316
:10377000A9F0BF01DC014D9145174111E1F759F462
:10378000CD010190002049F04D9140154111C9F340
:10379000FB014111EFCF81E090E00197089510E027
:1037A000C4EED0E004C0FE010E944F1A2296C63E2D
:0837B000D107C9F7F894FFCF1F
:1037B80000008F05800001000000FF1300012E6348
:1037C8007070004D617820736572766F7320617434
:1037D80074616368656400556E6B6E6F776E2070F8
:1037E800696E206D6F6465002F55736572732F6164
:1037F8006A6669736865722F6465762F746D702FB9
:103808006D626F745F6E6F6465626F74732F666943
:10381800726D776172652F6275696C642F626C7561
:1038280065746F6F74682F6D626F744669726D612D
:1038380074612F6D626F744669726D6174612E696F
:103848006E6F004932433A20546F6F206D616E7974
:1038580020627974657320726563656976656400B2
:103868004932433A20546F6F206665772062797435
:1038780065732072656365697665640031302D6211
:1038880069742061646472657373696E67206E6F12
:103898007420737570706F7274656400746F6F2034
:1038A8006D616E792071756572696573000000003D
:1038B800007B124E1223122B123E124D12000000F2
:0E38C800000418701986179F179117E2170059
:00000001FF
