:100000000C9467000C948F000C948F000C948F005C
:100010000C948F000C948F000C948F000C948F0024
:100020000C948F000C948F000C948F000C940B0E8A
:100030000C948F000C948F000C948F000C948F0004
:100040000C9458130C948F000C94C4160C94F61650
:100050000C948F000C948F000C948F000C948F00E4
:100060000C942B120C948F00000000080002010079
:100070000003040700000000000000000102040863
:100080001020408001020408102001020408102002
:10009000040404040404040402020202020203032E
:1000A00003030303000000002300260029000000D2
:1000B0000000250028002B0000000000240027007D
:1000C0002A001E06E908FF0D41112617070E11240C
:1000D0001FBECFEFD8E0DEBFCDBF12E0A0E0B1E0A1
:1000E000EAEAF3E302C005900D92AA31B107D9F70D
:1000F00024E0AAE1B2E001C01D92AC3CB207E1F7F6
:1001000010E0CCECD0E004C02297FE010E9453180E
:10011000C23CD107C9F70E94D9170C94C8190C9496
:100120000000CF92DF92EF92FF920F931F93E82F80
:10013000F92F05C0015011092109310961F19081A0
:1001400096239417B9F305C001501109210931090B
:1001500011F1908196239413F7CFC12CD12CE12C6F
:10016000F12C0AC08FEFC81AD80AE80AF80A0C1551
:100170001D052E053F0579F080818623841791F3B4
:100180006C2D7D2D8E2D9F2D1F910F91FF90EF9047
:10019000DF90CF90089560E070E080E090E01F91E4
:1001A0000F91FF90EF90DF90CF900895FF920F9303
:1001B0001F93CF93DF93EC01F22E798368838B0139
:1001C000000F111F060F171F1B830A834C831D820C
:1001D0002B871C861D861E861F8650E0FA01E0577D
:1001E000FF4FE491F0E0EE0FFF1FE255FF4F8591C6
:1001F0009491998B888BFA01E458FF4F44914A8B74
:10020000C8010E9466189F838E83009729F0A80179
:1002100060E070E00E948D19F0FE04C081E08887E4
:1002200019860BC0F2FE06C081E0888782E08987CC
:100230001A8605C0188681E0898782E08A87DF9167
:10024000CF911F910F91FF900895CF93DF93EC0111
:100250008E819F81009711F00E94FE1860E08C81D2
:10026000DF91CF910C94E414CF93DF93EC0161E024
:100270008C810E94E41460E08C81DF91CF910C941A
:100280001D15CF92DF92EF92FF920F931F93CF93A2
:10029000DF93CDB7DEB729970FB6F894DEBF0FBE58
:1002A000CDBF8C01DC0116968D919C911797892BFF
:1002B00009F49BC00E94AE13F801C484D584E6847F
:1002C000F7846C197D098E099F09623371058105D8
:1002D000910580F3F894828193819A838983A68122
:1002E000B7817D01EFEFEE1AFE0A8C918987D80164
:1002F0001B969C911B9750960D90BC91A02DF801D8
:10030000828991FF2EC09C91982B98879C91809513
:1003100089238F838F818E8388E08D8358856F81B9
:1003200049853D812E8189819A81F7015C9347FD42
:10033000252F3A952C93262F39F0441F00C000003A
:100340006C93000000C0F2CF38E041916C93000044
:10035000019761F7F801B18BA08B49873D832E830C
:1003600038C09C91982B98879C91809589238F8386
:100370008F818C8388E08B8358856F8149853B8191
:100380002C8189819A81F7015C9347FD252F00C05C
:1003900000C02C9300C000C000C000C000C06C931F
:1003A0000000262F3A9541F0441F000000C000C015
:1003B00000C000C000C0E8CF38E0419100C06C939D
:1003C00000C0019709F7F801B18BA08B49873B83E7
:1003D0002C839A83898378940E94AE13D8011C964B
:1003E0006D937D938D939C931F9729960FB6F894E8
:1003F000DEBF0FBECDBFDF91CF911F910F91FF9058
:10040000EF90DF90CF9008951F93CF93DF93EC018F
:10041000162F60E08C810E94E4141C8361E0812F20
:100420000E94E41460E0812F0E941D15812F90E04E
:10043000FC01E057FF4FE491F0E0EE0FFF1FE255A3
:10044000FF4F25913491398B288BFC01E458FF4FE5
:1004500084918A8BDF91CF911F910895CF92DF9283
:10046000EF92FF920F931F93CF93DF93FC01808154
:1004700091816817790788F5CA01AA27BB27082F39
:10048000C32ED42EE52EFF241C2DD22FC581CC23C4
:1004900061F08C9FC0011124092FCC9E60011124B2
:1004A0001D2D2C9F90011124D32F9B01220F331F50
:1004B000260F371F86819781820F931F2085DC01CD
:1004C000A20FB11D0C932185DC01A20FB11D1C935D
:1004D0002285FC01E20FF11DD083DF91CF911F91A6
:1004E0000F91FF90EF90DF90CF9008950F931F939F
:1004F000CF93DF93EC018B0188819981DC01ED9131
:10050000FC916F770190F081E02D099588819981A8
:10051000DC01ED91FC91B801660F672F661F770B28
:100520006F770190F081E02DDF91CF911F910F91B6
:100530000994DC018D919C91DC01ED91FC9101907D
:10054000F081E02D60EF0994DC018D919C91DC013C
:10055000ED91FC910190F081E02D67EF0994CF932C
:10056000DF93EC0188819981DC01ED91FC91019090
:10057000F081E02D69EF099588819981DC01ED9189
:10058000FC910190F081E02D62E0099588819981CC
:10059000DC01ED91FC910190F081E02D64E0DF91B0
:1005A000CF9109941F93CF93DF93EC018A81882325
:1005B000D9F1CE010E94990288819981DC01ED91E7
:1005C000FC910190F081E02D69E70995888199817E
:1005D000DC01ED91FC91AB81BC810190F081E02DBB
:1005E0006C91099588819981DC01ED91FC91AB8139
:1005F000BC810190F081E02D11966C91099512E07B
:100600008A81181758F4EB81FC81E10FF11D60819C
:1006100070E0CE010E9476021F5FF2CFCE01DF9123
:10062000CF911F910C94A402DF91CF911F91089557
:10063000CF92DF92EF92FF920F931F93CF93DF93AE
:100640008C01EB01C42ED22E6EE071E0CE010E942F
:10065000AE197C016FE270E0CE010E94A3190097F1
:1006600039F46CE570E0CE010E94A319009711F0F7
:10067000EC012196E114F10451F4FE0101900020F7
:10068000E9F7EC1BEF5FD8011296EC9306C0EC1A69
:10069000FD0AE394E394F801E282D80113968D9168
:1006A0009C9114970E94FE18F801E280F12CC7017A
:1006B0000E946618D80114969C938E931397DC01C0
:1006C000AE0DBF1D1C92FC01C082D182D8011296D2
:1006D0004C9150E042505109BE010296DF91CF91FA
:1006E0001F910F91FF90EF90DF90CF900C94941991
:1006F000DC018D919C91DC01ED91FC910480F581F0
:10070000E02D09940F931F93CF93DF93FC01208575
:10071000213749F0293709F049C0DF91CF911F9166
:100720000F910C94D202FC01E95AFF4F0190F08125
:10073000E02D309709F450C0DC01A75BBF4F4D910D
:100740005C919A012150310937FD9A01B9017595E3
:100750006795062F40E050E020E030E04E5F5F4FAD
:100760002017A0F4EC01C40FD51F1F81DC01A20FDC
:10077000B31F18961C931897C885D0E8CD9F101901
:10078000112418961C932F5F3F4FE8CFDC01A60F72
:10079000B11D17962C911797222311F018961C92D1
:1007A0000896DF91CF911F910F910994FC01E75AB0
:1007B000FF4F0190F081E02D309771F0AC01475F61
:1007C0005F4FDC01A75BBF4F6C916150822FDF91BF
:1007D000CF911F910F910994DF91CF911F910F91AC
:1007E00008950F931F93CF93DF93EC018A018881C3
:1007F0009981DC01ED91FC916F70606E0190F08148
:10080000E02D0995B801CE01DF91CF911F910F9195
:100810000C9476020F931F93CF93DF93EC018A0120
:1008200088819981DC01ED91FC916F706069019084
:10083000F081E02D099588819981DC01ED91FC9191
:10084000602F6F770190F081E02D09958881998163
:10085000DC01ED91FC91B801660F672F661F770BE5
:100860000190F081E02DDF91CF911F910F910994BC
:10087000CF92DF92EF92FF920F931F93CF93DF936C
:1008800000D01F92CDB7DEB78C01F42E2A833B83B4
:1008900069830E949902D8018D919C91DC01ED91B0
:1008A000FC910190F081E02D698109952A81E22E69
:1008B000C22E3B81D32E8C2D8E198F1540F4F6015C
:1008C00061916F0170E0C8010E947602F4CFC80107
:1008D0000F900F900F90DF91CF911F910F91FF908C
:1008E000EF90DF90CF900C94A4029A01FA0101904E
:1008F0000020E9F73197E41BF50B4E2F0C943804D8
:10090000AB0161E70C947504603DB9F028F46039DF
:1009100061F0603C71F00895603E19F0643F89F029
:100920000895FC01E55BFF4F0FC0FC01E35BFF4F47
:100930000BC0FC01E15BFF4F07C0FC01EF5AFF4F0A
:1009400003C0FC01ED5AFF4F5183408308956F3F70
:1009500029F4FC01EB5AFF4F518340830895875AD5
:100960009F4FFC01518340830895FC01158216823C
:10097000178280E090E0DF01A80FB91F18961C9243
:10098000019680349105B9F7DF01A85BBF4F1C9237
:1009900011961D921C92EB5AFF4F0190F081E02DB1
:1009A000309709F009940895FC0112821482138291
:1009B0000C94B504CF93DF93EC0188819981DC011D
:1009C000ED91FC910680F781E02D0995FE01E85B31
:1009D000FF4F20812223B1F0873F910531F410822F
:1009E000CE01DF91CF910C948203FE01E75BFF4FB4
:1009F00020813181C20FD31F88872F5F3F4F318302
:100A000020839DC02D81222309F45EC0803891058A
:100A10000CF05AC09FEF920F9D83FE01E90FF11D6C
:100A2000808791118CC08E81882309F488C0803D15
:100A3000E9F148F48039E9F0803C09F043C0FE0157
:100A4000E15BFF4F36C0803E19F0843F19F13AC098
:100A5000FE01E55BFF4F0190F081E02D309791F1B1
:100A60008885698570E0B0E88B9F600D711D112449
:100A700027C0FE01E35BFF4F0190F081E02D30972E
:100A800009F18885698570E090E8899F600D711D86
:100A9000112416C0FE01ED5AFF4F0190F081E02DA8
:100AA000309781F0688570E089850BC0FE01EF5AB0
:100AB000FF4F0190F081E02D309721F0688570E0C4
:100AC0008F8109951E823BC0803F91052CF4282F11
:100AD0002F702F83807F9927803E910521F154F458
:100AE000803C910511F1803D9105F9F08039910527
:100AF00031F519C0843F9105B1F054F4803F910560
:100B0000F1F481E08083C75BDF4F1982188217C040
:100B1000893F910571F08F3F910589F4CE01DF91F6
:100B2000CF910C94B50492E001C091E09D838E8337
:100B300006C08AE192E0DF91CF910C94AF02DF9181
:100B4000CF9108958F929F92AF92BF92CF92DF92F2
:100B5000EF92FF921F93CF93DF93EB014A0169015C
:100B600061E08DE00E94E41410E0EE24D7FCE094F4
:100B7000FE2CAA2497FCA094BA2C812F90E08C170D
:100B80009D0794F4C701B6010E94D11361E08DE086
:100B90000E941D15C501B4010E94D11360E08DE0D3
:100BA0000E941D151F5FE9CFDF91CF911F91FF902C
:100BB000EF90DF90CF90BF90AF909F908F9008956F
:100BC000CF93DF93EC0161E08DE00E94E41422ED0D
:100BD00030E048E250E062E070E0CE010E94A20501
:100BE0006AEF70E080E090E00E94D11322ED30E0E7
:100BF00048E250E064E070E0CE010E94A2056DE79B
:100C000070E080E090E0DF91CF910C94D113CF930E
:100C1000DF93EC0126E08BE294E00E9462168BE207
:100C200094E099838883CE010E94E005CE010E9462
:100C3000AF02CE01DF91CF910C94D2028AE192E013
:100C40000C94D404833028F4E82FF0E0EC5DFC4FE2
:100C500060830895833008F062C0482F440F440F2A
:100C6000440F485F473108F046E1582F550F550FA4
:100C7000550F90E071E05417E8F42EEF250F223164
:100C8000B0F4E52FF0E0DF01A55FBC4F2C912230DE
:100C900070F4972BEE0FFF1FE452FD4F21E030E080
:100CA000A72FA62311F420E030E031832083770FB3
:100CB0005F5FE1CF81110AC09C7FF8942BB1892F2F
:100CC000809582239623892B8BB928C08130C9F463
:100CD0006923F89425B1892F8F7380958223262F5D
:100CE0002F73822B85B988B162956695669563707E
:100CF000929596959695937090959823692B68B9DF
:100D00000DC09F70F89428B1892F880F880F8095A7
:100D100082236923660F660F862B88B9789408951D
:100D20008830C0F4409127035091280321E030E03F
:100D300002C0220F331F8A95E2F7672B29F4209512
:100D400030952423352302C0242B352B30932803E0
:100D50002093270308950F931F93CF93DF93EB0105
:100D6000863170F5082F10E0F801E55FFC4F9081A7
:100D7000933091F0943021F582508C30D0F498016A
:100D800022503109C901880F991F820F931F8B5878
:100D90009D4F0E94A80F0DC0833041F09BEF980F2C
:100DA000923020F097EF980F933018F4BE010E9414
:100DB0005C14F801EE0FFF1FE452FD4FD183C08396
:100DC000DF91CF911F910F910895DC01ED91FC917E
:100DD0000190F081E02D09941F93CF93DF93162F9C
:100DE000C82FD0E0FE01E85FFC4F90811923CF5D52
:100DF000DC4F411103C09881911741F0412F50E021
:100E0000682F8AE192E00E940A041883DF91CF9153
:100E10001F91089580912403882349F069B180913E
:100E2000080368236C7F40E080E00E94EC0680911C
:100E30002503882379F063B186B120E4829FC00145
:100E400011246F73682B80910903682340E081E0CF
:100E50000E94EC0680912603882359F066B16C73DA
:100E60006695669580910A03682340E082E00C94C1
:100E7000EC06089510929B028FEF80930A0108956B
:100E80008F929F92BF92CF92DF92EF92FF920F9339
:100E90001F93CF93DF9300D0CDB7DEB7B82E4B01B1
:100EA000C82ED12C8601055F1C4FF8018081863049
:100EB00049F480919B02882329F06630710511F076
:100EC0000E943A074EEF4B0D4C30B0F484E0881688
:100ED000910491F0C60102977C01EE0CFF1CE80E14
:100EE000F91EF701EB58FD4F7F01CF014A830E94A5
:100EF0000D104A818111D0C092EF9B0D983078F48B
:100F000061E070E0F2E08F16910411F060E070E0B3
:100F1000892F4A8399830E94900699814A814231A0
:100F2000D8F4EB2DE695E695E6958B2D8770F0E0ED
:100F3000E85FFC4F21E030E0082E01C0220F0A9448
:100F4000EAF78114910421F48081822B808304C00C
:100F50002095808128232083F601EE0FFF1FE452A5
:100F6000FD4F1182108282E088169104A1F03CF4BA
:100F700081149104F9F08A94892851F17AC0F4E03F
:100F80008F16910409F448C084F196E08916910403
:100F900009F467C06EC0983008F084C0423140F454
:100FA00060E08B2D0E94E41460E08B2D0E941D15E3
:100FB00082E05CC0423108F075C060E08B2D0E9479
:100FC000E41460E08B2D0E941D15F80110826AC0A8
:100FD000423108F067C060E08B2D0E941D1561E072
:100FE0008B2D0E94E41481E041C0F3E0BF1649F06C
:100FF0008BEF8B0D823028F087EF8B0D833008F05C
:1010000051C061E08B2D0E94E41460E070E08B2DF4
:101010000E945C1483E02AC04C3008F043C084E096
:10102000F8018083C60102978C01000F111F080F81
:10103000191F0B581D4FC8010E940D10811132C09D
:10104000B601C8010F900F90DF91CF911F910F91C2
:10105000FF90EF90DF90CF90BF909F908F900C9477
:10106000610F8EEE8B0D8230E8F486E0F80180830C
:1010700019C063E171E08AE192E00F900F90DF9177
:10108000CF911F910F91FF90EF90DF90CF90BF9085
:101090009F908F900C948004C7014A830E94670F31
:1010A0004A812ACF0F900F90DF91CF911F910F911E
:1010B000FF90EF90DF90CF90BF909F908F9008951A
:1010C000CF93C0E08EEE8C0F823028F466E070E0A3
:1010D0008C2F0E944007CF5FC631A1F781E080933B
:1010E0009B0282E693E0CF910C94B310CF93809152
:1010F0009B0281110E943A07109224031092080368
:1011000010922103109225031092090310922203DA
:101110001092260310920A0310922303C0E082EF7C
:101120008C0F883018F462E070E002C061E070E07B
:101130008C2F0E944007CF5FC63189F71092280399
:1011400010922703CF91089524E042E064E271E019
:101150008AE192E00E9418034BEA56E060EE8AE1D1
:1011600092E00E9484044AE256E060E98AE192E05B
:101170000E94840440E956E060EC8AE192E00E941B
:10118000840442E256E060ED8AE192E00E94840429
:1011900040E457E064EF8AE192E00E9484044CEF5F
:1011A00059E060EF8AE192E00E94AF0446E758E020
:1011B0006FEF8AE192E00E94A70440E051EE60E008
:1011C00070E08AE192E00E9407060E9476080C9483
:1011D000460DCF93DF93C5E7D2E0CE010E94C70E44
:1011E000239682E0C939D807C1F7DF91CF910895DE
:1011F000DF92EF92FF920F931F93CF93DF93F82E1E
:10120000EB01D42E6F3F8FEF7807A9F06F2D82E6A8
:1012100093E00E94BD106C2F82E693E00E94741050
:1012200082E693E00E943E118091990290919A0289
:101230000E94F91302C0C0E0D0E04D2D6F2D82E670
:1012400093E00E943B110D2D10E082E693E00E9496
:101250001C1008171907B1F4F0929C02C0939D026C
:10126000EEE9EE2EE2E0FE2EC0E0D0E0C017D1079E
:10127000CCF482E693E00E942410F70181937F0171
:101280002196F4CF82E693E00E941C10801791070C
:101290001CF469E771E002C061EA71E08AE192E062
:1012A0000E94800442E04D0D2CE932E067E78AE1BC
:1012B00092E0DF91CF911F910F91FF90EF90DF901F
:1012C0000C9438048F929F92AF92BF92CF92DF928C
:1012D000EF92FF920F931F93CF93DF930E940A0721
:1012E0008AE192E00E947803892B29F08AE192E05A
:1012F0000E94DA04F5CF0E94A2136093D802709383
:10130000D9028093DA029093DB02C090D402D0908D
:10131000D502E090D602F090D70240910B01509197
:101320000C014A01AA2497FCA094BA2C8B019C01C1
:101330000C191D092E093F0980169106A206B30655
:1013400008F04DC0D501C4018C0D9D1DAE1DBF1D03
:101350008093D4029093D502A093D602B093D70283
:10136000CBE0D3E012EF1830C0F488818230A9F4CA
:101370002091270330912803012E02C0359527952F
:101380000A94E2F720FF09C0812F0E943F14AC01AC
:10139000612F8AE192E00E94F1031F5F21961830CD
:1013A00011F780910A0187FD1AC0C0E08C2F90E0F0
:1013B00020910A01332727FD3095281739077CF043
:1013C000FC01EE0FFF1FE80FF91FE454FD4F618190
:1013D00070E0428180810E94F808CF5FE7CFDF9103
:1013E000CF911F910F91FF90EF90DF90CF90BF9022
:1013F000AF909F908F9008959F92AF92BF92CF929F
:10140000DF92EF92FF920F931F93CF93DF93CDB7AD
:10141000DEB729970FB6F894DEBF0FBECDBFF62E0C
:101420008A018F3609F444C178F4893609F443C23D
:1014300020F4813509F45DC217C38B3609F45CC111
:101440008D3609F4DAC110C3863779F038F4803765
:1014500009F4DAC0853709F454C206C3883709F4A1
:10146000BDC08A3709F409C1FFC2FA018181982FF2
:10147000987185FF03C068EC71E054C0FA01808167
:10148000983061F150F49111EFC2682F82E693E039
:101490000E94BD1062E0E62E06C09031F9F098314E
:1014A00009F456C0E1C2EF1480F4F801EE0DF11D0D
:1014B00081816081F0E88F9F6019112482E693E0BA
:1014C0000E947410E394E394EECF82E693E00E94CE
:1014D0003E1186E490E00E94F913C6C2F801238110
:1014E0006281F6E0FF120CC030E8239F60191124DE
:1014F000F80125814481F0E82F9F4019112406C08E
:10150000462F30E8239F401911246FEF983021F4C3
:1015100070E00E94F808A8C220910A0127303CF030
:1015200068EE71E08AE192E00E9480049DC22F5F24
:1015300020930A01332727FD3095F901EE0FFF1F95
:10154000E20FF31FE454FD4F8083618342838CC21A
:1015500060910A01161634F470E0462F552747FDB6
:1015600050950FC08FEF80930A017EC2F901EE0FF4
:10157000FF1FE20FF31FE454FD4F9081981729F1EC
:101580007F5F272F30E04217530784F770E01DC0BC
:101590007830D0F49C012F5F3F4FD901AA0FBB1FB9
:1015A000A20FB31FA454BD4F2C91FC01EE0FFF1FDF
:1015B000E80FF91FE454FD4F208311968C91119789
:1015C000818312968C9182837F5F872F90E04817EA
:1015D0005907F4F6615060930A0146C2FA0120816E
:1015E0008181F0E88F9FC0011124820F911D009727
:1015F00021F090939A028093990280919B0281112D
:1016000033C20E94600830C234E0361708F02CC2A2
:10161000FA01D080C180B280A38094808EEF8D0DBE
:101620008C3008F021C2ED2CF12CB7016250710909
:101630008B01000F111F060F171F0B581D4FC801FC
:101640000E940D10882319F0C8010E94670FF0E86E
:101650009F9E900111242A0D311D80E8B89EA001A3
:1016600011244C0D511DB701C8010E94E30E64E026
:1016700070E08D2D0E944007F7C191E0961708F0A9
:10168000F3C1FA0120818181F0E88F9FC00111240C
:10169000820F911D90930C0180930B010A970CF01F
:1016A000E3C18AE090E090930C0180930B01DCC1D0
:1016B00031E0361708F0D8C1FA01618170E0F2E03C
:1016C000FF16A9F0FA012281F0E82F9F9001112462
:1016D000622B732B33E0F31651F0FA01838190E013
:1016E00090E4899F902D88271124682B792BF8018D
:1016F00080810E94AB06B8C160EF70E08BE294E09D
:101700000E94E5066CE670E08BE294E00E94E5063C
:101710001EEF84EF810F883068F462E070E08BE2A6
:1017200094E00E94E5066AE070E08BE294E00E949B
:10173000E5060FC0113069F463E070E08BE294E0DD
:101740000E94E50668E070E08BE294E00E94E50606
:1017500008C08DEF810F823078F389EF810F8330DD
:1017600058F31C3060F464E070E08BE294E00E9477
:10177000E5066EE070E08BE294E00E94E50680EF03
:10178000810F823060F466E070E08BE294E00E94AA
:10179000E50661E070E08BE294E00E94E5066FE709
:1017A00070E08BE294E00E94E5061F5F1431E9F1DE
:1017B000123108F0AECF60E08BE294E00E94FD159C
:1017C00061E070E08BE294E00E94E50661E08BE26C
:1017D00094E00E94FD1561E070E08BE294E00E94CD
:1017E000E50665E78BE294E00E94FD1561E070E09C
:1017F0008BE294E00E94E5068CCF662309F434C1A5
:10180000FA01008160EF70E08BE294E00E94E5064F
:101810006EE670E08BE294E00E94E506602F8BE2BA
:1018200094E00E94FD15063138F067EF70E08BE21E
:1018300094E00E94E50618C110E0F801E55FFC4F56
:1018400060818BE294E00E94FD15000F111FC8011A
:1018500084529D4F7C01FC01608171816F777727F5
:101860008BE294E00E94E506F70160817181CB0173
:101870008078892B51F0660F672F661F770B6F7783
:1018800077278BE294E00E94E506F801E452FD4FD1
:1018900060817181CB018827907C892B31F2770F91
:1018A000660B770F762F661F6F7777278BE294E0B2
:1018B0000E94E506BACF60EF70E08BE294E00E94F0
:1018C000E5066AE670E08BE294E00E94E50602EF2E
:1018D0001FEF083010F4B80102C06FE770E08BE230
:1018E00094E00E94E5060F5F1F4F0830110589F74D
:1018F0009CCF662309F4B8C0BA018F2D0E94520D07
:10190000B3C0FA018381C28080FBC7F8D12CE12CDF
:10191000F12CFC2CEE24DD24CC249581848190FBD9
:1019200087F990E0A0E0B0E0DC0199278827C80E95
:10193000D91EEA1EFB1E9185808590FB87F9C80E93
:10194000D11CE11CF11C9781868190FB87F990E006
:10195000A0E0B0E0BA2FA92F982F8827C80ED91E73
:10196000EA1EFB1E818161E08130B1F480810E941A
:10197000E41460E0F80180810E941D1582E090E08F
:101980000E94F91361E0F80180810E941D15C601D3
:101990000E94F91360E011C0FA0180810E941D15B8
:1019A00082E090E00E94F91360E0F80180810E94DB
:1019B0001D15C6010E94F91361E0F80180810E94A3
:1019C0001D15F8018385228580FB27F9822F90E081
:1019D000A0E0B0E0582F442733272227958584853F
:1019E00090FB87F990E0A0E0B0E0DC019927882720
:1019F000280F391F4A1F5B1F9189808990FB87F947
:101A0000280F311D411D511D9785868590FB87F953
:101A100090E0A0E0B0E0BA2FA92F982F8827280FD8
:101A2000391F4A1F5B1F60E080812E833F834887F8
:101A300059870E94E4142E813F8148855985F80119
:101A4000618180810E945315F801208129839A8346
:101A50008B837C836D839E012F5F3F4F45E065E75D
:101A60008AE192E00E94380429960FB6F894DEBF0E
:101A70000FBECDBFDF91CF911F910F91FF90EF90DF
:101A8000DF90CF90BF90AF909F90089589E293E050
:101A90000E94340189E293E00C94410189E293E0D1
:101AA0000C944101CF92DF92EF92FF92CF93DF939C
:101AB000FB018081823009F446C070F4813009F066
:101AC00097C0618189E293E0DF91CF91FF90EF9021
:101AD000DF90CF900C940402833009F449C0843025
:101AE00009F086C0C280D12CE12CF12CA7E0CC0CEF
:101AF000DD1CEE1CFF1CAA95D1F7838190E0A0E0CD
:101B0000B0E0CEE0880F991FAA1FBB1FCA95D1F77E
:101B1000C80ED91EEA1EFB1E8181C80ED11CE11C15
:101B2000F11C848190E0A0E0B0E0D5E1880F991F1E
:101B3000AA1FBB1FDA95D1F7C80ED91EEA1EFB1EDD
:101B4000C0E0D0E008C0DF91CF91FF90EF90DF9030
:101B5000CF900C944E0DA7019601BE0189E293E04F
:101B60000E942E022196C11581E0D807A1F740C03E
:101B7000248130E040E050E087E0220F331F441F13
:101B8000551F8A95D1F7858190E0A0E0B0E06EE026
:101B9000880F991FAA1FBB1F6A95D1F7280F391FFD
:101BA0004A1F5B1F8381280F311D411D511D8681F6
:101BB00090E0A0E0B0E075E1880F991FAA1FBB1F5D
:101BC0007A95D1F7280F391F4A1F5B1F82816181E7
:101BD00070E090E8899F600D711D112489E293E007
:101BE000DF91CF91FF90EF90DF90CF900C942E0279
:101BF000DF91CF91FF90EF90DF90CF90089523E099
:101C000046E060E071E089E293E00C94D60089E25E
:101C100093E00C9425011F920F920FB60F9211249E
:101C20002F933F934F935F936F937F938F939F93E4
:101C3000AF93BF93EF93FF9380913D0387FF05C060
:101C400010928500109284001AC020913D03332722
:101C500027FD309580913C0390E0281739077CF4EC
:101C600080913D03992787FD9095FC01EE0FFF1FA2
:101C7000E80FF91FE25CFC4F808186FD15C0809162
:101C80003D038F5F80933D0320913D03332727FD64
:101C9000309580913C0390E028173907BCF480917F
:101CA0003D038C305CF112C080913D03992787FD84
:101CB0009095FC01EE0FFF1FE80FF91FE25CFC4F4F
:101CC000808160E08F730E941D15D9CF80918400C0
:101CD00090918500049680349C4918F480E49CE936
:101CE00005C08091840090918500049690938900AE
:101CF000809388008FEF80933D0338C0209184004B
:101D00003091850080913D03992787FD9095FC01D6
:101D1000EE0FFF1FE80FF91FE25CFC4F81819281FB
:101D2000820F931F909389008093880080913D03D8
:101D3000992787FD9095FC01EE0FFF1FE80FF91F13
:101D4000E25CFC4F808186FF11C080913D039927A2
:101D500087FD9095FC01EE0FFF1FE80FF91FE25C75
:101D6000FC4F808161E08F730E941D15FF91EF9100
:101D7000BF91AF919F918F917F916F915F914F91A3
:101D80003F912F910F900FBE0F901F9018952091AB
:101D90003C032C30A0F431E0320F30933C03FC01C3
:101DA0002083822F90E0FC01EE0FFF1FE80FF91F48
:101DB000E25CFC4F88EB9BE09283818308952FEFD8
:101DC000FC0120830895DF92EF92FF920F931F93FF
:101DD000CF93DF93EC01D62E7A01890188818C3074
:101DE00008F066C061E08D2D0E94E4148881A82F60
:101DF000B0E0FD01EE0FFF1FEA0FFB1FE25CFC4F9E
:101E00002D2D2F739081907C922B908360E272E055
:101E10006E197F0977FF02C06D5F7F4F75956795DB
:101E200075956795698340E659E0401B510B57FF54
:101E300002C04D5F5F4F55954795559547954A832D
:101E40006CE00E94F9179CE0899FB001112420E00A
:101E500030E0A901460F571FFA01EE0FFF1FE40FF4
:101E6000F51FE25CFC4F908196FD16C02F5F3F4F3F
:101E70002C30310571F781110FC01092800082E083
:101E8000809381001092850010928400B19A809115
:101E90006F00826080936F00888190E0FC01EE0FFC
:101EA000FF1FE80FF91FE25CFC4F80818064808394
:101EB0008881DF91CF911F910F91FF90EF90DF907C
:101EC000089520E639E040E252E00C94E30EFC0174
:101ED000808190E0FC01EE0FFF1FE80FF91FE25C2C
:101EE000FC4F80818F7B80830895FC0180818C3042
:101EF00070F5918128E830E0291B310997FD339571
:101F0000220F331F220F331F621773077CF0928159
:101F100028E532E0291B310997FD3395220F331F45
:101F2000220F331F621773070CF49B0122503109F3
:101F3000220F331F4FB7F89490E0FC01EE0FFF1F04
:101F4000E80FF91FE25CFC4F328321834FBF0895F5
:101F50004F925F926F927F92AF92BF92CF92DF9239
:101F6000EF92FF920F931F93CF93DF93EC016032B8
:101F700082E078070CF040C077FD06C0653B710534
:101F80002CF064EB70E002C060E070E0898128E82A
:101F900030E0281B310987FD3395220F331F220FB4
:101FA000331F5901CC24B7FCC094DC2C882777FD63
:101FB0008095982F2A8148E552E0421B510927FD60
:101FC0005395440F551F440F551F2A01662457FC93
:101FD0006094762C7F926F925F924F9214EBE12E79
:101FE000F12C00E010E020E030E0A9010E94911700
:101FF0000F900F900F900F90CE01DF91CF911F9116
:102000000F91FF90EF90DF90CF90BF90AF907F90B7
:102010006F905F904F900C94750FFC01808190E061
:10202000FC01EE0FFF1FE80FF91FE25CFC4F8081FF
:1020300086FB882780F908958091920390E0209193
:102040009303821B91090895209193038091920339
:10205000281750F4E22FF0E0EC56FC4F808190E01E
:102060002F5F2093930308958FEF9FEF0895E091E2
:10207000930380919203E81730F4F0E0EC56FC4FA4
:10208000808190E008958FEF9FEF08950895CF929B
:10209000DF92EF92FF920F931F93CF93DF937C0118
:1020A000CB018A0120916E03222389F0EB016B01A1
:1020B000C40ED51ECC15DD0569F06991D701ED91EF
:1020C000FC910190F081E02DC7010995F3CF642FB9
:1020D0000E940212C801DF91CF911F910F91FF90D2
:1020E000EF90DF90CF900895CF93DF931F92CDB7FD
:1020F000DEB7698320916E032223D1F020916F0314
:10210000203240F021E030E0FC013383228380E084
:1021100090E015C080917003E82FF0E0EF58FC4F7D
:10212000998190838F5F8093700380936F0305C0C4
:1021300061E0CE0101960E94021281E090E00F90D2
:10214000DF91CF910895FC011382128248EE53E093
:1021500060E070E044835583668377838DEF91E080
:1021600091838083089510929303109292031092AA
:10217000700310926F030C94451181E080936E03FD
:10218000609391031092700310926F0308950F9360
:10219000062F21E040916F0361E773E08091910386
:1021A0000E94AB111092700310926F0310926E0395
:1021B0000F9108958F929F92AF92BF92CF92DF922C
:1021C000EF92FF920F931F93CF93DF93EC01F62EC4
:1021D000D42E48015901EE2019F10E94BD101E2D88
:1021E000143008F013E01150B8F0E881F98128E0CC
:1021F000129FB0011124A501940104C05695479582
:10220000379527956A95D2F7CA01B9010190F081F7
:10221000E02DCE010995E7CF60E0CE010E94C71006
:102220004D2D413208F040E22C2D64E973E08F2DF2
:102230000E9463111092930380939203DF91CF91D8
:102240001F910F91FF90EF90DF90CF90BF90AF90D4
:102250009F908F900895CF92EF920F931F93C22E6D
:10226000E12C00E010E098010E94DA101F910F911C
:10227000EF90CF90089521E00C942B1161E00C9425
:10228000C71082E693E00C94A3101092210481E021
:1022900080931F0410921E0461E082E10E941D15CC
:1022A00061E083E10E941D15E9EBF0E080818E7F03
:1022B000808380818D7F808388E48093B80085E46B
:1022C0008093BC000895413208F043C090912104EE
:1022D0009111FCCF91E09093210420931F042FEFE4
:1022E0002093B4031092F903240F2093F8039093E2
:1022F000200490912004880F892B809320048091E2
:102300001E04813061F410921E0480912004809399
:10231000BB008091BC0083FDF8CF85EC01C085EE49
:102320008093BC00809121048130E1F38091F90316
:10233000841710F44091F9032AEF33E0FB01D9012F
:102340008A2F821B841718F48D918193F9CF842FE3
:10235000089580E008950F93413208F04AC09091AB
:1023600021049111FCCF92E09093210400931F046B
:102370009FEF9093B4031092F9034093F803FB018D
:102380006AEF73E0DB019A2F961B941718F4919172
:102390009D93F9CF1092200490912004880F892BEF
:1023A0008093200480911E04813061F410921E04F9
:1023B000809120048093BB008091BC0083FDF8CF06
:1023C00085EC01C085EE8093BC00222321F0809132
:1023D00021048230E1F38091B4038F3F61F080915A
:1023E000B403803251F08091B403803341F483E030
:1023F00007C081E005C080E003C082E001C084E046
:102400000F910895613298F420912104243089F4C9
:102410006093D603FC0188ED93E0DC012A2F281B92
:10242000261718F421912D93F9CF80E0089581E0CB
:10243000089582E0089585ED8093BC008091BC00F2
:1024400084FDFCCF10922104089585EC8093BC009C
:102450001092210408951F920F920FB60F9211242B
:102460002F933F934F935F936F937F938F939F939C
:10247000AF93BF93EF93FF938091B900887F80362D
:1024800009F49EC078F5883209F45DC090F480317B
:1024900009F456C038F4882309F4F5C0883009F4EB
:1024A0004FC0F5C0883109F44EC0803209F45FC0D6
:1024B000EEC0803409F46AC058F4803309F457C080
:1024C000883309F0E4C08093B4030E942512DFC072
:1024D000803509F44FC0883509F45DC0883409F0AF
:1024E000D6C0D3C0883909F4C4C0A8F4883709F429
:1024F00067C038F4883609F463C0803709F460C0D7
:10250000C6C0883809F4B5C0803909F45FC0803886
:1025100009F0BDC05BC0803B09F483C038F4803A49
:1025200009F466C0883A09F47CC0B1C0803C09F463
:10253000A4C0883C09F4A1C0883B09F487C0A7C0A7
:102540008091200410C09091F9038091F8039817AE
:1025500070F5E091F90381E08E0F8093F903F0E0CC
:10256000E650FC4F80818093BB0085EC83C0809354
:10257000B4038BC0E091F90381E08E0F8093F903DF
:102580008091BB00F0E0E650FC4F80839091F9030E
:102590008091F8036BC0E091F90381E08E0F809386
:1025A000F9038091BB00F0E0E650FC4F80838091FE
:1025B0001F0481116AC081E080931E0484EA5EC01A
:1025C00083E0809321041092B503CFCF8091B503AF
:1025D000803208F04EC0E091B50381E08E0F809309
:1025E000B5038091BB00F0E0EA54FC4F8083BDCF7F
:1025F0000E9425128091B503803230F4E091B5033A
:10260000F0E0EA54FC4F10826091B50370E0E09175
:102610001A04F0911B0486EB93E009951092B50320
:1026200036C084E0809321041092D7031092D60321
:10263000E0911C04F0911D0409958091D60381114D
:1026400005C081E08093D6031092D803E091D703B0
:1026500081E08E0F8093D703F0E0E852FC4F808139
:102660008093BB009091D7038091D603981708F40C
:102670007CCF85E88093BC000AC085EC8093BC00C9
:102680001092210404C01092B4030E941B12FF9107
:10269000EF91BF91AF919F918F917F916F915F91DA
:1026A0004F913F912F910F900FBE0F901F90189553
:1026B0001F920F920FB60F9211242F933F938F9377
:1026C0009F93AF93BF938091230490912404A09192
:1026D0002504B09126043091220423E0230F2D37E6
:1026E00020F40196A11DB11D05C026E8230F029616
:1026F000A11DB11D209322048093230490932404F0
:10270000A0932504B0932604809127049091280477
:10271000A0912904B0912A040196A11DB11D8093B6
:10272000270490932804A0932904B0932A04BF910E
:10273000AF919F918F913F912F910F900FBE0F906E
:102740001F9018952FB7F89460912304709124047A
:1027500080912504909126042FBF08953FB7F894E7
:102760008091270490912804A0912904B0912A0413
:1027700026B5A89B05C02F3F19F00196A11DB11DDC
:102780003FBF6627782F892F9A2F620F711D811DF9
:10279000911D42E0660F771F881F991F4A95D1F758
:1027A0000895CF92DF92EF92FF92CF93DF936B0168
:1027B0007C010E94AE13EB01C114D104E104F104C9
:1027C00089F00E94E8170E94AE136C1B7D0B683ED7
:1027D000734090F381E0C81AD108E108F108C851AC
:1027E000DC4FEACFDF91CF91FF90EF90DF90CF9059
:1027F00008958230910538F0880F991F880F991F2E
:1028000005970197F1F70895789484B5826084BDA7
:1028100084B5816084BD85B5826085BD85B58160E4
:1028200085BDEEE6F0E0808181608083E1E8F0E044
:102830001082808182608083808181608083E0E873
:10284000F0E0808181608083E1EBF0E08081846052
:102850008083E0EBF0E0808181608083EAE7F0E054
:1028600080818460808380818260808380818160B8
:1028700080838081806880831092C10008958E30AB
:1028800008F08E50877020910D0190E4299F9001EF
:102890001124822B80937C0080917A008064809345
:1028A0007A0080917A0086FDFCCF8091780020919B
:1028B000790090E0922B08951F93CF93DF93182F08
:1028C000EB0161E00E94E414209711F460E004C081
:1028D000CF3FD10539F461E0812FDF91CF911F9176
:1028E0000C941D15E12FF0E0E859FF4FE491E3301F
:1028F000F9F048F4E130B9F0E230A1F584B5806236
:1029000084BDC8BD34C0E730E9F0E83019F1E430E7
:1029100049F580918000806280938000D0938B0085
:10292000C0938A0024C084B5806884BDC7BD1FC021
:1029300080918000806880938000D0938900C0934C
:10294000880015C08091B00080688093B000C0936B
:10295000B3000DC08091B00080628093B000C0933E
:10296000B40005C0C038D1050CF0B5CFAFCFDF91B2
:10297000CF911F910895833081F028F4813099F030
:102980008230A1F008958730A9F08830B9F0843002
:10299000D1F4809180008F7D03C0809180008F777B
:1029A00080938000089584B58F7702C084B58F7DB1
:1029B00084BD08958091B0008F7703C08091B000EE
:1029C0008F7D8093B0000895CF93DF9390E0FC015A
:1029D000E458FF4F2491FC01E057FF4F8491882376
:1029E00049F190E0880F991FFC01E854FF4FA59131
:1029F000B49182559F4FFC01C591D4919FB761114D
:102A000008C0F8948C91209582238C93888182232E
:102A10000AC0623051F4F8948C91322F30958323A0
:102A20008C938881822B888304C0F8948C91822BAC
:102A30008C939FBFDF91CF9108950F931F93CF93F6
:102A4000DF931F92CDB7DEB7282F30E0F901E859A8
:102A5000FF4F8491F901E458FF4F1491F901E057B9
:102A6000FF4F04910023C9F0882321F069830E945D
:102A7000BB146981E02FF0E0EE0FFF1FE255FF4F1E
:102A8000A591B4919FB7F8948C91611103C01095F2
:102A9000812301C0812B8C939FBF0F90DF91CF9139
:102AA0001F910F9108950F931F93762F90E0FC01D3
:102AB000E458FF4F6491FC01E057FF4FE49171111E
:102AC000762FF0E0EE0FFF1FEC55FF4F85919491AC
:102AD00089019A013F70472F0E949100611571058D
:102AE0008105910531F06F5F7F4F8F4F9F4F9F7032
:102AF00003C060E070E0CB011F910F910895FC01CD
:102B0000818D228D90E0805C9F4F821B91098F7395
:102B100099270895FC01918D828D981731F0828D4F
:102B2000E80FF11D858D90E008958FEF9FEF0895D8
:102B3000FC01918D828D981761F0828DDF01A80FC5
:102B4000B11D5D968C91928D9F5F9F73928F90E0E7
:102B500008958FEF9FEF08958CE197E1892B49F05D
:102B600080E090E0892B29F00E941C1781110C94C1
:102B700000000895FC01848DDF01A80FB11DA35A48
:102B8000BF4F2C91848D90E001968F739927848F8D
:102B9000A689B7892C93A089B1898C9180648C9384
:102BA000938D848D981306C00288F389E02D80816F
:102BB0008F7D80830895CF93DF93EC01888D8823E8
:102BC000C9F0EA89FB89808185FD05C0A889B9899A
:102BD0008C9186FD0FC00FB607FCF5CF808185FF75
:102BE000F2CFA889B9898C9185FFEDCFCE010E94E3
:102BF000BA15E7CFDF91CF910895CF92DF92FF9280
:102C00000F931F93CF93DF931F92CDB7DEB76C0165
:102C100081E0D60158968C9358975B969C915B9770
:102C20005C968C915C97981307C05096ED91FC913F
:102C30005197808185FD2EC0F601038D10E00F5F56
:102C40001F4F0F731127F02EF601848DF81211C05B
:102C50000FB607FCF9CFD6015096ED91FC91519734
:102C6000808185FFF1CFC60169830E94BA15698111
:102C7000EBCF838DE80FF11DE35AFF4F6083D60140
:102C80005B960C935B975296ED91FC9153978081E4
:102C900080620CC0D6015696ED91FC9157976083E7
:102CA0005096ED91FC91519780818064808381E002
:102CB00090E00F90DF91CF911F910F91FF90DF90E7
:102CC000CF900895BF92CF92DF92EF92FF92CF9371
:102CD000DF93EC016A017B01B22EE889F98982E079
:102CE0008083411581EE580761057105A1F060E010
:102CF00079E08DE390E0A70196010E94051821502C
:102D00003109410951095695479537952795211560
:102D100080E1380798F0E889F989108260E874E862
:102D20008EE190E0A70196010E940518215031091B
:102D3000410951095695479537952795EC85FD85AD
:102D40003083EE85FF852083188EEC89FD89B08263
:102D5000EA89FB89808180618083EA89FB8980819F
:102D600088608083EA89FB89808180688083EA8922
:102D7000FB8980818F7D8083DF91CF91FF90EF90E1
:102D8000DF90CF90BF9008951F920F920FB60F92D1
:102D900011242F938F939F93EF93FF93E0913B0424
:102DA000F0913C048081E0914104F091420482FD65
:102DB00012C09081809144048F5F8F7320914504ED
:102DC000821751F0E0914404F0E0E55DFB4F958FF0
:102DD0008093440401C08081FF91EF919F918F9176
:102DE0002F910F900FBE0F901F9018951F920F926A
:102DF0000FB60F9211242F933F934F935F936F93CE
:102E00007F938F939F93AF93BF93EF93FF938BE247
:102E100094E00E94BA15FF91EF91BF91AF919F91FD
:102E20008F917F916F915F914F913F912F910F9073
:102E30000FBE0F901F9018958BE294E00E947F15B3
:102E400021E0892B09F420E0822F089510922E04AE
:102E500010922D0488EE93E0A0E0B0E080932F0460
:102E600090933004A0933104B09332048DE092E04B
:102E700090932C0480932B0485EC90E0909338047D
:102E80008093370484EC90E090933A048093390463
:102E900080EC90E090933C0480933B0481EC90E0C4
:102EA00090933E0480933D0482EC90E09093400424
:102EB00080933F0486EC90E0909342048093410419
:102EC0001092440410924504109246041092470454
:102ED0000895CF92DF92EF92FF920F931F93CF93BB
:102EE000DF937C016A01EB0100E010E00C151D0589
:102EF00071F06991D701ED91FC910190F081E02D85
:102F0000C7010995892B19F00F5F1F4FEFCFC8013B
:102F1000DF91CF911F910F91FF90EF90DF90CF90B5
:102F200008954F925F926F927F92AF92BF92CF922D
:102F3000DF92EF92FF920F931F93CF93DF93CDB762
:102F4000DEB729013A01621B730B840B950B2989AB
:102F50003A894B895C892A193B094C095D09298BFF
:102F60003A8B4B8B5C8B9B01AC0169897A898B898D
:102F70009C890E94E917E418F50806091709A801B9
:102F800097010E9427182A0D3B1D4C1D5D1DCA018B
:102F9000B901DF91CF911F910F91FF90EF90DF90DA
:102FA000CF90BF90AF907F906F905F904F900895BB
:102FB00008950E9404140E94D8170E94A408CCEA25
:102FC000D5E10E9462092097E1F30E94AC15F9CF88
:102FD0000895DB018F939F930E944618BF91AF9194
:102FE000A29F800D911DA39F900DB29F900D112463
:102FF0000895991B79E004C0991F961708F0961B55
:10300000881F7A95C9F780950895A1E21A2EAA1B08
:10301000BB1BFD010DC0AA1FBB1FEE1FFF1FA21788
:10302000B307E407F50720F0A21BB30BE40BF50B85
:10303000661F771F881F991F1A9469F7609570950E
:10304000809590959B01AC01BD01CF010895052E9F
:1030500097FB1EF400940E943E1857FD07D00E9473
:10306000051807FC03D04EF40C943E18509540957B
:10307000309521953F4F4F4F5F4F08959095809524
:10308000709561957F4F8F4F9F4F08950E945718FD
:10309000A59F900DB49F900DA49F800D911D1124AC
:1030A0000895EE0FFF1F0590F491E02D0994A29F63
:1030B000B001B39FC001A39F700D811D1124911D0C
:1030C000B29F700D811D1124911D0895CF93DF9340
:1030D0008230910510F482E090E0E091CA04F09112
:1030E000CB0420E030E0A0E0B0E0309739F140813F
:1030F000518148175907B8F04817590771F4828170
:103100009381109729F013969C938E9312972CC05D
:103110009093CB048093CA0427C02115310531F068
:103120004217530718F0A901DB0101C0EF019A0112
:10313000BD01DF010280F381E02DD7CF21153105DC
:10314000F9F0281B390B2430310580F48A819B81EA
:103150006115710521F0FB019383828304C0909374
:10316000CB048093CA04FE01329644C0FE01E20FF4
:10317000F31F8193919322503109398328833AC0F8
:103180002091C8043091C904232B41F420910201FD
:10319000309103013093C9042093C80420910001A9
:1031A000309101012115310541F42DB73EB7409111
:1031B000040150910501241B350BE091C804F091E6
:1031C000C904E217F307A0F42E1B3F0B2817390799
:1031D00078F0AC014E5F5F4F2417350748F04E0F73
:1031E0005F1F5093C9044093C8048193919302C018
:1031F000E0E0F0E0CF01DF91CF910895CF93DF932E
:10320000009709F487C0FC01329713821282C091A3
:10321000CA04D091CB04209781F420813181280FFA
:10322000391F8091C8049091C9048217930779F5DA
:10323000F093C904E093C8046DC0DE0120E030E0E3
:10324000AE17BF0750F412964D915C9113979D01F4
:103250004115510509F1DA01F3CFB383A28340810F
:103260005181840F951F8A179B0771F48D919C9152
:103270001197840F951F02969183808312968D91EA
:103280009C911397938382832115310529F4F09340
:10329000CB04E093CA043EC0D9011396FC93EE938D
:1032A00012974D915D91A40FB51FEA17FB0779F4B2
:1032B00080819181840F951F0296D90111969C936C
:1032C0008E938281938113969C938E931297E0E064
:1032D000F0E08A819B81009719F0FE01EC01F9CFA3
:1032E000CE01029628813981820F931F2091C80454
:1032F0003091C9042817390769F4309729F41092DE
:10330000CB041092CA0402C013821282D093C90463
:10331000C093C804DF91CF910895DC0101C06D9383
:1033200041505040E0F70895FB01DC01415050400E
:1033300048F001900D920020C9F701C01D92415044
:103340005040E0F70895FC0181E090E001900616FE
:1033500009F4CF010020D1F701970895FB015191A5
:103360005523A9F0BF01DC014D9145174111E1F74B
:1033700059F4CD010190002049F04D9140154111C3
:10338000C9F3FB014111EFCF81E090E0019708956F
:1033900010E0CCECD0E004C0FE010E94531822964D
:0A33A000CE3CD107C9F7F894FFCF27
:1033AA000000CC04800001000000FF1300012E631E
:1033BA00707000556E6B6E6F776E2070696E206D3F
:1033CA006F6465002F55736572732F616A6669733E
:1033DA006865722F6465762F746D702F6D626F74D5
:1033EA005F6E6F6465626F74732F6669726D776161
:1033FA0072652F6275696C642F7573622F6D626FC7
:10340A00744669726D6174612F6D626F7446697278
:10341A006D6174612E696E6F004932432052656195
:10342A0064204572726F723A20546F6F206D616E1C
:10343A00792062797465732072656365697665645B
:10344A00004932432052656164204572726F723AB4
:10345A0020546F6F206665772062797465732072D5
:10346A00656365697665640031302D62697420612F
:10347A00646472657373696E67206E6F7420737506
:10348A0070706F7274656400746F6F206D616E790D
:10349A002071756572696573000000000074104739
:1034AA00101C1024103710461000000000FD15698A
:0A34BA00177F1598158A15DB150021
:00000001FF
