:100000000C9473000C949B000C949B000C949B002C
:100010000C949B000C949B000C949B000C949B00F4
:100020000C949B000C949B000C949B000C9412105D
:100030000C949B000C949B000C949B000C949B00D4
:100040000C945F150C949B000C94DD180C940F1904
:100050000C949B000C949B000C949B000C949B00B4
:100060000C9432140C949B009108BC088508C908B4
:10007000DF080309FD080309030903092109A3088F
:100080000000000800020100000304070000000057
:100090000000000001020408102040800102040852
:1000A00010200102040810200404040404040404C1
:1000B0000202020202020303030303030000000022
:1000C00023002600290000000000250028002B0046
:1000D00000000000240027002A00DE04CE09F40FEF
:1000E00048133F19031011241FBECFEFD8E0DEBF25
:1000F000CDBF12E0A0E0B1E0ECEDF7E302C0059067
:100100000D92A232B107D9F725E0A2E2B2E001C018
:100110001D92A339B207E1F710E0C4EED0E004C0AD
:100120002297FE010E94611ACA3DD107C9F70E94B9
:10013000F2190C94E11B0C940000CF92DF92EF9225
:10014000FF920F931F93E82FF92F05C0015011095B
:100150002109310961F1908196239417B9F305C003
:10016000015011092109310911F19081962394134D
:10017000F7CFC12CD12CE12CF12C0AC08FEFC81A7B
:10018000D80AE80AF80A0C151D052E053F0579F076
:1001900080818623841791F36C2D7D2D8E2D9F2DCC
:1001A0001F910F91FF90EF90DF90CF90089560E046
:1001B00070E080E090E01F910F91FF90EF90DF9052
:1001C000CF9008950F931F93CF93DF93EC018B0192
:1001D00088819981DC01ED91FC916F770190F0812C
:1001E000E02D099588819981DC01ED91FC91B801A0
:1001F000660F672F661F770B6F770190F081E02DF8
:10020000DF91CF911F910F910994DC018D919C9109
:10021000DC01ED91FC910190F081E02D60EF0994FB
:10022000DC018D919C91DC01ED91FC910190F081BC
:10023000E02D67EF0994CF93DF93EC0188819981DA
:10024000DC01ED91FC910190F081E02D69EF0995C1
:1002500088819981DC01ED91FC910190F081E02D84
:1002600062E0099588819981DC01ED91FC91019012
:10027000F081E02D65E0DF91CF9109941F93CF933A
:10028000DF93EC018A818823D9F1CE010E94050118
:1002900088819981DC01ED91FC910190F081E02D44
:1002A00069E7099588819981DC01ED91FC91AB8129
:1002B000BC810190F081E02D6C9109958881998134
:1002C000DC01ED91FC91AB81BC810190F081E02DCE
:1002D00011966C91099512E08A81181758F4EB81F8
:1002E000FC81E10FF11D608170E0CE010E94E2000F
:1002F0001F5FF2CFCE01DF91CF911F910C941001BF
:10030000DF91CF911F910895CF92DF92EF92FF92EC
:100310000F931F93CF93DF938C01EB01C42ED22E4A
:100320006EE071E0CE010E94C71B7C016FE270E0BD
:10033000CE010E94BC1B009739F46CE570E0CE0141
:100340000E94BC1B009711F0EC012196E114F1040E
:1003500051F4FE0101900020E9F7EC1BEF5FD8019A
:100360001296EC9306C0EC1AFD0AE394E394F801AC
:10037000E282D80113968D919C9114970E94171BCD
:10038000F801E280F12CC70101960E947F1AD80182
:1003900014969C938E931397FC01EE0DFF1D108213
:1003A000FC01C082D18212964C9150E0425051091A
:1003B000BE010296DF91CF911F910F91FF90EF90B8
:1003C000DF90CF900C94AD1BDC018D919C91DC01F2
:1003D000ED91FC910480F581E02D09940F931F931A
:1003E000CF93DF93FC012085213749F0293709F0AD
:1003F00049C0DF91CF911F910F910C943E01FC01F8
:10040000E556FF4F0190F081E02D309709F450C080
:10041000DC01A75BBF4F4D915C919A0121503109DE
:1004200037FD9A01B90175956795062F40E050E0B8
:1004300020E030E04E5F5F4F2017A0F4EC01C40FC6
:10044000D51F1F81DC01A20FB31F18961C931897AC
:10045000C885D0E8CD9F1019112418961C932F5FE2
:100460003F4FE8CFDC01A60FB11D17962C911797CF
:10047000222311F018961C920896DF91CF911F91BC
:100480000F910994FC01E356FF4F0190F081E02D9C
:10049000309771F0AC01475F5F4FDC01A75BBF4F46
:1004A0006C916150822FDF91CF911F910F91099430
:1004B000DF91CF911F910F9108950F931F93CF93C9
:1004C000DF93EC018A0188819981DC01ED91FC9137
:1004D0006F70606E0190F081E02D0995B801CE013A
:1004E000DF91CF911F910F910C94E2000F931F9316
:1004F000CF93DF93EC018A0188819981DC01ED9132
:10050000FC916F7060690190F081E02D0995888100
:100510009981DC01ED91FC91602F6F770190F08162
:10052000E02D099588819981DC01ED91FC91B8015C
:10053000660F672F661F770B0190F081E02DDF912A
:10054000CF911F910F910994CF92DF92EF92FF927A
:100550000F931F93CF93DF9300D01F92CDB7DEB7D9
:100560008C01F42E2A833B8369830E940501D80104
:100570008D919C91DC01ED91FC910190F081E02D39
:10058000698109952A81E22EC22E3B81D32E8C2DC2
:100590008E198F1540F4F60161916F0170E0C8016A
:1005A0000E94E200F4CFC8010F900F900F90DF91EE
:1005B000CF911F910F91FF90EF90DF90CF900C940F
:1005C00010019A01613751F4FA0101900020E9F716
:1005D0003197E41BF50B4E2F0C94A4020895AB0148
:1005E00061E70C94E102DC018D919C91DC01ED91BD
:1005F000FC910190F081E02D0994603DC1F028F458
:10060000603969F0603C79F00895643FA1F0653F7E
:10061000B1F0603EC9F4FC01E357FF4F13C0FC0189
:10062000E157FF4F0FC0FC01EF56FF4F0BC0FC011D
:10063000ED56FF4F07C0FC01EB56FF4F03C0FC0116
:10064000E956FF4F5183408308956F3F29F4FC0121
:10065000E756FF4F51834083089583569F4FFC0117
:10066000518340830895860F911DFC01E55BFF4F88
:1006700080810895860F911DFC01E55BFF4F80810D
:100680008F3709F040830895860F911D860F911DC5
:10069000FC01EF59FF4F808191810895860F911DD4
:1006A000860F911DFC01EF59FF4F51834083089540
:1006B000FC0115821682178280E090E0DF01A80F0E
:1006C000B91F18961C92019680349105B9F7DF0185
:1006D000A85BBF4F1C9211961D921C92E756FF4FCC
:1006E0000190F081E02D309709F009940895FC0104
:1006F000E156FF4F1082FC011282148213820C9487
:100700005803CF93DF93EC01FC01E85BFF4F80813E
:100710008823A1F0673F31F41082CE01DF91CF91A1
:100720000C94EE01FE01E75BFF4F80819181C80FC1
:10073000D91F688701969183808398C08D81882313
:1007400009F452C067FD50C081508D83FE01E80F4F
:10075000F11D608781118AC08E81882309F486C0CB
:10076000803DA1F140F4803981F0803CD9F5FE0153
:10077000EF56FF4F2EC0843FC9F0853FD9F0803E31
:1007800089F5FE01E357FF4F03C0FE01E157FF4F1C
:100790000190F081E02D309729F18885698570E01E
:1007A00090E8899F600D711D11241AC0FE01EB565F
:1007B000FF4F03C0FE01E956FF4F0190F081E02D8D
:1007C000309781F0688570E089850BC0FE01ED5699
:1007D000FF4F0190F081E02D309721F0688570E0A7
:1007E0008F8109951E8242C0862F603F28F4807F4A
:1007F00090E06F706F8301C090E0803F910549F1F8
:100800007CF4803C910509F124F480399105D9F0FC
:100810002DC0803D9105C9F0803E9105A1F026C014
:10082000893F9105E9F03CF49C01245F31092230B5
:10083000310548F01BC08F3F9105C1F4CE01DF9117
:10084000CF910C94580392E001C091E09D838E8378
:100850000DC081E08083C75BDF4F1982188206C01C
:1008600082E292E0DF91CF910C941B01DF91CF9156
:100870000895CF93DF93EC0188819981DC01ED919C
:10088000FC910680F781E02D09958F3FBFEF9B0714
:1008900031F0682FCE01DF91CF910C948103DF916D
:1008A000CF9108957F928F929F92AF92BF92CF92F5
:1008B000DF92EF92FF920F931F93CF93DF93762EE9
:1008C000EA01680110E0EE24D7FCE094FE2C490117
:1008D000AA2497FCA094BA2C212F30E02C173D07B6
:1008E00094F4C701B6010E94D81561E0872D0E94DB
:1008F0003617C501B4010E94D81560E0872D0E940B
:1009000036171F5FE9CFDF91CF911F910F91FF90B5
:10091000EF90DF90CF90BF90AF909F908F907F909F
:1009200008950F931F93CF93DF93EC01FC01E156E1
:10093000FF4F8081811126C061E08DE00E94FD168D
:1009400002ED10E028E230E042E050E06DE0CE0140
:100950000E9452046AEF70E080E090E00E94D81597
:1009600028E230E045E050E06DE0CE010E94520404
:100970006DE770E080E090E0DF91CF911F910F91E3
:100980000C94D815DF91CF911F910F910895CF93BB
:10099000DF93EC0126E082EF94E00E947B1882EF67
:1009A00094E099838883CE010E949104CE010E9435
:1009B0001B01CE01DF91CF910C943E0182E292E0C7
:1009C0000C9477030F931F93D8019C91822F8095ED
:1009D0008923292B3FB7F894FB01460F571FE417D3
:1009E000F50781F0919168E02C9300C097FF8C93FC
:1009F000990F00C000C000C008F48C9300C06A9535
:100A000099F7EDCF3FBF78941F910F910895EF9222
:100A1000FF920F931F93CF93DF93EC017B018A81A9
:100A20009B81009711F00E94171BF982E882E11464
:100A3000F104C9F08701000F111F0E0D1F1DC80121
:100A40000E947F1A9B838A83009759F0A80160E077
:100A500070E0DF91CF911F910F91FF90EF900C9478
:100A6000A61B19821882DF91CF911F910F91FF90E1
:100A7000EF900895CF93DF93EC010E9407051D824C
:100A800081E08C8382E08E83DF91CF91089560E0D6
:100A900070E00C943A05FC01808191810895FC017D
:100AA00020813181A901440F551F420F531F60E07F
:100AB00070E0828193810C94A61BFC01808191815E
:100AC0006817790700F5CB01880F991F860F971FCC
:100AD0005481A281B381A80FB91FA50FB11D4C93FA
:100AE0004581A281B381A80FB91FA40FB11D3C930A
:100AF00036810280F381E02DE80FF91FE30FF11D2D
:100B0000208380E0089581E00895EF92FF920F9393
:100B10001F93FC01A185B2858C919385892B8C93C1
:100B2000E184F2840781108580819181AC01440FBA
:100B3000551F480F591F628173812385CF010E9481
:100B4000E2041F910F91FF90EF900895FC01158230
:100B500081E0848382E086830895FC01148281E031
:100B6000858382E086830895FC01168281E0848378
:100B700082E0858308950895DC0170E0FB01EC5666
:100B8000FF4FE4911B96EC931B9768557F4FFB0139
:100B9000249130E0220F331F2A533F4FF9018591F2
:100BA000949118969C938E931797FB016491E62F6E
:100BB000F0E0EE0FFF1FE053FF4F859194911A96DE
:100BC0009C938E93199708950F931F93CF93DF9360
:100BD0001F92CDB7DEB7182F062F8EEF810F82310F
:100BE000C0F4612F82E292E079830E94330359813D
:100BF000813079F4402F612F82E292E00E944E030F
:100C0000602F812F0F90DF91CF911F910F910C9446
:100C100036170F90DF91CF911F910F9108951F9379
:100C2000CF93DF93182FEB018631A8F5682F82E26E
:100C300092E00E9433038330F9F0843061F58EEF47
:100C4000810F823180F4E12FF0E0EF52FD4F4081BF
:100C500050E0CA01880F991F840F951FBE0189516A
:100C60009D4F0E94AF11AE01612F82E292E0DF91B1
:100C7000CF911F910C944E03133041F08BEF810FF5
:100C8000823020F087EF810F833068F7BE01812F1B
:100C90000E947516E8CFDF91CF911F910895DF92E2
:100CA000EF92FF920F931F93CF93DF93082FE62EBF
:100CB000833008F08CC0182F110F110F110F185F1F
:100CC000173108F016E1C02FCC0FCC0FCC0FD0E0BD
:100CD000FF24F394C11758F58EEF8C0F823120F565
:100CE0006C2F82E292E00E943303813039F06C2F46
:100CF00082E292E00E943303811116C0DD24D39476
:100D00008F2D8E2109F4D12C6C2F82E292E00E946B
:100D10003303813009F044C0DF294D2D50E06C2FA2
:100D200082E292E00E944E03FF0CCF5FD3CF01110D
:100D30000AC0DC7FF8949BB18D2F80958923DE213A
:100D40008D2B8BB92BC00130E1F42D2F2E21F8947F
:100D500095B18D2F8F7380958923922F9F73892B47
:100D600085B988B1E22EE294E694E69433E0E3227A
:100D7000D295D695D695D370D095D823ED2AE8B8DC
:100D80000DC0DF70F89498B18D2F880F880F809573
:100D90008923ED22EE0CEE0C8E2988B9789417C0C9
:100DA0006C2F82E292E00E9433038111B6CFDD20E6
:100DB00009F4B3CF6C2F82E292E00E9444030197C2
:100DC00009F4ABCF62E08C2F0E94FD16A6CFDF9115
:100DD000CF911F910F91FF90EF90DF900895CF93E7
:100DE000C82F883058F5409187035091880321E03F
:100DF00030E0082E02C0220F331F0A94E2F7672B5F
:100E000049F420953095242335233093880320938B
:100E1000870314C0242B352B30938803209387033A
:100E20008091C20281110AC08C2F0E945816AC0119
:100E30006C2F82E292E0CF910C945D02CF910895E5
:100E4000DB019A019091C3029C30D0F54091C4021D
:100E5000682F70E0442369F0E42FF0E0EC53FD4F7D
:100E60008081FB01EF52FD4F808341504093C402CB
:100E700007C0FB01EF52FD4F90839F5F9093C30229
:100E8000FB01EF52FD4F1A161B067CF412161306D7
:100E900064F4408150E0CA01880F991F840F951FA8
:100EA000AD0189519D4F0C94EA10208130E0C901B9
:100EB000880F991F820F931F89519D4F0C946811C1
:100EC00063E171E082E292E00C94EF02CF93DF9352
:100ED000C82FD0E0CF52DD4F288130E0C901880F04
:100EE000991F820F931F89519D4F0E946E11888117
:100EF0009091C302891306C0882379F081508093B2
:100F0000C3020BC0992349F0E091C402EF5FE09364
:100F1000C402F0E0EC53FD4F80838FEF8883DF91B4
:100F2000CF9108951F93CF93DF93162FC82FD0E052
:100F3000FE01E258FC4F90811923CF57DC4F41113D
:100F400003C09881911741F0412F50E0682F82E251
:100F500092E00E9476021883DF91CF911F9108954D
:100F6000833020F5282F30E0F901EC57FC4F6083E7
:100F7000672BE1F0F901E258FC4F9081811103C029
:100F800069B16C7F0FC0813049F463B126B140E490
:100F9000249F900111246F73622B04C066B16C739F
:100FA00066956695692341E00C94920708958091B7
:100FB0008403882349F069B180917E0368236C7FA4
:100FC00040E080E00E94920780918503882379F0B9
:100FD00063B186B120E4829FC00111246F73682B36
:100FE00080917F03682340E081E00E949207809116
:100FF0008603882359F066B16C7366956695809177
:101000008003682340E082E00C94920708951092D8
:101010000D038FEF80930A010895FF920F931F93A2
:10102000CF93DF93182FEB01682F82E292E00E94AA
:1010300033038F3709F405C1612F82E292E00E94E9
:101040003303863041F480910D03882321F0C630AC
:10105000D10509F0E3C00EEF010F0231B8F4C4303E
:10106000D105A1F0E12FF0E0EF52FD4F80818C30EF
:1010700068F490E09C01220F331F280F391FC9012B
:1010800089519D4F0E9414128111CBC0B2EFFB2EEB
:10109000F10E87E08F1550F061E070E0C230D105AD
:1010A00011F060E070E08F2D0E94EF060231E8F44D
:1010B000E12FE695E695E695812F8770F0E0E258FE
:1010C000FC4F21E030E0082E01C0220F0A94EAF71D
:1010D000209719F0CB30D10521F48081822B8083B9
:1010E00004C0209580812823208340E050E0612FB8
:1010F00082E292E00E944E03CC30D10508F083C01A
:10110000FE01EC5CFF4F0C945F1A87E08F1508F42A
:1011100098C0023120F460E0812F0E94FD1642E069
:1011200008C0023108F08DC060E0812F0E94FD16DA
:1011300040E0612F82E292E0DF91CF911F910F9109
:10114000FF900C943A03023108F07BC062E0812FDB
:101150000E94FD164BE0612F82E292E00E943A036A
:1011600041E050E0612F82E292E0DF91CF911F9148
:101170000F91FF900C944E03023108F062C060E0C2
:10118000812F0E94361761E0812F0E94FD1641E0F9
:10119000D0CF133049F08BEF810F823028F087EFEA
:1011A000810F833008F04DC061E0812F0E94FD1651
:1011B00060E070E0812F0E94751643E0BACF0231E3
:1011C00008F03FC044E0612F82E292E00E943A03BF
:1011D000E12FF0E0EF52FD4F80818F3F31F190E041
:1011E0009C01220F331F280F391FC90189519D4FC0
:1011F0000E941412811125C018C08EEE810F82301A
:1012000000F546E096CF67E271E082E292E0DF917E
:10121000CF911F910F91FF900C94EF020E9407084D
:101220001ACF812F0E94660731CF4FEF5FEF6FEF2C
:101230007FEF812FDF91CF911F910F91FF900C9441
:101240002007DF91CF911F910F91FF900895CF93C9
:10125000C0E08EEE8C0F823028F466E070E08C2FB8
:101260000E940D08CF5FC631A1F781E080930D0386
:1012700089E294E0CF910C94BA120F931F93CF930D
:10128000DF9381E08093C20280910D0381110E945F
:1012900007081092840310927E031092810310922B
:1012A000850310927F03109282031092860310929E
:1012B000800310928303C1EDD2E010E00FEF82EFC4
:1012C000810F883018F462E070E006C08EEF810F65
:1012D000823128F461E070E0812F0E940D080993AB
:1012E0001F5F163161F710928803109287031092E6
:1012F000C4021092C3021092C202DF91CF911F91DB
:101300000F91089525E042E068E371E082E292E007
:101310000E9484014FE056E060EE82E292E00E947B
:10132000FD024FE456E060E982E292E00E94FD0295
:101330004FEE56E060EC82E292E00E94FD0240EB4C
:1013400057E060ED82E292E00E94FD024DE058E03D
:1013500064EF82E292E00E94FD0244EE55E065EF08
:1013600082E292E00E94FD0242E65AE060EF82E2F1
:1013700092E00E942D034DE359E06FEF82E292E08C
:101380000E94250340E051EE60E070E082E292E0CE
:101390000E94C7040E943D090C94780ECF93DF93FE
:1013A000C7EED2E0CE010E94CE10239683E0CB3070
:1013B000D807C1F7DF91CF910895682F89E294E0B3
:1013C0000C947B1289E294E00E942B120895AF9254
:1013D000BF92DF92EF92FF920F931F93CF93DF9311
:1013E0001F92CDB7DEB7F82E5B01D42E6F3F8FEF83
:1013F0007807C1F06F2D89E294E029830E94C4121E
:101400008A2D0E94DD092981622F89E294E00E94E1
:10141000CE1280910B0390910C03009729F00E944B
:10142000121602C0A12CB12C4D2D6F2D89E294E033
:101430000E9442130D2D10E089E294E00E942312D5
:10144000081719071CF467E971E009C089E294E004
:101450000E9423128017910734F464EB71E082E25A
:1014600092E00E94EF02F0920E03A0920F0350E16F
:10147000E52E53E0F52EA12CB12CA016B1069CF060
:1014800042E04D0D2EE033E067E782E292E00F90FC
:10149000DF91CF911F910F91FF90EF90DF90BF9060
:1014A000AF900C94A40289E294E00E942312892B4D
:1014B00039F30E94E209F70181937F01FFEFAF1A30
:1014C000BF0ADBCFCF92DF92EF92FF920F931F9371
:1014D000CF93DF93CDB7DEB729970FB6F894DEBF71
:1014E0000FBECDBFF62E8A018F3609F474C178F491
:1014F000893609F476C220F4813509F48AC251C3D1
:101500008B3609F48EC18D3609F409C24AC3863779
:1015100079F038F4803709F404C1853709F481C2C1
:1015200040C3883709F4E6C08A3709F438C139C3A3
:10153000DA0111962C91922F987125FF03C060ED6E
:1015400071E057C0FA01808126FB222720F931E0A3
:101550002327983051F150F4911123C3682F89E269
:1015600094E00E94C412B2E0EB2E06C09031D9F193
:10157000983109F471C015C3EF1470F4F801EE0D41
:10158000F11D91818081F0E89F9F801911240E94B4
:10159000DD09E394E394F0CF89E294E00E944513DF
:1015A00086E490E00E941216FCC242816381B6E09C
:1015B000E0E8FB1210C06E9FB0011124640F711D92
:1015C000D80115969C91159714964C91B0E89B9F65
:1015D0004019112405C06E9F401911246FEF7FEF51
:1015E0000E94E709DEC2E0910A01E7303CF060EFBB
:1015F00071E082E292E00E94EF02D3C2DA01129619
:101600009C91129713964C91B6E0F0E86B1310C0C2
:101610004F9FA0011124490F511DD80115963C91EF
:10162000159714969C91B0E83B9F9019112405C022
:101630004F9F901911244FEF5FEFEF5FE0930A0186
:1016400035E0E302F0011124E25BFC4F808352831A
:10165000418393832483A5C260910A0116163CF44A
:1016600070E0262F332727FD309595E00FC08FEFD0
:1016700080930A0196C2949FF001959FF00D11246A
:10168000E25BFC4F4081481739F07F5F472F50E005
:101690002417350784F770E015E0872F90E02817AE
:1016A000390724F1783000F5AC014F5F5F4F149F8C
:1016B000D001159FB00D1124A25BBC4F4C91189F17
:1016C000F001199FF00D1124E25BFC4F408311964D
:1016D0008D919C9112979283818313968C9113978D
:1016E000838314968C9184837F5FD7CF61506093FE
:1016F0000A0157C2DA012C9111968C91B0E88B9FA8
:10170000C0011124820F911D009721F090930C03CA
:1017100080930B0380910D03811143C20E9427091E
:1017200040C2E4E0E61708F03CC2DA01FC901196F2
:10173000EC9011971296DC9012971396CC90139719
:1017400014961C918EEF8F0D823108F02AC2EF2D76
:10175000F0E0EF52FD4FE081EC3060F4F0E0CF01BB
:10176000880F991F8E0F9F1F89519D4F0E94141241
:10177000811113C2B0E81B9FA00111244C0D511D13
:10178000E0E8DE9EB00111246E0D711D8F2D0E94C8
:10179000200764E070E08F2D0E940D0802C2F1E086
:1017A000F61708F0FEC1DA012C9111968C91B0E881
:1017B0008B9FC0011124820F911D90930C01809387
:1017C0000B01892B09F0EDC181E090E090930C01B1
:1017D00080930B01E6C1E1E0E61708F0E2C1DA010F
:1017E00011966C9170E0B2E0FB16B1F0FA01228123
:1017F000F0E82F9F90011124622B732B23E0F21647
:1018000059F0DA0113968C9190E090E4899F902D25
:1018100088271124682B792BF80180810E940F06FC
:10182000C0C160EF82E292E00E94F3026CE682E2C5
:1018300092E00E94F3021EEF84EF810F883058F48B
:1018400062E082E292E00E94F3026AE082E292E0C9
:101850000E94F3020DC0113059F463E082E292E07D
:101860000E94F30268E082E292E00E94F30208C064
:101870008DEF810F823088F389EF810F833068F319
:10188000123150F464E082E292E00E94F3026EE0D2
:1018900082E292E00E94F30280EF810F823050F4E6
:1018A00066E082E292E00E94F30261E082E292E06E
:1018B0000E94F3026FE782E292E00E94F3021F5F50
:1018C000143109F442C0123108F0B6CF60E082E270
:1018D00092E00E94F30261E082E292E00E94F30251
:1018E0006BE082E292E00E94F30261E082E292E029
:1018F0000E94F30261E082E292E00E94F30261E062
:1019000082E292E00E94F30265E782E292E00E94A6
:10191000F30261E082E292E00E94F3028DCF66233F
:1019200009F43FC1DA011C9160EF82E292E00E946B
:10193000F3026EE682E292E00E94F302612F82E2FD
:1019400092E00E94F302163130F067EF82E292E0FB
:101950000E94F30226C1612F82E292E00E943303CB
:10196000682F82E292E00E94F302612F82E292E00D
:101970000E944403682F6F7782E292E00E94F30294
:10198000612F82E292E00E9444038078892B79F0F3
:10199000612F82E292E00E944403880F892F881F02
:1019A000990B682F6F7782E292E00E94F302612F19
:1019B00082E292E00E9444038827907C892B29F2DE
:1019C000612F82E292E00E944403990F880B990FE5
:1019D000982F881F682F6F7782E292E00E94F302AF
:1019E000B4CF60EF82E292E00E94F3026AE682E204
:1019F00092E00E94F30212EF183010F06FE701C07E
:101A0000612F82E292E00E94F3021F5F1830A1F77B
:101A10009CCF662309F4C5C0BA018F2D0E94840EA5
:101A2000C0C0FA018381C28080FBC7F8D12CE12CB1
:101A3000F12CFC2CEE24DD24CC249581848190FBB8
:101A400087F990E0A0E0B0E0DC0199278827C80E74
:101A5000D91EEA1EFB1E9185808590FB87F9C80E72
:101A6000D11CE11CF11C9781868190FB87F990E0E5
:101A7000A0E0B0E0BA2FA92F982F8827C80ED91E52
:101A8000EA1EFB1E818161E08130C1F480810E94E9
:101A9000FD1660E0D8018C910E94361782E090E03C
:101AA0000E94121661E0F80180810E943617C6017B
:101AB0000E94121660E0D8018C9113C0FA01808157
:101AC0000E94361782E090E00E94121660E0D80172
:101AD0008C910E943617C6010E94121661E0F8012F
:101AE00080810E943617D8011B968C911B971A96FD
:101AF0002C9180FB27F9822F90E0A0E0B0E0582FD6
:101B0000442733272227F8019585848590FB87F9A0
:101B100090E0A0E0B0E0DC0199278827280F391F6A
:101B20004A1F5B1F9189808990FB87F9280F311D1F
:101B3000411D511D9785868590FB87F990E0A0E0B7
:101B4000B0E0BA2FA92F982F8827280F391F4A1FD6
:101B50005B1F60E080812E833F83488759870E9406
:101B6000FD162E813F8148855985D80111966C91CB
:101B700011978C910E946C17F801208129839A8318
:101B80008B837C836D839E012F5F3F4F45E065E72C
:101B900082E292E00E94A40204C08F2D0E94660798
:101BA000E9CD29960FB6F894DEBF0FBECDBFDF9109
:101BB000CF911F910F91FF90EF90DF90CF900895FC
:101BC0008F929F92AF92BF92CF92DF92EF92FF924D
:101BD0000F931F930E94D70782E292E00E94E401D4
:101BE000892B29F082E292E00E943904F5CF0E940D
:101BF000A91560937A0370937B0380937C03909381
:101C00007D03C0907603D0907703E0907803F09046
:101C1000790340910B0150910C014A01A12CB12C88
:101C20008B019C010C191D092E093F098016910694
:101C3000A206B30608F051C0D501C4018C0D9D1D4C
:101C4000AE1DBF1D8093760390937703A093780316
:101C5000B093790312EF6EE0610F1830D8F482E28E
:101C600092E00E9433038230A9F4209187033091DF
:101C70008803012E02C0359527950A94E2F720FFCC
:101C800009C0812F0E945816AC01612F82E292E0B8
:101C90000E945D021F5F1830F1F680910A0187FDF6
:101CA0001CC010E005E0812F90E020910A0133274D
:101CB00027FD30952817390784F0089FF001099F08
:101CC000F00D1124E25BFC4F61817281248143811C
:101CD00080810E94E7091F5FE6CF1F910F91FF905F
:101CE000EF90DF90CF90BF90AF909F908F9008952E
:101CF000E1E9F3E0A9E8B3E0119211921D9283E0CB
:101D0000E13AF807C9F708959F92AF92BF92CF9238
:101D1000DF92EF92FF920F931F93CF93DF93FB011C
:101D200090819F70923009F442C020F4913009F400
:101D3000EBC04EC1933009F482C0943009F048C121
:101D4000C280D12CE12CF12CA7E0CC0CDD1CEE1CC8
:101D5000FF1CAA95D1F7838190E0A0E0B0E0CEE02F
:101D6000880F991FAA1FBB1FCA95D1F7C80ED91E8D
:101D7000EA1EFB1E8181C80ED11CE11CF11C84816E
:101D800090E0A0E0B0E0D5E1880F991FAA1FBB1F2B
:101D9000DA95D1F7C80ED91EEA1EFB1EC1EAD3E0C0
:101DA00019E8A12E13E0B12E992493942DC08091AF
:101DB000010481110DC181E080930104C1EAD3E0E7
:101DC00009E813E0CE010E944B05892B21F0F801B0
:101DD00080818111F9C0F80111928F012C96F4E0F5
:101DE000C130DF0779F710920104F2C0CE010E94E2
:101DF0004F05F50190822C96FFEFAF1ABF0A24E041
:101E0000C130D20709F4E4C0CE010E944B05892BF2
:101E100091F3C114D104E104F10441F300E010E0B6
:101E2000CE010E944B050817190718F7A701960164
:101E3000B801CE010E945D050F5F1F4FF1CF828177
:101E4000618170E030E8839F600D711D11249381E2
:101E50002481C5808681E1E9F3E0C0E041915191A0
:101E60006417750778F530E040E050E017E0220F86
:101E7000331F441F551F1A95D1F7D12CE12CF12C9B
:101E80000EE0CC0CDD1CEE1CFF1C0A95D1F72C0DCE
:101E90003D1D4E1D5F1D290F311D411D511D90E03F
:101EA000A0E0B0E0E5E1880F991FAA1FBB1FEA95EB
:101EB000D1F7280F391F4A1F5B1FC11107C081EAE4
:101EC00093E019C0CF5FC83049F682C0EC2FFF27DE
:101ED000E7FDF095DF01AA0FBB1FA157BC4F8D9105
:101EE0009C91681B790BACE0AE9FC001AF9F900D39
:101EF00011248F559C4F0E945D05EC2FF0E0E757B1
:101F0000FC4F81E0808364C0833008F461C09BEAA9
:101F1000899FB12C1124B694C1EAD3E091E9E92E4E
:101F200093E0F92E8B010D5F1F4FA12C80910204CD
:101F3000F80132976F01811105C060816F71CE0188
:101F40000E94BC05F601208130E085E0359527959B
:101F50008A95E1F72130310549F02230310551F001
:101F6000232B59F4CE010E94A60507C0CE010E9482
:101F7000AD0503C0CE010E94B405F8013197808100
:101F8000F8016081F0E86F9FB0011124680F711DA6
:101F9000CE010E940705AA2029F0F7013297C080E0
:101FA000D18002C0C12CD12CCE010E944B058C0DDA
:101FB0009D1DF701819391937F01A3942C960D5F52
:101FC0001F4FAB10B3CF04C0CE010E94850503CFD5
:101FD000DF91CF911F910F91FF90EF90DF90CF9005
:101FE000BF90AF909F900895CF93DF93C1EAD3E065
:101FF000CE010E9447052C9684E0C130D807C1F776
:10200000DF91CF910895CF93DF93C1E0D4E02C9777
:10201000CE010E94BB0583E0C13AD807C1F7DF912A
:10202000CF9108951F920F920FB60F9211242F9304
:102030003F934F935F936F937F938F939F93AF9350
:10204000BF93EF93FF938091040487FF05C0109224
:102050008500109284001AC020910404332727FDC4
:1020600030958091030490E0281739077CF4809123
:102070000404992787FD9095FC01EE0FFF1FE80FE0
:10208000F91FEB5FFB4F808186FD15C08091040432
:102090008F5F8093040420910404332727FD30953B
:1020A0008091030490E028173907BCF48091040460
:1020B0008C305CF112C080910404992787FD9095C3
:1020C000FC01EE0FFF1FE80FF91FEB5FFB4F808154
:1020D00060E08F730E943617D9CF80918400909171
:1020E0008500049680349C4918F480E49CE905C07E
:1020F000809184009091850004969093890080934C
:1021000088008FEF8093040438C0209184003091C0
:10211000850080910404992787FD9095FC01EE0FBE
:10212000FF1FE80FF91FEB5FFB4F81819281820F48
:10213000931F9093890080938800809104049927CD
:1021400087FD9095FC01EE0FFF1FE80FF91FEB5F75
:10215000FB4F808186FF11C080910404992787FD81
:102160009095FC01EE0FFF1FE80FF91FEB5FFB4F8F
:10217000808161E08F730E943617FF91EF91BF91CC
:10218000AF919F918F917F916F915F914F913F910F
:102190002F910F900FBE0F901F9018952091030460
:1021A0002C30A0F431E0320F30930304FC01208383
:1021B000822F90E0FC01EE0FFF1FE80FF91FEB5F8D
:1021C000FB4F88EB9BE09283818308952FEFFC0106
:1021D00020830895DF92EF92FF920F931F93CF9386
:1021E000DF93EC01D62E7A01890188818C3008F0CA
:1021F00066C061E08D2D0E94FD168881A82FB0E099
:10220000FD01EE0FFF1FEA0FFB1FEB5FFB4F2D2DB4
:102210002F739081907C922B908360E272E06E1914
:102220007F0977FF02C06D5F7F4F75956795759544
:102230006795698340E659E0401B510B57FF02C088
:102240004D5F5F4F55954795559547954A836CE08F
:102250000E94121A9CE0899FB001112420E030E016
:10226000A901460F571FFA01EE0FFF1FE40FF51FDC
:10227000EB5FFB4F908196FD16C02F5F3F4F2C30D8
:10228000310571F781110FC01092800082E08093B8
:1022900081001092850010928400B19A80916F00A5
:1022A000826080936F00888190E0FC01EE0FFF1F39
:1022B000E80FF91FEB5FFB4F80818064808388818A
:1022C000DF91CF911F910F91FF90EF90DF900895D4
:1022D00020E639E040E252E00C94EA10FC018081F3
:1022E00090E0FC01EE0FFF1FE80FF91FEB5FFB4FC3
:1022F00080818F7B80830895FC0180818C3070F514
:10230000918128E830E0291B310997FD3395220F90
:10231000331F220F331F621773077CF0928128E569
:1023200032E0291B310997FD3395220F331F220F0D
:10233000331F621773070CF49B0122503109220FDF
:10234000331F4FB7F89490E0FC01EE0FFF1FE80F2A
:10235000F91FEB5FFB4F328321834FBF08954F92EC
:102360005F926F927F92AF92BF92CF92DF92EF9285
:10237000FF920F931F93CF93DF93EC01603282E0C3
:1023800078070CF040C077FD06C0653B71052CF066
:1023900064EB70E002C060E070E0898128E830E022
:1023A000281B310987FD3395220F331F220F331F5E
:1023B0005901CC24B7FCC094DC2C882777FD80958C
:1023C000982F2A8148E552E0421B510927FD539579
:1023D000440F551F440F551F2A01662457FC609473
:1023E000762C7F926F925F924F9214EBE12EF12C3C
:1023F00000E010E020E030E0A9010E94AA190F904F
:102400000F900F900F90CE01DF91CF911F910F9100
:10241000FF90EF90DF90CF90BF90AF907F906F9044
:102420005F904F900C947C11FC01808190E0FC0146
:10243000EE0FFF1FE80FF91FEB5FFB4F808186FB5C
:10244000882780F908958091590490E020915A04DA
:10245000821B9109089520915A04809159042817EC
:1024600050F4E22FF0E0E55AFB4F808190E02F5FBF
:1024700020935A0408958FEF9FEF0895E0915A0436
:1024800080915904E81730F4F0E0E55AFB4F808161
:1024900090E008958FEF9FEF08950895CF92DF9217
:1024A000EF92FF920F931F93CF93DF937C01CB01A9
:1024B0008A0120913504222389F0EB016B01C40EBF
:1024C000D51ECC15DD0569F06991D701ED91FC9120
:1024D0000190F081E02DC7010995F3CF642F0E9490
:1024E0000914C801DF91CF911F910F91FF90EF90D8
:1024F000DF90CF900895CF93DF931F92CDB7DEB7D3
:102500006983209135042223D1F0209136042032B2
:1025100040F021E030E0FC013383228380E090E052
:1025200015C080913704E82FF0E0E85CFB4F9981FB
:1025300090838F5F809337048093360405C061E0F9
:10254000CE0101960E94091481E090E00F90DF9186
:10255000CF910895FC011382128248EE53E060E0AF
:1025600070E0448355836683778385E092E09183AE
:102570008083089510925A041092590410923704DF
:10258000109236040C944C1381E0809335046093D0
:102590005804109237041092360408950F93062FB2
:1025A00021E04091360468E374E0809158040E9471
:1025B000B2131092370410923604109235040F9122
:1025C00008958F929F92AF92BF92CF92DF92EF9237
:1025D000FF920F931F93CF93DF93EC01F62ED42E2F
:1025E00048015901EE2019F10E94C4121E2D143029
:1025F00008F013E01150B8F0E881F98128E0129F4B
:10260000B0011124A501940104C056954795379552
:1026100027956A95D2F7CA01B9010190F081E02DA2
:10262000CE010995E7CF60E0CE010E94CE124D2D7C
:10263000413208F040E22C2D6BE574E08F2D0E94B2
:102640006A1310925A0480935904DF91CF911F911D
:102650000F91FF90EF90DF90CF90BF90AF909F9041
:102660008F900895CF92EF920F931F93C22EE12C7B
:1026700000E010E098010E94E1121F910F91EF908D
:10268000CF90089521E00C94321361E00C94CE12A7
:1026900089E294E00C94AA121092E80481E08093FD
:1026A000E6041092E50461E082E10E94361761E0E1
:1026B00083E10E943617E9EBF0E080818E7F808312
:1026C00080818D7F808388E48093B80085E4809347
:1026D000BC000895413208F043C09091E804911184
:1026E000FCCF91E09093E8042093E6042FEF209331
:1026F0007B041092C004240F2093BF049093E7043E
:102700009091E704880F892B8093E7048091E5047A
:10271000813061F41092E5048091E7048093BB005E
:102720008091BC0083FDF8CF85EC01C085EE8093DD
:10273000BC008091E8048130E1F38091C0048417EB
:1027400010F44091C00421EC34E0FB01D9018A2F40
:10275000821B841718F48D918193F9CF842F0895EB
:1027600080E008950F93413208F04AC09091E80448
:102770009111FCCF92E09093E8040093E6049FEF60
:1027800090937B041092C0044093BF04FB0161EC62
:1027900074E0DB019A2F961B941718F491919D9386
:1027A000F9CF1092E7049091E704880F892B80936A
:1027B000E7048091E504813061F41092E504809192
:1027C000E7048093BB008091BC0083FDF8CF85ECCB
:1027D00001C085EE8093BC00222321F08091E804A3
:1027E0008230E1F380917B048F3F61F080917B0424
:1027F000803251F080917B04803341F483E007C044
:1028000081E005C080E003C082E001C084E00F9158
:102810000895613298F42091E804243089F460939B
:102820009D04FC018FE994E0DC012A2F281B261768
:1028300018F421912D93F9CF80E0089581E0089557
:1028400082E0089585ED8093BC008091BC0084FDFA
:10285000FCCF1092E804089585EC8093BC001092A0
:10286000E80408951F920F920FB60F9211242F9330
:102870003F934F935F936F937F938F939F93AF9308
:10288000BF93EF93FF938091B900887F803609F45E
:102890009EC078F5883209F45DC090F4803109F467
:1028A00056C038F4882309F4F5C0883009F44FC0C5
:1028B000F5C0883109F44EC0803209F45FC0EEC023
:1028C000803409F46AC058F4803309F457C088335F
:1028D00009F0E4C080937B040E942C14DFC0803593
:1028E00009F44FC0883509F45DC0883409F0D6C0BA
:1028F000D3C0883909F4C4C0A8F4883709F467C084
:1029000038F4883609F463C0803709F460C0C6C063
:10291000883809F4B5C0803909F45FC0803809F0FF
:10292000BDC05BC0803B09F483C038F4803A09F431
:1029300066C0883A09F47CC0B1C0803C09F4A4C0E8
:10294000883C09F4A1C0883B09F487C0A7C08091E6
:10295000E70410C09091C0048091BF04981770F5EF
:10296000E091C00481E08E0F8093C004F0E0EF534B
:10297000FB4F80818093BB0085EC83C080937B04F8
:102980008BC0E091C00481E08E0F8093C0048091E1
:10299000BB00F0E0EF53FB4F80839091C004809127
:1029A000BF046BC0E091C00481E08E0F8093C0042F
:1029B0008091BB00F0E0EF53FB4F80838091E604F1
:1029C00081116AC081E08093E50484EA5EC083E0FF
:1029D0008093E80410927C04CFCF80917C048032F5
:1029E00008F04EC0E0917C0481E08E0F80937C045F
:1029F0008091BB00F0E0E358FB4F8083BDCF0E9485
:102A00002C1480917C04803230F4E0917C04F0E05E
:102A1000E358FB4F108260917C0470E0E091E10488
:102A2000F091E2048DE794E0099510927C0436C0A1
:102A300084E08093E80410929E0410929D04E0913B
:102A4000E304F091E404099580919D04811105C08F
:102A500081E080939D0410929F04E0919E0481E0A8
:102A60008E0F80939E04F0E0E156FB4F80818093AF
:102A7000BB0090919E0480919D04981708F47CCF30
:102A800085E88093BC000AC085EC8093BC0010925E
:102A9000E80404C010927B040E942214FF91EF917D
:102AA000BF91AF919F918F917F916F915F914F9166
:102AB0003F912F910F900FBE0F901F9018951F926E
:102AC0000F920FB60F9211242F933F938F939F93E2
:102AD000AF93BF938091EA049091EB04A091EC0432
:102AE000B091ED043091E90423E0230F2D3720F459
:102AF0000196A11DB11D05C026E8230F0296A11D58
:102B0000B11D2093E9048093EA049093EB04A09311
:102B1000EC04B093ED048091EE049091EF04A09149
:102B2000F004B091F1040196A11DB11D8093EE0453
:102B30009093EF04A093F004B093F104BF91AF9190
:102B40009F918F913F912F910F900FBE0F901F90EB
:102B500018952FB7F8946091EA047091EB04809176
:102B6000EC049091ED042FBF08953FB7F894809145
:102B7000EE049091EF04A091F004B091F10426B519
:102B8000A89B05C02F3F19F00196A11DB11D3FBFA5
:102B90006627782F892F9A2F620F711D811D911D35
:102BA00042E0660F771F881F991F4A95D1F7089555
:102BB0008F929F92AF92BF92CF92DF92EF92FF924D
:102BC0006B017C010E94B5154B015C01C114D1045D
:102BD000E104F104F1F00E94011A0E94B515681990
:102BE00079098A099B09683E73408105910570F354
:102BF00021E0C21AD108E108F10888EE880E83E0CE
:102C0000981EA11CB11CC114D104E104F10429F7E0
:102C1000DDCFFF90EF90DF90CF90BF90AF909F906F
:102C20008F9008958230910538F0880F991F880F92
:102C3000991F05970197F1F70895789484B58260FC
:102C400084BD84B5816084BD85B5826085BD85B550
:102C5000816085BDEEE6F0E0808181608083E1E8FF
:102C6000F0E0108280818260808380818160808337
:102C7000E0E8F0E0808181608083E1EBF0E080813A
:102C800084608083E0EBF0E0808181608083EAE70C
:102C9000F0E0808184608083808182608083808195
:102CA000816080838081806880831092C100089554
:102CB0008E3008F08E50877020910D0190E4299F8E
:102CC00090011124822B80937C0080917A00806493
:102CD00080937A0080917A0086FDFCCF8091780005
:102CE0002091790090E0922B08951F93CF93DF936A
:102CF000182FEB0161E00E94FD16209711F460E0AF
:102D000004C0CF3FD10539F461E0812FDF91CF912D
:102D10001F910C943617E12FF0E0E058FF4FE4913B
:102D2000E330F9F048F4E130B9F0E230A1F584B5D0
:102D3000806284BDC8BD34C0E730E9F0E83019F1E5
:102D4000E43049F580918000806280938000D093C8
:102D50008B00C0938A0024C084B5806884BDC7BD41
:102D60001FC080918000806880938000D09389008C
:102D7000C093880015C08091B00080688093B00037
:102D8000C093B3000DC08091B00080628093B0000A
:102D9000C093B40005C0C038D1050CF0B5CFAFCF9B
:102DA000DF91CF911F910895833081F028F4813015
:102DB00099F08230A1F008958730A9F08830B9F0F9
:102DC0008430D1F4809180008F7D03C08091800099
:102DD0008F7780938000089584B58F7702C084B583
:102DE0008F7D84BD08958091B0008F7703C080915E
:102DF000B0008F7D8093B0000895CF93DF9390E073
:102E0000FC01EC56FF4F2491FC01E855FF4F8491E3
:102E1000882349F190E0880F991FFC01E053FF4F90
:102E2000A591B4918A539F4FFC01C591D4919FB74E
:102E3000611108C0F8948C91209582238C9388812D
:102E400082230AC0623051F4F8948C91322F30956D
:102E500083238C938881822B888304C0F8948C917F
:102E6000822B8C939FBFDF91CF9108950F931F9377
:102E7000CF93DF931F92CDB7DEB7282F30E0F90153
:102E8000E058FF4F8491F901EC56FF4F1491F9017E
:102E9000E855FF4F04910023C9F0882321F069838E
:102EA0000E94D4166981E02FF0E0EE0FFF1FEA5375
:102EB000FF4FA591B4919FB7F8948C91611103C015
:102EC0001095812301C0812B8C939FBF0F90DF91C0
:102ED000CF911F910F9108950F931F93762F90E03C
:102EE000FC01EC56FF4F6491FC01E855FF4FE49163
:102EF0007111762FF0E0EE0FFF1FE454FF4F859124
:102F0000949189019A013F70472F0E949D0061159D
:102F100071058105910531F06F5F7F4F8F4F9F4F96
:102F20009F7003C060E070E0CB011F910F91089586
:102F3000FC01818D228D90E0805C9F4F821B910966
:102F40008F7399270895FC01918D828D981731F028
:102F5000828DE80FF11D858D90E008958FEF9FEF32
:102F60000895FC01918D828D981761F0828DDF01AB
:102F7000A80FB11D5D968C91928D9F5F9F73928F6C
:102F800090E008958FEF9FEF089585E399E1892BF5
:102F900049F080E090E0892B29F00E9435198111D9
:102FA0000C9400000895FC01848DDF01A80FB11D71
:102FB000A35ABF4F2C91848D90E001968F7399276F
:102FC000848FA689B7892C93A089B1898C9180645C
:102FD0008C93938D848D981306C00288F389E02D1D
:102FE00080818F7D80830895CF93DF93EC01888D5E
:102FF0008823C9F0EA89FB89808185FD05C0A889FD
:10300000B9898C9186FD0FC00FB607FCF5CF808182
:1030100085FFF2CFA889B9898C9185FFEDCFCE01CC
:103020000E94D317E7CFDF91CF910895CF92DF921F
:10303000FF920F931F93CF93DF931F92CDB7DEB70D
:103040006C0181E0D60158968C9358975B969C91C1
:103050005B975C968C915C97981307C05096ED91A6
:10306000FC915197808185FD2EC0F601038D10E003
:103070000F5F1F4F0F731127F02EF601848DF8128A
:1030800011C00FB607FCF9CFD6015096ED91FC9117
:103090005197808185FFF1CFC60169830E94D317C4
:1030A0006981EBCF838DE80FF11DE35AFF4F6083F9
:1030B000D6015B960C935B975296ED91FC915397DA
:1030C000808180620CC0D6015696ED91FC91579795
:1030D00060835096ED91FC9151978081806480834C
:1030E00081E090E00F90DF91CF911F910F91FF90C1
:1030F000DF90CF900895BF92CF92DF92EF92FF9230
:10310000CF93DF93EC016A017B01B22EE889F98944
:1031100082E08083411581EE580761057105A1F0B9
:1031200060E079E08DE390E0A70196010E941E1A0D
:1031300021503109410951095695479537952795F1
:10314000211580E1380798F0E889F989108260E854
:1031500074E88EE190E0A70196010E941E1A2150AA
:103160003109410951095695479537952795EC85C1
:10317000FD853083EE85FF852083188EEC89FD89DF
:10318000B082EA89FB89808180618083EA89FB893A
:10319000808188608083EA89FB8980818068808360
:1031A000EA89FB8980818F7D8083DF91CF91FF90B9
:1031B000EF90DF90CF90BF9008951F920F920FB6BF
:1031C0000F9211242F938F939F93EF93FF93E0918E
:1031D0000205F09103058081E0910805F091090551
:1031E00082FD12C0908180910B058F5F8F732091BB
:1031F0000C05821751F0E0910B05F0E0EE50FB4F0B
:10320000958F80930B0501C08081FF91EF919F9175
:103210008F912F910F900FBE0F901F9018951F92B6
:103220000F920FB60F9211242F933F934F935F93FA
:103230006F937F938F939F93AF93BF93EF93FF937E
:1032400082EF94E00E94D317FF91EF91BF91AF916D
:103250009F918F917F916F915F914F913F912F91AE
:103260000F900FBE0F901F90189582EF94E00E9470
:10327000981721E0892B09F420E0822F08951092FD
:10328000F5041092F40488EE93E0A0E0B0E080939F
:10329000F6049093F704A093F804B093F90485E141
:1032A00092E09093F3048093F20485EC90E0909385
:1032B000FF048093FE0484EC90E0909301058093DA
:1032C000000580EC90E0909303058093020581EC6B
:1032D00090E0909305058093040582EC90E0909334
:1032E00007058093060586EC90E09093090580938E
:1032F000080510920B0510920C0510920D05109206
:103300000E050895CF92DF92EF92FF920F931F93D5
:10331000CF93DF937C016A01EB0100E010E00C1514
:103320001D0571F06991D701ED91FC910190F0813B
:10333000E02DC7010995892B19F00F5F1F4FEFCFC3
:10334000C801DF91CF911F910F91FF90EF90DF9017
:10335000CF9008954F925F926F927F92AF92BF92FB
:10336000CF92DF92EF92FF920F931F93CF93DF9351
:10337000CDB7DEB729013A01621B730B840B950BA5
:1033800029893A894B895C892A193B094C095D09CD
:10339000298B3A8B4B8B5C8B9B01AC0169897A89B9
:1033A0008B899C890E94021AE418F50806091709FE
:1033B000A80197010E94401A2A0D3B1D4C1D5D1D5E
:1033C000CA01B901DF91CF911F910F91FF90EF904A
:1033D000DF90CF90BF90AF907F906F905F904F90B5
:1033E000089508950E941D160E94F1190E948209F5
:1033F000C5ECD7E10E94E00D2097E1F30E94C517CC
:10340000F9CF0895DB018F939F930E94651ABF91B6
:10341000AF91A29F800D911DA39F900DB29F900D23
:1034200011240895991B79E004C0991F961708F09C
:10343000961B881F7A95C9F780950895A1E21A2EE8
:10344000AA1BBB1BFD010DC0AA1FBB1FEE1FFF1F48
:10345000A217B307E407F50720F0A21BB30BE40B98
:10346000F50B661F771F881F991F1A9469F76095DF
:103470007095809590959B01AC01BD01CF01089599
:10348000052E97FB1EF400940E94571A57FD07D093
:103490000E941E1A07FC03D04EF40C94571A509544
:1034A0004095309521953F4F4F4F5F4F0895909530
:1034B0008095709561957F4F8F4F9F4F0895EE0FC8
:1034C000FF1F0590F491E02D09940E94701AA59FAA
:1034D000900DB49F900DA49F800D911D112408950F
:1034E000A29FB001B39FC001A39F700D811D112445
:1034F000911DB29F700D811D1124911D0895CF93D0
:10350000DF938230910510F482E090E0E091910524
:10351000F091920520E030E0A0E0B0E0309739F182
:103520004081518148175907B8F04817590771F47D
:1035300082819381109729F013969C938E93129712
:103540002CC0909392058093910527C021153105D9
:1035500031F04217530718F0A901DB0101C0EF0158
:103560009A01BD01DF010280F381E02DD7CF211543
:103570003105F9F0281B390B2430310580F48A819C
:103580009B816115710521F0FB019383828304C047
:103590009093920580939105FE01329644C0FE01FE
:1035A000E20FF31F819391932250310939832883CD
:1035B0003AC020918F0530919005232B41F4209142
:1035C0000201309103013093900520938F052091E3
:1035D0000001309101012115310541F42DB73EB7AD
:1035E0004091040150910501241B350BE0918F059A
:1035F000F0919005E217F307A0F42E1B3F0B28175C
:10360000390778F0AC014E5F5F4F2417350748F05B
:103610004E0F5F1F5093900540938F0581939193B8
:1036200002C0E0E0F0E0CF01DF91CF910895CF93A9
:10363000DF93009709F487C0FC013297138212824E
:10364000C0919105D0919205209781F4208131811C
:10365000280F391F80918F0590919005821793074D
:1036600079F5F0939005E0938F056DC0DE0120E0C1
:1036700030E0AE17BF0750F412964D915C9113974E
:103680009D014115510509F1DA01F3CFB383A283FE
:1036900040815181840F951F8A179B0771F48D918A
:1036A0009C911197840F951F0296918380831296A7
:1036B0008D919C911397938382832115310529F471
:1036C000F0939205E09391053EC0D9011396FC93C7
:1036D000EE9312974D915D91A40FB51FEA17FB076A
:1036E00079F480819181840F951F0296D9011196FA
:1036F0009C938E938281938113969C938E931297C1
:10370000E0E0F0E08A819B81009719F0FE01EC0176
:10371000F9CFCE01029628813981820F931F209123
:103720008F05309190052817390769F4309729F4EF
:10373000109292051092910502C013821282D093CA
:103740009005C0938F05DF91CF910895DC0101C0F2
:103750006D9341505040E0F70895FB01DC0141506A
:10376000504048F001900D920020C9F701C01D9211
:1037700041505040E0F70895FC0181E090E0019055
:10378000061609F4CF010020D1F701970895FB0137
:1037900051915523A9F0BF01DC014D91451741110D
:1037A000E1F759F4CD010190002049F04D91401509
:1037B0004111C9F3FB014111EFCF81E090E0019786
:1037C000089510E0C4EED0E004C0FE010E94611A2A
:0C37D0002296C63ED107C9F7F894FFCF3F
:1037DC0000009305800001000000FF1300012E6320
:1037EC007070004D617820736572766F7320617410
:1037FC0074616368656400556E6B6E6F776E2070D4
:10380C00696E206D6F6465002F55736572732F613F
:10381C006E6E612F446576656C6F706D656E742F7E
:10382C006D626F742F616E6E612F6D626F745F6E5F
:10383C006F6465626F74732F6669726D7761726500
:10384C002F6275696C642F7573622F6D626F74468D
:10385C0069726D6174612F6D626F744669726D610E
:10386C0074612E696E6F004932433A20546F6F2099
:10387C006D616E7920627974657320726563656918
:10388C00766564004932433A20546F6F2066657741
:10389C00206279746573207265636569766564006E
:1038AC0031302D6269742061646472657373696E62
:1038BC0067206E6F7420737570706F72746564001E
:1038CC00746F6F206D616E792071756572696573A7
:1038DC0000000000007B124E1223122B123E124DE0
:1038EC001200000000161882199817B117A317F4CC
:0238FC001700B3
:00000001FF
